{
	"data": {
		"bytecode": {
			"linkReferences": {},
			"object": "60806040523480156200001157600080fd5b50604051620050c1380380620050c1833981810160405281019062000037919062000612565b60008060006101000a81548160ff02191690831515021790555084600260006101000a81548160ff021916908360ff1602179055506200008283620001a360201b620024c61760201c565b600260016101000a81548160ff021916908360ff160217905550620000b282620001f460201b620025141760201c565b6002806101000a8154816fffffffffffffffffffffffffffffffff02191690836fffffffffffffffffffffffffffffffff160217905550620000ff816200025460201b620025711760201c565b600260126101000a81548164ffffffffff021916908364ffffffffff160217905550620001366000801b33620002a960201b60201c565b60005b84518110156200019757620001897fe2b7fb3b832174769106daebcfd6d1970523240dda11281102db9363b83b0dc48683815181106200017557fe5b6020026020010151620002bf60201b60201c565b808060010191505062000139565b50505050505062000964565b60006101008210620001ec576040517f08c379a0000000000000000000000000000000000000000000000000000000008152600401620001e39062000841565b60405180910390fd5b819050919050565b600070010000000000000000000000000000000082106200024c576040517f08c379a00000000000000000000000000000000000000000000000000000000081526004016200024390620007fd565b60405180910390fd5b819050919050565b6000650100000000008210620002a1576040517f08c379a000000000000000000000000000000000000000000000000000000000815260040162000298906200081f565b60405180910390fd5b819050919050565b620002bb82826200034e60201b60201c565b5050565b620002f66001600084815260200190815260200160002060020154620002ea620003f260201b60201c565b620003fa60201b60201c565b62000338576040517f08c379a00000000000000000000000000000000000000000000000000000000081526004016200032f90620007db565b60405180910390fd5b6200034a82826200034e60201b60201c565b5050565b6200037d81600160008581526020019081526020016000206000016200043360201b620025c31790919060201c565b15620003ee5762000393620003f260201b60201c565b73ffffffffffffffffffffffffffffffffffffffff168173ffffffffffffffffffffffffffffffffffffffff16837f2f8788117e7eff1d82e926ec794901d17c78024a50270940304540a733656f0d60405160405180910390a45b5050565b600033905090565b60006200042b82600160008681526020019081526020016000206000016200046b60201b620025f31790919060201c565b905092915050565b600062000463836000018373ffffffffffffffffffffffffffffffffffffffff1660001b620004a360201b60201c565b905092915050565b60006200049b836000018373ffffffffffffffffffffffffffffffffffffffff1660001b6200051d60201b60201c565b905092915050565b6000620004b783836200051d60201b60201c565b6200051257826000018290806001815401808255809150506001900390600052602060002001600090919091909150558260000180549050836001016000848152602001908152602001600020819055506001905062000517565b600090505b92915050565b600080836001016000848152602001908152602001600020541415905092915050565b600081519050620005518162000916565b92915050565b600082601f8301126200056957600080fd5b8151620005806200057a8262000891565b62000863565b91508181835260208401935060208101905083856020840282011115620005a657600080fd5b60005b83811015620005da5781620005bf888262000540565b845260208401935060208301925050600181019050620005a9565b5050505092915050565b600081519050620005f58162000930565b92915050565b6000815190506200060c816200094a565b92915050565b600080600080600060a086880312156200062b57600080fd5b60006200063b88828901620005fb565b955050602086015167ffffffffffffffff8111156200065957600080fd5b620006678882890162000557565b94505060406200067a88828901620005e4565b93505060606200068d88828901620005e4565b9250506080620006a088828901620005e4565b9150509295509295909350565b6000620006bc602f83620008ba565b91507f416363657373436f6e74726f6c3a2073656e646572206d75737420626520616e60008301527f2061646d696e20746f206772616e7400000000000000000000000000000000006020830152604082019050919050565b600062000724601e83620008ba565b91507f76616c756520646f6573206e6f742066697420696e20313238206269747300006000830152602082019050919050565b600062000766601d83620008ba565b91507f76616c756520646f6573206e6f742066697420696e20343020626974730000006000830152602082019050919050565b6000620007a8601c83620008ba565b91507f76616c756520646f6573206e6f742066697420696e20382062697473000000006000830152602082019050919050565b60006020820190508181036000830152620007f681620006ad565b9050919050565b60006020820190508181036000830152620008188162000715565b9050919050565b600060208201905081810360008301526200083a8162000757565b9050919050565b600060208201905081810360008301526200085c8162000799565b9050919050565b6000604051905081810181811067ffffffffffffffff821117156200088757600080fd5b8060405250919050565b600067ffffffffffffffff821115620008a957600080fd5b602082029050602081019050919050565b600082825260208201905092915050565b6000620008d882620008df565b9050919050565b600073ffffffffffffffffffffffffffffffffffffffff82169050919050565b6000819050919050565b600060ff82169050919050565b6200092181620008cb565b81146200092d57600080fd5b50565b6200093b81620008ff565b81146200094757600080fd5b50565b620009558162000909565b81146200096157600080fd5b50565b61474d80620009746000396000f3fe6080604052600436106102255760003560e01c806384db809f11610123578063a9cf69fa116100ab578063cb10f2151161006f578063cb10f2151461082c578063cdb0f73a14610855578063d547741f1461087e578063d7a9cd79146108a7578063ffaac0eb146108d257610225565b8063a9cf69fa14610731578063beab71311461076e578063c5b37c2214610799578063c5ec8970146107c4578063ca15c873146107ef57610225565b806391d14854116100f257806391d148541461064a578063926d7d7f146106875780639d82dd63146106b25780639debb3bd146106db578063a217fddf1461070657610225565b806384db809f1461057e5780638c0c2631146105bb5780639010d07c146105e457806391c404ac1461062157610225565b80634e056005116101b15780635e1fab0f116101755780635e1fab0f146104ad578063780cf004146104d65780637febe63f146104ff578063802aabe81461053c57806380ae1c281461056757610225565b80634e056005146103b65780634e0df3f6146103df578063541d55481461041c5780635a1ad87c146104595780635c975abb1461048257610225565b80632f2ff15d116101f85780632f2ff15d146102d557806336568abe146102fe5780634454b20d146103275780634603ae38146103505780634b0b919d1461037957610225565b806305e2ca171461022a57806317f03ce5146102465780631ff013f11461026f578063248a9ca314610298575b600080fd5b610244600480360381019061023f9190613318565b6108e9565b005b34801561025257600080fd5b5061026d60048036038101906102689190613384565b610b23565b005b34801561027b57600080fd5b50610296600480360381019061029191906133d3565b610eda565b005b3480156102a457600080fd5b506102bf60048036038101906102ba91906131d6565b611548565b6040516102cc9190613e7e565b60405180910390f35b3480156102e157600080fd5b506102fc60048036038101906102f791906131ff565b611568565b005b34801561030a57600080fd5b50610325600480360381019061032091906131ff565b6115dc565b005b34801561033357600080fd5b5061034e60048036038101906103499190613436565b61165f565b005b34801561035c57600080fd5b5061037760048036038101906103729190613161565b611885565b005b34801561038557600080fd5b506103a0600480360381019061039b91906132ef565b611928565b6040516103ad9190614371565b60405180910390f35b3480156103c257600080fd5b506103dd60048036038101906103d89190613277565b61194f565b005b3480156103eb57600080fd5b50610406600480360381019061040191906131ff565b6119b4565b604051610413919061433b565b60405180910390f35b34801561042857600080fd5b50610443600480360381019061043e9190612f98565b611a05565b6040516104509190613e63565b60405180910390f35b34801561046557600080fd5b50610480600480360381019061047b91906130d8565b611a38565b005b34801561048e57600080fd5b50610497611b13565b6040516104a49190613e63565b60405180910390f35b3480156104b957600080fd5b506104d460048036038101906104cf9190612f98565b611b29565b005b3480156104e257600080fd5b506104fd60048036038101906104f89190613026565b611bbd565b005b34801561050b57600080fd5b50610526600480360381019061052191906132a0565b611c40565b6040516105339190613e63565b60405180910390f35b34801561054857600080fd5b50610551611d71565b60405161055e919061433b565b60405180910390f35b34801561057357600080fd5b5061057c611da1565b005b34801561058a57600080fd5b506105a560048036038101906105a091906131d6565b611db3565b6040516105b29190613df6565b60405180910390f35b3480156105c757600080fd5b506105e260048036038101906105dd9190612fea565b611de6565b005b3480156105f057600080fd5b5061060b6004803603810190610606919061323b565b611e63565b6040516106189190613df6565b60405180910390f35b34801561062d57600080fd5b5061064860048036038101906106439190613277565b611e95565b005b34801561065657600080fd5b50610671600480360381019061066c91906131ff565b611f51565b60405161067e9190613e63565b60405180910390f35b34801561069357600080fd5b5061069c611f83565b6040516106a99190613e7e565b60405180910390f35b3480156106be57600080fd5b506106d960048036038101906106d49190612f98565b611fa7565b005b3480156106e757600080fd5b506106f0612074565b6040516106fd919061433b565b60405180910390f35b34801561071257600080fd5b5061071b612079565b6040516107289190613e7e565b60405180910390f35b34801561073d57600080fd5b5061075860048036038101906107539190613384565b612080565b6040516107659190614305565b60405180910390f35b34801561077a57600080fd5b506107836121d2565b604051610790919061438c565b60405180910390f35b3480156107a557600080fd5b506107ae6121e5565b6040516107bb9190614320565b60405180910390f35b3480156107d057600080fd5b506107d9612205565b6040516107e69190614356565b60405180910390f35b3480156107fb57600080fd5b50610816600480360381019061081191906131d6565b61221c565b604051610823919061433b565b60405180910390f35b34801561083857600080fd5b50610853600480360381019061084e9190613089565b612243565b005b34801561086157600080fd5b5061087c60048036038101906108779190612f98565b612315565b005b34801561088a57600080fd5b506108a560048036038101906108a091906131ff565b61242d565b005b3480156108b357600080fd5b506108bc6124a1565b6040516108c9919061438c565b60405180910390f35b3480156108de57600080fd5b506108e76124b4565b005b6108f1612623565b60028054906101000a90046fffffffffffffffffffffffffffffffff166fffffffffffffffffffffffffffffffff163414610961576040517f08c379a0000000000000000000000000000000000000000000000000000000008152600401610958906140e5565b60405180910390fd5b60006004600085815260200190815260200160002060009054906101000a900473ffffffffffffffffffffffffffffffffffffffff169050600073ffffffffffffffffffffffffffffffffffffffff168173ffffffffffffffffffffffffffffffffffffffff161415610a09576040517f08c379a0000000000000000000000000000000000000000000000000000000008152600401610a0090614145565b60405180910390fd5b6000600360008760ff1660ff168152602001908152602001600020600081819054906101000a900467ffffffffffffffff1660010191906101000a81548167ffffffffffffffff021916908367ffffffffffffffff1602179055905060008290508073ffffffffffffffffffffffffffffffffffffffff166338995da9878985338a8a6040518763ffffffff1660e01b8152600401610aad96959493929190613f47565b600060405180830381600087803b158015610ac757600080fd5b505af1158015610adb573d6000803e3d6000fd5b505050507fdbb69440df8433824a026ef190652f29929eb64b4d1d5d2a69be8afe3e6eaed8878784604051610b12939291906143a7565b60405180910390a150505050505050565b610b2b612673565b60008360ff1660088467ffffffffffffffff1668ffffffffffffffffff16901b179050610b56612dba565b600560008368ffffffffffffffffff1668ffffffffffffffffff16815260200190815260200160002060008481526020019081526020016000206040518060800160405290816000820160009054906101000a900460ff166004811115610bb957fe5b6004811115610bc457fe5b81526020016000820160019054906101000a900478ffffffffffffffffffffffffffffffffffffffffffffffffff1678ffffffffffffffffffffffffffffffffffffffffffffffffff1678ffffffffffffffffffffffffffffffffffffffffffffffffff16815260200160008201601a9054906101000a900460ff1660ff1660ff16815260200160008201601b9054906101000a900464ffffffffff1664ffffffffff1664ffffffffff1681525050905060008160000151905060016004811115610c8b57fe5b816004811115610c9757fe5b1480610cb9575060026004811115610cab57fe5b816004811115610cb757fe5b145b610cf8576040517f08c379a0000000000000000000000000000000000000000000000000000000008152600401610cef90614105565b60405180910390fd5b600260129054906101000a900464ffffffffff1664ffffffffff16610d2843846060015164ffffffffff166126f2565b64ffffffffff1611610d6f576040517f08c379a0000000000000000000000000000000000000000000000000000000008152600401610d66906141c5565b60405180910390fd5b600482600001906004811115610d8157fe5b90816004811115610d8e57fe5b8152505081600560008568ffffffffffffffffff1668ffffffffffffffffff168152602001908152602001600020600086815260200190815260200160002060008201518160000160006101000a81548160ff02191690836004811115610df157fe5b021790555060208201518160000160016101000a81548178ffffffffffffffffffffffffffffffffffffffffffffffffff021916908378ffffffffffffffffffffffffffffffffffffffffffffffffff160217905550604082015181600001601a6101000a81548160ff021916908360ff160217905550606082015181600001601b6101000a81548164ffffffffff021916908364ffffffffff1602179055509050507f968626a768e76ba1363efe44e322a6c4900c5f084e0b45f35e294dfddaa9e0d58686600487604051610eca94939291906143de565b60405180910390a1505050505050565b610ee261273c565b610eea612623565b60008460ff1660088567ffffffffffffffff1668ffffffffffffffffff16901b179050610f15612dba565b600560008368ffffffffffffffffff1668ffffffffffffffffff16815260200190815260200160002060008481526020019081526020016000206040518060800160405290816000820160009054906101000a900460ff166004811115610f7857fe5b6004811115610f8357fe5b81526020016000820160019054906101000a900478ffffffffffffffffffffffffffffffffffffffffffffffffff1678ffffffffffffffffffffffffffffffffffffffffffffffffff1678ffffffffffffffffffffffffffffffffffffffffffffffffff16815260200160008201601a9054906101000a900460ff1660ff1660ff16815260200160008201601b9054906101000a900464ffffffffff1664ffffffffff1664ffffffffff16815250509050600073ffffffffffffffffffffffffffffffffffffffff166004600086815260200190815260200160002060009054906101000a900473ffffffffffffffffffffffffffffffffffffffff1673ffffffffffffffffffffffffffffffffffffffff1614156110d7576040517f08c379a00000000000000000000000000000000000000000000000000000000081526004016110ce906142c5565b60405180910390fd5b6001816000015160048111156110e957fe5b111561112a576040517f08c379a000000000000000000000000000000000000000000000000000000000815260040161112190614245565b60405180910390fd5b61113481336127a7565b15611174576040517f08c379a000000000000000000000000000000000000000000000000000000000815260040161116b90614025565b60405180910390fd5b6000600481111561118157fe5b8160000151600481111561119157fe5b1415611230576040518060800160405280600160048111156111af57fe5b8152602001600078ffffffffffffffffffffffffffffffffffffffffffffffffff168152602001600060ff1681526020014364ffffffffff1681525090507f968626a768e76ba1363efe44e322a6c4900c5f084e0b45f35e294dfddaa9e0d5868660018660405161122394939291906143de565b60405180910390a16112d0565b600260129054906101000a900464ffffffffff1664ffffffffff1661126043836060015164ffffffffff166126f2565b64ffffffffff1611156112cf5760048160000190600481111561127f57fe5b9081600481111561128c57fe5b815250507f968626a768e76ba1363efe44e322a6c4900c5f084e0b45f35e294dfddaa9e0d586866004866040516112c694939291906143de565b60405180910390a15b5b6004808111156112dc57fe5b816000015160048111156112ec57fe5b1461143e576113236112fd336127dd565b826020015178ffffffffffffffffffffffffffffffffffffffffffffffffff161761281e565b816020019078ffffffffffffffffffffffffffffffffffffffffffffffffff16908178ffffffffffffffffffffffffffffffffffffffffffffffffff168152505080604001805180919060010160ff1660ff16815250507f25f8daaa4635a7729927ba3f5b3d59cc3320aca7c32c9db4e7ca7b957434364086868360000151866040516113b394939291906143de565b60405180910390a1600260019054906101000a900460ff1660ff16816040015160ff161061143d576002816000019060048111156113ed57fe5b908160048111156113fa57fe5b815250507f968626a768e76ba1363efe44e322a6c4900c5f084e0b45f35e294dfddaa9e0d5868660028660405161143494939291906143de565b60405180910390a15b5b80600560008468ffffffffffffffffff1668ffffffffffffffffff168152602001908152602001600020600085815260200190815260200160002060008201518160000160006101000a81548160ff0219169083600481111561149d57fe5b021790555060208201518160000160016101000a81548178ffffffffffffffffffffffffffffffffffffffffffffffffff021916908378ffffffffffffffffffffffffffffffffffffffffffffffffff160217905550604082015181600001601a6101000a81548160ff021916908360ff160217905550606082015181600001601b6101000a81548164ffffffffff021916908364ffffffffff160217905550905050505050505050565b600060016000838152602001908152602001600020600201549050919050565b61158f600160008481526020019081526020016000206002015461158a612884565b611f51565b6115ce576040517f08c379a00000000000000000000000000000000000000000000000000000000081526004016115c590614005565b60405180910390fd5b6115d8828261288c565b5050565b6115e4612884565b73ffffffffffffffffffffffffffffffffffffffff168173ffffffffffffffffffffffffffffffffffffffff1614611651576040517f08c379a0000000000000000000000000000000000000000000000000000000008152600401611648906142e5565b60405180910390fd5b61165b8282612920565b5050565b61166761273c565b61166f612623565b60006004600083815260200190815260200160002060009054906101000a900473ffffffffffffffffffffffffffffffffffffffff16905060008660ff1660088767ffffffffffffffff1668ffffffffffffffffff16901b17905060008286866040516020016116e193929190613dcc565b6040516020818303038152906040528051906020012090506000600560008468ffffffffffffffffff1668ffffffffffffffffff168152602001908152602001600020600083815260200190815260200160002090506002600481111561174457fe5b8160000160009054906101000a900460ff16600481111561176157fe5b146117a1576040517f08c379a0000000000000000000000000000000000000000000000000000000008152600401611798906141a5565b60405180910390fd5b60038160000160006101000a81548160ff021916908360048111156117c257fe5b021790555060008490508073ffffffffffffffffffffffffffffffffffffffff1663e248cff2878a8a6040518463ffffffff1660e01b815260040161180993929190613f15565b600060405180830381600087803b15801561182357600080fd5b505af1158015611837573d6000803e3d6000fd5b505050507f968626a768e76ba1363efe44e322a6c4900c5f084e0b45f35e294dfddaa9e0d58a8a60038660405161187194939291906143de565b60405180910390a150505050505050505050565b61188d6129b4565b60005b84849050811015611921578484828181106118a757fe5b90506020020160208101906118bc9190612fc1565b73ffffffffffffffffffffffffffffffffffffffff166108fc8484848181106118e157fe5b905060200201359081150290604051600060405180830381858888f19350505050158015611913573d6000803e3d6000fd5b508080600101915050611890565b5050505050565b60036020528060005260406000206000915054906101000a900467ffffffffffffffff1681565b6119576129b4565b611960816124c6565b600260016101000a81548160ff021916908360ff1602179055507fa20d6b84cd798a24038be305eff8a45ca82ef54a2aa2082005d8e14c0a4746c8816040516119a9919061433b565b60405180910390a150565b60006001600084815260200190815260200160002060000160000160010160008373ffffffffffffffffffffffffffffffffffffffff1660001b815260200190815260200160002054905092915050565b6000611a317fe2b7fb3b832174769106daebcfd6d1970523240dda11281102db9363b83b0dc483611f51565b9050919050565b611a406129b4565b856004600087815260200190815260200160002060006101000a81548173ffffffffffffffffffffffffffffffffffffffff021916908373ffffffffffffffffffffffffffffffffffffffff16021790555060008690508073ffffffffffffffffffffffffffffffffffffffff1663de319d9987878787876040518663ffffffff1660e01b8152600401611ad8959493929190613ec2565b600060405180830381600087803b158015611af257600080fd5b505af1158015611b06573d6000803e3d6000fd5b5050505050505050505050565b60008060009054906101000a900460ff16905090565b611b316129b4565b8073ffffffffffffffffffffffffffffffffffffffff163373ffffffffffffffffffffffffffffffffffffffff161415611ba0576040517f08c379a0000000000000000000000000000000000000000000000000000000008152600401611b9790614225565b60405180910390fd5b611bad6000801b82611568565b611bba6000801b336115dc565b50565b611bc56129b4565b60008490508073ffffffffffffffffffffffffffffffffffffffff1663d9caed128585856040518463ffffffff1660e01b8152600401611c0793929190613e2c565b600060405180830381600087803b158015611c2157600080fd5b505af1158015611c35573d6000803e3d6000fd5b505050505050505050565b6000611d68600560008668ffffffffffffffffff1668ffffffffffffffffff16815260200190815260200160002060008581526020019081526020016000206040518060800160405290816000820160009054906101000a900460ff166004811115611ca857fe5b6004811115611cb357fe5b81526020016000820160019054906101000a900478ffffffffffffffffffffffffffffffffffffffffffffffffff1678ffffffffffffffffffffffffffffffffffffffffffffffffff1678ffffffffffffffffffffffffffffffffffffffffffffffffff16815260200160008201601a9054906101000a900460ff1660ff1660ff16815260200160008201601b9054906101000a900464ffffffffff1664ffffffffff1664ffffffffff1681525050836127a7565b90509392505050565b6000611d9c7fe2b7fb3b832174769106daebcfd6d1970523240dda11281102db9363b83b0dc461221c565b905090565b611da96129b4565b611db1612a02565b565b60046020528060005260406000206000915054906101000a900473ffffffffffffffffffffffffffffffffffffffff1681565b611dee6129b4565b60008290508073ffffffffffffffffffffffffffffffffffffffff166307b7ed99836040518263ffffffff1660e01b8152600401611e2c9190613df6565b600060405180830381600087803b158015611e4657600080fd5b505af1158015611e5a573d6000803e3d6000fd5b50505050505050565b6000611e8d8260016000868152602001908152602001600020600001612a5d90919063ffffffff16565b905092915050565b611e9d6129b4565b8060028054906101000a90046fffffffffffffffffffffffffffffffff166fffffffffffffffffffffffffffffffff161415611f0e576040517f08c379a0000000000000000000000000000000000000000000000000000000008152600401611f05906142a5565b60405180910390fd5b611f1781612514565b6002806101000a8154816fffffffffffffffffffffffffffffffff02191690836fffffffffffffffffffffffffffffffff16021790555050565b6000611f7b82600160008681526020019081526020016000206000016125f390919063ffffffff16565b905092915050565b7fe2b7fb3b832174769106daebcfd6d1970523240dda11281102db9363b83b0dc481565b611fd17fe2b7fb3b832174769106daebcfd6d1970523240dda11281102db9363b83b0dc482611f51565b612010576040517f08c379a000000000000000000000000000000000000000000000000000000000815260040161200790614065565b60405180910390fd5b61203a7fe2b7fb3b832174769106daebcfd6d1970523240dda11281102db9363b83b0dc48261242d565b7f10e1f7ce9fd7d1b90a66d13a2ab3cb8dd7f29f3f8d520b143b063ccfbab6906b816040516120699190613df6565b60405180910390a150565b60c881565b6000801b81565b612088612dba565b60008460ff1660088567ffffffffffffffff1668ffffffffffffffffff16901b179050600560008268ffffffffffffffffff1668ffffffffffffffffff16815260200190815260200160002060008481526020019081526020016000206040518060800160405290816000820160009054906101000a900460ff16600481111561210e57fe5b600481111561211957fe5b81526020016000820160019054906101000a900478ffffffffffffffffffffffffffffffffffffffffffffffffff1678ffffffffffffffffffffffffffffffffffffffffffffffffff1678ffffffffffffffffffffffffffffffffffffffffffffffffff16815260200160008201601a9054906101000a900460ff1660ff1660ff16815260200160008201601b9054906101000a900464ffffffffff1664ffffffffff1664ffffffffff16815250509150509392505050565b600260009054906101000a900460ff1681565b60028054906101000a90046fffffffffffffffffffffffffffffffff1681565b600260129054906101000a900464ffffffffff1681565b600061223c60016000848152602001908152602001600020600001612a77565b9050919050565b61224b6129b4565b826004600084815260200190815260200160002060006101000a81548173ffffffffffffffffffffffffffffffffffffffff021916908373ffffffffffffffffffffffffffffffffffffffff16021790555060008390508073ffffffffffffffffffffffffffffffffffffffff1663b8fa373684846040518363ffffffff1660e01b81526004016122dd929190613e99565b600060405180830381600087803b1580156122f757600080fd5b505af115801561230b573d6000803e3d6000fd5b5050505050505050565b61233f7fe2b7fb3b832174769106daebcfd6d1970523240dda11281102db9363b83b0dc482611f51565b1561237f576040517f08c379a000000000000000000000000000000000000000000000000000000000815260040161237690614205565b60405180910390fd5b60c8612389611d71565b106123c9576040517f08c379a00000000000000000000000000000000000000000000000000000000081526004016123c0906140c5565b60405180910390fd5b6123f37fe2b7fb3b832174769106daebcfd6d1970523240dda11281102db9363b83b0dc482611568565b7f03580ee9f53a62b7cb409a2cb56f9be87747dd15017afc5cef6eef321e4fb2c5816040516124229190613df6565b60405180910390a150565b612454600160008481526020019081526020016000206002015461244f612884565b611f51565b612493576040517f08c379a000000000000000000000000000000000000000000000000000000000815260040161248a90614185565b60405180910390fd5b61249d8282612920565b5050565b600260019054906101000a900460ff1681565b6124bc6129b4565b6124c4612a8c565b565b6000610100821061250c576040517f08c379a000000000000000000000000000000000000000000000000000000000815260040161250390614125565b60405180910390fd5b819050919050565b60007001000000000000000000000000000000008210612569576040517f08c379a000000000000000000000000000000000000000000000000000000000815260040161256090614085565b60405180910390fd5b819050919050565b60006501000000000082106125bb576040517f08c379a00000000000000000000000000000000000000000000000000000000081526004016125b2906140a5565b60405180910390fd5b819050919050565b60006125eb836000018373ffffffffffffffffffffffffffffffffffffffff1660001b612ae7565b905092915050565b600061261b836000018373ffffffffffffffffffffffffffffffffffffffff1660001b612b57565b905092915050565b60008054906101000a900460ff1615612671576040517f08c379a0000000000000000000000000000000000000000000000000000000008152600401612668906141e5565b60405180910390fd5b565b6126806000801b33611f51565b806126b157506126b07fe2b7fb3b832174769106daebcfd6d1970523240dda11281102db9363b83b0dc433611f51565b5b6126f0576040517f08c379a00000000000000000000000000000000000000000000000000000000081526004016126e790613fe5565b60405180910390fd5b565b600061273483836040518060400160405280601e81526020017f536166654d6174683a207375627472616374696f6e206f766572666c6f770000815250612b7a565b905092915050565b6127667fe2b7fb3b832174769106daebcfd6d1970523240dda11281102db9363b83b0dc433611f51565b6127a5576040517f08c379a000000000000000000000000000000000000000000000000000000000815260040161279c90614265565b60405180910390fd5b565b600080836020015178ffffffffffffffffffffffffffffffffffffffffffffffffff166127d3846127dd565b1611905092915050565b600061281361280c7fe2b7fb3b832174769106daebcfd6d1970523240dda11281102db9363b83b0dc4846119b4565b60016126f2565b6001901b9050919050565b6000790100000000000000000000000000000000000000000000000000821061287c576040517f08c379a000000000000000000000000000000000000000000000000000000000815260040161287390614165565b60405180910390fd5b819050919050565b600033905090565b6128b481600160008581526020019081526020016000206000016125c390919063ffffffff16565b1561291c576128c1612884565b73ffffffffffffffffffffffffffffffffffffffff168173ffffffffffffffffffffffffffffffffffffffff16837f2f8788117e7eff1d82e926ec794901d17c78024a50270940304540a733656f0d60405160405180910390a45b5050565b6129488160016000858152602001908152602001600020600001612bd590919063ffffffff16565b156129b057612955612884565b73ffffffffffffffffffffffffffffffffffffffff168173ffffffffffffffffffffffffffffffffffffffff16837ff6391f5c32d9c69d2a47ea670b442974b53935d1edc7fd64eb21e047a839171b60405160405180910390a45b5050565b6129c16000801b33611f51565b612a00576040517f08c379a00000000000000000000000000000000000000000000000000000000081526004016129f790614285565b60405180910390fd5b565b612a0a612623565b60016000806101000a81548160ff0219169083151502179055507f62e78cea01bee320cd4e420270b5ea74000d11b0c9f74754ebdbfc544b05a25833604051612a539190613e11565b60405180910390a1565b6000612a6c8360000183612c05565b60001c905092915050565b6000612a8582600001612c72565b9050919050565b612a94612c83565b60008060006101000a81548160ff0219169083151502179055507f5db9ee0a495bf2e6ff9c91a7834c1ba4fdd244a5e8aa4e537bd38aeae4b073aa33604051612add9190613e11565b60405180910390a1565b6000612af38383612b57565b612b4c578260000182908060018154018082558091505060019003906000526020600020016000909190919091505582600001805490508360010160008481526020019081526020016000208190555060019050612b51565b600090505b92915050565b600080836001016000848152602001908152602001600020541415905092915050565b6000838311158290612bc2576040517f08c379a0000000000000000000000000000000000000000000000000000000008152600401612bb99190613fa3565b60405180910390fd5b5060008385039050809150509392505050565b6000612bfd836000018373ffffffffffffffffffffffffffffffffffffffff1660001b612cd2565b905092915050565b600081836000018054905011612c50576040517f08c379a0000000000000000000000000000000000000000000000000000000008152600401612c4790613fc5565b60405180910390fd5b826000018281548110612c5f57fe5b9060005260206000200154905092915050565b600081600001805490509050919050565b60008054906101000a900460ff16612cd0576040517f08c379a0000000000000000000000000000000000000000000000000000000008152600401612cc790614045565b60405180910390fd5b565b60008083600101600084815260200190815260200160002054905060008114612dae5760006001820390506000600186600001805490500390506000866000018281548110612d1d57fe5b9060005260206000200154905080876000018481548110612d3a57fe5b9060005260206000200181905550600183018760010160008381526020019081526020016000208190555086600001805480612d7257fe5b60019003818190600052602060002001600090559055866001016000878152602001908152602001600020600090556001945050505050612db4565b60009150505b92915050565b604051806080016040528060006004811115612dd257fe5b8152602001600078ffffffffffffffffffffffffffffffffffffffffffffffffff168152602001600060ff168152602001600064ffffffffff1681525090565b600081359050612e218161465f565b92915050565b600081359050612e3681614676565b92915050565b60008083601f840112612e4e57600080fd5b8235905067ffffffffffffffff811115612e6757600080fd5b602083019150836020820283011115612e7f57600080fd5b9250929050565b60008083601f840112612e9857600080fd5b8235905067ffffffffffffffff811115612eb157600080fd5b602083019150836020820283011115612ec957600080fd5b9250929050565b600081359050612edf8161468d565b92915050565b600081359050612ef4816146a4565b92915050565b60008083601f840112612f0c57600080fd5b8235905067ffffffffffffffff811115612f2557600080fd5b602083019150836001820283011115612f3d57600080fd5b9250929050565b600081359050612f53816146bb565b92915050565b600081359050612f68816146d2565b92915050565b600081359050612f7d816146e9565b92915050565b600081359050612f9281614700565b92915050565b600060208284031215612faa57600080fd5b6000612fb884828501612e12565b91505092915050565b600060208284031215612fd357600080fd5b6000612fe184828501612e27565b91505092915050565b60008060408385031215612ffd57600080fd5b600061300b85828601612e12565b925050602061301c85828601612e12565b9150509250929050565b6000806000806080858703121561303c57600080fd5b600061304a87828801612e12565b945050602061305b87828801612e12565b935050604061306c87828801612e12565b925050606061307d87828801612f44565b91505092959194509250565b60008060006060848603121561309e57600080fd5b60006130ac86828701612e12565b93505060206130bd86828701612ed0565b92505060406130ce86828701612e12565b9150509250925092565b60008060008060008060c087890312156130f157600080fd5b60006130ff89828a01612e12565b965050602061311089828a01612ed0565b955050604061312189828a01612e12565b945050606061313289828a01612ee5565b935050608061314389828a01612f44565b92505060a061315489828a01612ee5565b9150509295509295509295565b6000806000806040858703121561317757600080fd5b600085013567ffffffffffffffff81111561319157600080fd5b61319d87828801612e3c565b9450945050602085013567ffffffffffffffff8111156131bc57600080fd5b6131c887828801612e86565b925092505092959194509250565b6000602082840312156131e857600080fd5b60006131f684828501612ed0565b91505092915050565b6000806040838503121561321257600080fd5b600061322085828601612ed0565b925050602061323185828601612e12565b9150509250929050565b6000806040838503121561324e57600080fd5b600061325c85828601612ed0565b925050602061326d85828601612f44565b9150509250929050565b60006020828403121561328957600080fd5b600061329784828501612f44565b91505092915050565b6000806000606084860312156132b557600080fd5b60006132c386828701612f6e565b93505060206132d486828701612ed0565b92505060406132e586828701612e12565b9150509250925092565b60006020828403121561330157600080fd5b600061330f84828501612f83565b91505092915050565b6000806000806060858703121561332e57600080fd5b600061333c87828801612f83565b945050602061334d87828801612ed0565b935050604085013567ffffffffffffffff81111561336a57600080fd5b61337687828801612efa565b925092505092959194509250565b60008060006060848603121561339957600080fd5b60006133a786828701612f83565b93505060206133b886828701612f59565b92505060406133c986828701612ed0565b9150509250925092565b600080600080608085870312156133e957600080fd5b60006133f787828801612f83565b945050602061340887828801612f59565b935050604061341987828801612ed0565b925050606061342a87828801612ed0565b91505092959194509250565b60008060008060006080868803121561344e57600080fd5b600061345c88828901612f83565b955050602061346d88828901612f59565b945050604086013567ffffffffffffffff81111561348a57600080fd5b61349688828901612efa565b935093505060606134a988828901612ed0565b9150509295509295909350565b6134bf81614586565b82525050565b6134ce8161445b565b82525050565b6134e56134e08261445b565b614610565b82525050565b6134f48161447f565b82525050565b6135038161448b565b82525050565b61351281614495565b82525050565b6000613524838561442e565b93506135318385846145ce565b61353a83614634565b840190509392505050565b6000613551838561443f565b935061355e8385846145ce565b82840190509392505050565b61357381614598565b82525050565b61358281614598565b82525050565b600061359382614423565b61359d818561444a565b93506135ad8185602086016145dd565b6135b681614634565b840191505092915050565b60006135ce60228361444a565b91507f456e756d657261626c655365743a20696e646578206f7574206f6620626f756e60008301527f64730000000000000000000000000000000000000000000000000000000000006020830152604082019050919050565b6000613634601e8361444a565b91507f73656e646572206973206e6f742072656c61796572206f722061646d696e00006000830152602082019050919050565b6000613674602f8361444a565b91507f416363657373436f6e74726f6c3a2073656e646572206d75737420626520616e60008301527f2061646d696e20746f206772616e7400000000000000000000000000000000006020830152604082019050919050565b60006136da60158361444a565b91507f72656c6179657220616c726561647920766f74656400000000000000000000006000830152602082019050919050565b600061371a60148361444a565b91507f5061757361626c653a206e6f74207061757365640000000000000000000000006000830152602082019050919050565b600061375a601f8361444a565b91507f6164647220646f65736e277420686176652072656c6179657220726f6c6521006000830152602082019050919050565b600061379a601e8361444a565b91507f76616c756520646f6573206e6f742066697420696e20313238206269747300006000830152602082019050919050565b60006137da601d8361444a565b91507f76616c756520646f6573206e6f742066697420696e20343020626974730000006000830152602082019050919050565b600061381a60168361444a565b91507f72656c6179657273206c696d69742072656163686564000000000000000000006000830152602082019050919050565b600061385a60168361444a565b91507f496e636f72726563742066656520737570706c696564000000000000000000006000830152602082019050919050565b600061389a601c8361444a565b91507f50726f706f73616c2063616e6e6f742062652063616e63656c6c6564000000006000830152602082019050919050565b60006138da601c8361444a565b91507f76616c756520646f6573206e6f742066697420696e20382062697473000000006000830152602082019050919050565b600061391a60208361444a565b91507f7265736f757263654944206e6f74206d617070656420746f2068616e646c65726000830152602082019050919050565b600061395a601e8361444a565b91507f76616c756520646f6573206e6f742066697420696e20323030206269747300006000830152602082019050919050565b600061399a60308361444a565b91507f416363657373436f6e74726f6c3a2073656e646572206d75737420626520616e60008301527f2061646d696e20746f207265766f6b65000000000000000000000000000000006020830152604082019050919050565b6000613a0060208361444a565b91507f50726f706f73616c206d757374206861766520506173736564207374617475736000830152602082019050919050565b6000613a4060208361444a565b91507f50726f706f73616c206e6f7420617420657870697279207468726573686f6c646000830152602082019050919050565b6000613a8060108361444a565b91507f5061757361626c653a20706175736564000000000000000000000000000000006000830152602082019050919050565b6000613ac0601e8361444a565b91507f6164647220616c7265616479206861732072656c6179657220726f6c652100006000830152602082019050919050565b6000613b0060178361444a565b91507f43616e6e6f742072656e6f756e6365206f6e6573656c660000000000000000006000830152602082019050919050565b6000613b40602a8361444a565b91507f70726f706f73616c20616c7265616479207061737365642f657865637574656460008301527f2f63616e63656c6c6564000000000000000000000000000000000000000000006020830152604082019050919050565b6000613ba660208361444a565b91507f73656e64657220646f65736e277420686176652072656c6179657220726f6c656000830152602082019050919050565b6000613be6601e8361444a565b91507f73656e64657220646f65736e277420686176652061646d696e20726f6c6500006000830152602082019050919050565b6000613c26601f8361444a565b91507f43757272656e742066656520697320657175616c20746f206e657720666565006000830152602082019050919050565b6000613c6660198361444a565b91507f6e6f2068616e646c657220666f72207265736f757263654944000000000000006000830152602082019050919050565b6000613ca6602f8361444a565b91507f416363657373436f6e74726f6c3a2063616e206f6e6c792072656e6f756e636560008301527f20726f6c657320666f722073656c6600000000000000000000000000000000006020830152604082019050919050565b608082016000820151613d15600085018261356a565b506020820151613d286020850182613d63565b506040820151613d3b6040850182613dae565b506060820151613d4e6060850182613d81565b50505050565b613d5d816144d4565b82525050565b613d6c81614510565b82525050565b613d7b81614535565b82525050565b613d8a8161453f565b82525050565b613d998161453f565b82525050565b613da881614550565b82525050565b613db781614579565b82525050565b613dc681614579565b82525050565b6000613dd882866134d4565b601482019150613de9828486613545565b9150819050949350505050565b6000602082019050613e0b60008301846134c5565b92915050565b6000602082019050613e2660008301846134b6565b92915050565b6000606082019050613e4160008301866134c5565b613e4e60208301856134c5565b613e5b6040830184613d72565b949350505050565b6000602082019050613e7860008301846134eb565b92915050565b6000602082019050613e9360008301846134fa565b92915050565b6000604082019050613eae60008301856134fa565b613ebb60208301846134c5565b9392505050565b600060a082019050613ed760008301886134fa565b613ee460208301876134c5565b613ef16040830186613509565b613efe6060830185613d72565b613f0b6080830184613509565b9695505050505050565b6000604082019050613f2a60008301866134fa565b8181036020830152613f3d818486613518565b9050949350505050565b600060a082019050613f5c60008301896134fa565b613f696020830188613dbd565b613f766040830187613d9f565b613f8360608301866134b6565b8181036080830152613f96818486613518565b9050979650505050505050565b60006020820190508181036000830152613fbd8184613588565b905092915050565b60006020820190508181036000830152613fde816135c1565b9050919050565b60006020820190508181036000830152613ffe81613627565b9050919050565b6000602082019050818103600083015261401e81613667565b9050919050565b6000602082019050818103600083015261403e816136cd565b9050919050565b6000602082019050818103600083015261405e8161370d565b9050919050565b6000602082019050818103600083015261407e8161374d565b9050919050565b6000602082019050818103600083015261409e8161378d565b9050919050565b600060208201905081810360008301526140be816137cd565b9050919050565b600060208201905081810360008301526140de8161380d565b9050919050565b600060208201905081810360008301526140fe8161384d565b9050919050565b6000602082019050818103600083015261411e8161388d565b9050919050565b6000602082019050818103600083015261413e816138cd565b9050919050565b6000602082019050818103600083015261415e8161390d565b9050919050565b6000602082019050818103600083015261417e8161394d565b9050919050565b6000602082019050818103600083015261419e8161398d565b9050919050565b600060208201905081810360008301526141be816139f3565b9050919050565b600060208201905081810360008301526141de81613a33565b9050919050565b600060208201905081810360008301526141fe81613a73565b9050919050565b6000602082019050818103600083015261421e81613ab3565b9050919050565b6000602082019050818103600083015261423e81613af3565b9050919050565b6000602082019050818103600083015261425e81613b33565b9050919050565b6000602082019050818103600083015261427e81613b99565b9050919050565b6000602082019050818103600083015261429e81613bd9565b9050919050565b600060208201905081810360008301526142be81613c19565b9050919050565b600060208201905081810360008301526142de81613c59565b9050919050565b600060208201905081810360008301526142fe81613c99565b9050919050565b600060808201905061431a6000830184613cff565b92915050565b60006020820190506143356000830184613d54565b92915050565b60006020820190506143506000830184613d72565b92915050565b600060208201905061436b6000830184613d90565b92915050565b60006020820190506143866000830184613d9f565b92915050565b60006020820190506143a16000830184613dbd565b92915050565b60006060820190506143bc6000830186613dbd565b6143c960208301856134fa565b6143d66040830184613d9f565b949350505050565b60006080820190506143f36000830187613dbd565b6144006020830186613d9f565b61440d6040830185613579565b61441a60608301846134fa565b95945050505050565b600081519050919050565b600082825260208201905092915050565b600081905092915050565b600082825260208201905092915050565b6000614466826144f0565b9050919050565b6000614478826144f0565b9050919050565b60008115159050919050565b6000819050919050565b60007fffffffff0000000000000000000000000000000000000000000000000000000082169050919050565b60008190506144cf82614652565b919050565b60006fffffffffffffffffffffffffffffffff82169050919050565b600073ffffffffffffffffffffffffffffffffffffffff82169050919050565b600078ffffffffffffffffffffffffffffffffffffffffffffffffff82169050919050565b6000819050919050565b600064ffffffffff82169050919050565b600067ffffffffffffffff82169050919050565b600068ffffffffffffffffff82169050919050565b600060ff82169050919050565b6000614591826145aa565b9050919050565b60006145a3826144c1565b9050919050565b60006145b5826145bc565b9050919050565b60006145c7826144f0565b9050919050565b82818337600083830152505050565b60005b838110156145fb5780820151818401526020810190506145e0565b8381111561460a576000848401525b50505050565b600061461b82614622565b9050919050565b600061462d82614645565b9050919050565b6000601f19601f8301169050919050565b60008160601b9050919050565b6005811061465c57fe5b50565b6146688161445b565b811461467357600080fd5b50565b61467f8161446d565b811461468a57600080fd5b50565b6146968161448b565b81146146a157600080fd5b50565b6146ad81614495565b81146146b857600080fd5b50565b6146c481614535565b81146146cf57600080fd5b50565b6146db81614550565b81146146e657600080fd5b50565b6146f281614564565b81146146fd57600080fd5b50565b61470981614579565b811461471457600080fd5b5056fea2646970667358221220449baf227ac997e13a5d5a7b99a566c489b3b6c66726ec5c6ed82176b543485164736f6c634300060c0033",
			"opcodes": "PUSH1 0x80 PUSH1 0x40 MSTORE CALLVALUE DUP1 ISZERO PUSH3 0x11 JUMPI PUSH1 0x0 DUP1 REVERT JUMPDEST POP PUSH1 0x40 MLOAD PUSH3 0x50C1 CODESIZE SUB DUP1 PUSH3 0x50C1 DUP4 CODECOPY DUP2 DUP2 ADD PUSH1 0x40 MSTORE DUP2 ADD SWAP1 PUSH3 0x37 SWAP2 SWAP1 PUSH3 0x612 JUMP JUMPDEST PUSH1 0x0 DUP1 PUSH1 0x0 PUSH2 0x100 EXP DUP2 SLOAD DUP2 PUSH1 0xFF MUL NOT AND SWAP1 DUP4 ISZERO ISZERO MUL OR SWAP1 SSTORE POP DUP5 PUSH1 0x2 PUSH1 0x0 PUSH2 0x100 EXP DUP2 SLOAD DUP2 PUSH1 0xFF MUL NOT AND SWAP1 DUP4 PUSH1 0xFF AND MUL OR SWAP1 SSTORE POP PUSH3 0x82 DUP4 PUSH3 0x1A3 PUSH1 0x20 SHL PUSH3 0x24C6 OR PUSH1 0x20 SHR JUMP JUMPDEST PUSH1 0x2 PUSH1 0x1 PUSH2 0x100 EXP DUP2 SLOAD DUP2 PUSH1 0xFF MUL NOT AND SWAP1 DUP4 PUSH1 0xFF AND MUL OR SWAP1 SSTORE POP PUSH3 0xB2 DUP3 PUSH3 0x1F4 PUSH1 0x20 SHL PUSH3 0x2514 OR PUSH1 0x20 SHR JUMP JUMPDEST PUSH1 0x2 DUP1 PUSH2 0x100 EXP DUP2 SLOAD DUP2 PUSH16 0xFFFFFFFFFFFFFFFFFFFFFFFFFFFFFFFF MUL NOT AND SWAP1 DUP4 PUSH16 0xFFFFFFFFFFFFFFFFFFFFFFFFFFFFFFFF AND MUL OR SWAP1 SSTORE POP PUSH3 0xFF DUP2 PUSH3 0x254 PUSH1 0x20 SHL PUSH3 0x2571 OR PUSH1 0x20 SHR JUMP JUMPDEST PUSH1 0x2 PUSH1 0x12 PUSH2 0x100 EXP DUP2 SLOAD DUP2 PUSH5 0xFFFFFFFFFF MUL NOT AND SWAP1 DUP4 PUSH5 0xFFFFFFFFFF AND MUL OR SWAP1 SSTORE POP PUSH3 0x136 PUSH1 0x0 DUP1 SHL CALLER PUSH3 0x2A9 PUSH1 0x20 SHL PUSH1 0x20 SHR JUMP JUMPDEST PUSH1 0x0 JUMPDEST DUP5 MLOAD DUP2 LT ISZERO PUSH3 0x197 JUMPI PUSH3 0x189 PUSH32 0xE2B7FB3B832174769106DAEBCFD6D1970523240DDA11281102DB9363B83B0DC4 DUP7 DUP4 DUP2 MLOAD DUP2 LT PUSH3 0x175 JUMPI INVALID JUMPDEST PUSH1 0x20 MUL PUSH1 0x20 ADD ADD MLOAD PUSH3 0x2BF PUSH1 0x20 SHL PUSH1 0x20 SHR JUMP JUMPDEST DUP1 DUP1 PUSH1 0x1 ADD SWAP2 POP POP PUSH3 0x139 JUMP JUMPDEST POP POP POP POP POP POP PUSH3 0x964 JUMP JUMPDEST PUSH1 0x0 PUSH2 0x100 DUP3 LT PUSH3 0x1EC JUMPI PUSH1 0x40 MLOAD PUSH32 0x8C379A000000000000000000000000000000000000000000000000000000000 DUP2 MSTORE PUSH1 0x4 ADD PUSH3 0x1E3 SWAP1 PUSH3 0x841 JUMP JUMPDEST PUSH1 0x40 MLOAD DUP1 SWAP2 SUB SWAP1 REVERT JUMPDEST DUP2 SWAP1 POP SWAP2 SWAP1 POP JUMP JUMPDEST PUSH1 0x0 PUSH17 0x100000000000000000000000000000000 DUP3 LT PUSH3 0x24C JUMPI PUSH1 0x40 MLOAD PUSH32 0x8C379A000000000000000000000000000000000000000000000000000000000 DUP2 MSTORE PUSH1 0x4 ADD PUSH3 0x243 SWAP1 PUSH3 0x7FD JUMP JUMPDEST PUSH1 0x40 MLOAD DUP1 SWAP2 SUB SWAP1 REVERT JUMPDEST DUP2 SWAP1 POP SWAP2 SWAP1 POP JUMP JUMPDEST PUSH1 0x0 PUSH6 0x10000000000 DUP3 LT PUSH3 0x2A1 JUMPI PUSH1 0x40 MLOAD PUSH32 0x8C379A000000000000000000000000000000000000000000000000000000000 DUP2 MSTORE PUSH1 0x4 ADD PUSH3 0x298 SWAP1 PUSH3 0x81F JUMP JUMPDEST PUSH1 0x40 MLOAD DUP1 SWAP2 SUB SWAP1 REVERT JUMPDEST DUP2 SWAP1 POP SWAP2 SWAP1 POP JUMP JUMPDEST PUSH3 0x2BB DUP3 DUP3 PUSH3 0x34E PUSH1 0x20 SHL PUSH1 0x20 SHR JUMP JUMPDEST POP POP JUMP JUMPDEST PUSH3 0x2F6 PUSH1 0x1 PUSH1 0x0 DUP5 DUP2 MSTORE PUSH1 0x20 ADD SWAP1 DUP2 MSTORE PUSH1 0x20 ADD PUSH1 0x0 KECCAK256 PUSH1 0x2 ADD SLOAD PUSH3 0x2EA PUSH3 0x3F2 PUSH1 0x20 SHL PUSH1 0x20 SHR JUMP JUMPDEST PUSH3 0x3FA PUSH1 0x20 SHL PUSH1 0x20 SHR JUMP JUMPDEST PUSH3 0x338 JUMPI PUSH1 0x40 MLOAD PUSH32 0x8C379A000000000000000000000000000000000000000000000000000000000 DUP2 MSTORE PUSH1 0x4 ADD PUSH3 0x32F SWAP1 PUSH3 0x7DB JUMP JUMPDEST PUSH1 0x40 MLOAD DUP1 SWAP2 SUB SWAP1 REVERT JUMPDEST PUSH3 0x34A DUP3 DUP3 PUSH3 0x34E PUSH1 0x20 SHL PUSH1 0x20 SHR JUMP JUMPDEST POP POP JUMP JUMPDEST PUSH3 0x37D DUP2 PUSH1 0x1 PUSH1 0x0 DUP6 DUP2 MSTORE PUSH1 0x20 ADD SWAP1 DUP2 MSTORE PUSH1 0x20 ADD PUSH1 0x0 KECCAK256 PUSH1 0x0 ADD PUSH3 0x433 PUSH1 0x20 SHL PUSH3 0x25C3 OR SWAP1 SWAP2 SWAP1 PUSH1 0x20 SHR JUMP JUMPDEST ISZERO PUSH3 0x3EE JUMPI PUSH3 0x393 PUSH3 0x3F2 PUSH1 0x20 SHL PUSH1 0x20 SHR JUMP JUMPDEST PUSH20 0xFFFFFFFFFFFFFFFFFFFFFFFFFFFFFFFFFFFFFFFF AND DUP2 PUSH20 0xFFFFFFFFFFFFFFFFFFFFFFFFFFFFFFFFFFFFFFFF AND DUP4 PUSH32 0x2F8788117E7EFF1D82E926EC794901D17C78024A50270940304540A733656F0D PUSH1 0x40 MLOAD PUSH1 0x40 MLOAD DUP1 SWAP2 SUB SWAP1 LOG4 JUMPDEST POP POP JUMP JUMPDEST PUSH1 0x0 CALLER SWAP1 POP SWAP1 JUMP JUMPDEST PUSH1 0x0 PUSH3 0x42B DUP3 PUSH1 0x1 PUSH1 0x0 DUP7 DUP2 MSTORE PUSH1 0x20 ADD SWAP1 DUP2 MSTORE PUSH1 0x20 ADD PUSH1 0x0 KECCAK256 PUSH1 0x0 ADD PUSH3 0x46B PUSH1 0x20 SHL PUSH3 0x25F3 OR SWAP1 SWAP2 SWAP1 PUSH1 0x20 SHR JUMP JUMPDEST SWAP1 POP SWAP3 SWAP2 POP POP JUMP JUMPDEST PUSH1 0x0 PUSH3 0x463 DUP4 PUSH1 0x0 ADD DUP4 PUSH20 0xFFFFFFFFFFFFFFFFFFFFFFFFFFFFFFFFFFFFFFFF AND PUSH1 0x0 SHL PUSH3 0x4A3 PUSH1 0x20 SHL PUSH1 0x20 SHR JUMP JUMPDEST SWAP1 POP SWAP3 SWAP2 POP POP JUMP JUMPDEST PUSH1 0x0 PUSH3 0x49B DUP4 PUSH1 0x0 ADD DUP4 PUSH20 0xFFFFFFFFFFFFFFFFFFFFFFFFFFFFFFFFFFFFFFFF AND PUSH1 0x0 SHL PUSH3 0x51D PUSH1 0x20 SHL PUSH1 0x20 SHR JUMP JUMPDEST SWAP1 POP SWAP3 SWAP2 POP POP JUMP JUMPDEST PUSH1 0x0 PUSH3 0x4B7 DUP4 DUP4 PUSH3 0x51D PUSH1 0x20 SHL PUSH1 0x20 SHR JUMP JUMPDEST PUSH3 0x512 JUMPI DUP3 PUSH1 0x0 ADD DUP3 SWAP1 DUP1 PUSH1 0x1 DUP2 SLOAD ADD DUP1 DUP3 SSTORE DUP1 SWAP2 POP POP PUSH1 0x1 SWAP1 SUB SWAP1 PUSH1 0x0 MSTORE PUSH1 0x20 PUSH1 0x0 KECCAK256 ADD PUSH1 0x0 SWAP1 SWAP2 SWAP1 SWAP2 SWAP1 SWAP2 POP SSTORE DUP3 PUSH1 0x0 ADD DUP1 SLOAD SWAP1 POP DUP4 PUSH1 0x1 ADD PUSH1 0x0 DUP5 DUP2 MSTORE PUSH1 0x20 ADD SWAP1 DUP2 MSTORE PUSH1 0x20 ADD PUSH1 0x0 KECCAK256 DUP2 SWAP1 SSTORE POP PUSH1 0x1 SWAP1 POP PUSH3 0x517 JUMP JUMPDEST PUSH1 0x0 SWAP1 POP JUMPDEST SWAP3 SWAP2 POP POP JUMP JUMPDEST PUSH1 0x0 DUP1 DUP4 PUSH1 0x1 ADD PUSH1 0x0 DUP5 DUP2 MSTORE PUSH1 0x20 ADD SWAP1 DUP2 MSTORE PUSH1 0x20 ADD PUSH1 0x0 KECCAK256 SLOAD EQ ISZERO SWAP1 POP SWAP3 SWAP2 POP POP JUMP JUMPDEST PUSH1 0x0 DUP2 MLOAD SWAP1 POP PUSH3 0x551 DUP2 PUSH3 0x916 JUMP JUMPDEST SWAP3 SWAP2 POP POP JUMP JUMPDEST PUSH1 0x0 DUP3 PUSH1 0x1F DUP4 ADD SLT PUSH3 0x569 JUMPI PUSH1 0x0 DUP1 REVERT JUMPDEST DUP2 MLOAD PUSH3 0x580 PUSH3 0x57A DUP3 PUSH3 0x891 JUMP JUMPDEST PUSH3 0x863 JUMP JUMPDEST SWAP2 POP DUP2 DUP2 DUP4 MSTORE PUSH1 0x20 DUP5 ADD SWAP4 POP PUSH1 0x20 DUP2 ADD SWAP1 POP DUP4 DUP6 PUSH1 0x20 DUP5 MUL DUP3 ADD GT ISZERO PUSH3 0x5A6 JUMPI PUSH1 0x0 DUP1 REVERT JUMPDEST PUSH1 0x0 JUMPDEST DUP4 DUP2 LT ISZERO PUSH3 0x5DA JUMPI DUP2 PUSH3 0x5BF DUP9 DUP3 PUSH3 0x540 JUMP JUMPDEST DUP5 MSTORE PUSH1 0x20 DUP5 ADD SWAP4 POP PUSH1 0x20 DUP4 ADD SWAP3 POP POP PUSH1 0x1 DUP2 ADD SWAP1 POP PUSH3 0x5A9 JUMP JUMPDEST POP POP POP POP SWAP3 SWAP2 POP POP JUMP JUMPDEST PUSH1 0x0 DUP2 MLOAD SWAP1 POP PUSH3 0x5F5 DUP2 PUSH3 0x930 JUMP JUMPDEST SWAP3 SWAP2 POP POP JUMP JUMPDEST PUSH1 0x0 DUP2 MLOAD SWAP1 POP PUSH3 0x60C DUP2 PUSH3 0x94A JUMP JUMPDEST SWAP3 SWAP2 POP POP JUMP JUMPDEST PUSH1 0x0 DUP1 PUSH1 0x0 DUP1 PUSH1 0x0 PUSH1 0xA0 DUP7 DUP9 SUB SLT ISZERO PUSH3 0x62B JUMPI PUSH1 0x0 DUP1 REVERT JUMPDEST PUSH1 0x0 PUSH3 0x63B DUP9 DUP3 DUP10 ADD PUSH3 0x5FB JUMP JUMPDEST SWAP6 POP POP PUSH1 0x20 DUP7 ADD MLOAD PUSH8 0xFFFFFFFFFFFFFFFF DUP2 GT ISZERO PUSH3 0x659 JUMPI PUSH1 0x0 DUP1 REVERT JUMPDEST PUSH3 0x667 DUP9 DUP3 DUP10 ADD PUSH3 0x557 JUMP JUMPDEST SWAP5 POP POP PUSH1 0x40 PUSH3 0x67A DUP9 DUP3 DUP10 ADD PUSH3 0x5E4 JUMP JUMPDEST SWAP4 POP POP PUSH1 0x60 PUSH3 0x68D DUP9 DUP3 DUP10 ADD PUSH3 0x5E4 JUMP JUMPDEST SWAP3 POP POP PUSH1 0x80 PUSH3 0x6A0 DUP9 DUP3 DUP10 ADD PUSH3 0x5E4 JUMP JUMPDEST SWAP2 POP POP SWAP3 SWAP6 POP SWAP3 SWAP6 SWAP1 SWAP4 POP JUMP JUMPDEST PUSH1 0x0 PUSH3 0x6BC PUSH1 0x2F DUP4 PUSH3 0x8BA JUMP JUMPDEST SWAP2 POP PUSH32 0x416363657373436F6E74726F6C3A2073656E646572206D75737420626520616E PUSH1 0x0 DUP4 ADD MSTORE PUSH32 0x2061646D696E20746F206772616E740000000000000000000000000000000000 PUSH1 0x20 DUP4 ADD MSTORE PUSH1 0x40 DUP3 ADD SWAP1 POP SWAP2 SWAP1 POP JUMP JUMPDEST PUSH1 0x0 PUSH3 0x724 PUSH1 0x1E DUP4 PUSH3 0x8BA JUMP JUMPDEST SWAP2 POP PUSH32 0x76616C756520646F6573206E6F742066697420696E2031323820626974730000 PUSH1 0x0 DUP4 ADD MSTORE PUSH1 0x20 DUP3 ADD SWAP1 POP SWAP2 SWAP1 POP JUMP JUMPDEST PUSH1 0x0 PUSH3 0x766 PUSH1 0x1D DUP4 PUSH3 0x8BA JUMP JUMPDEST SWAP2 POP PUSH32 0x76616C756520646F6573206E6F742066697420696E2034302062697473000000 PUSH1 0x0 DUP4 ADD MSTORE PUSH1 0x20 DUP3 ADD SWAP1 POP SWAP2 SWAP1 POP JUMP JUMPDEST PUSH1 0x0 PUSH3 0x7A8 PUSH1 0x1C DUP4 PUSH3 0x8BA JUMP JUMPDEST SWAP2 POP PUSH32 0x76616C756520646F6573206E6F742066697420696E2038206269747300000000 PUSH1 0x0 DUP4 ADD MSTORE PUSH1 0x20 DUP3 ADD SWAP1 POP SWAP2 SWAP1 POP JUMP JUMPDEST PUSH1 0x0 PUSH1 0x20 DUP3 ADD SWAP1 POP DUP2 DUP2 SUB PUSH1 0x0 DUP4 ADD MSTORE PUSH3 0x7F6 DUP2 PUSH3 0x6AD JUMP JUMPDEST SWAP1 POP SWAP2 SWAP1 POP JUMP JUMPDEST PUSH1 0x0 PUSH1 0x20 DUP3 ADD SWAP1 POP DUP2 DUP2 SUB PUSH1 0x0 DUP4 ADD MSTORE PUSH3 0x818 DUP2 PUSH3 0x715 JUMP JUMPDEST SWAP1 POP SWAP2 SWAP1 POP JUMP JUMPDEST PUSH1 0x0 PUSH1 0x20 DUP3 ADD SWAP1 POP DUP2 DUP2 SUB PUSH1 0x0 DUP4 ADD MSTORE PUSH3 0x83A DUP2 PUSH3 0x757 JUMP JUMPDEST SWAP1 POP SWAP2 SWAP1 POP JUMP JUMPDEST PUSH1 0x0 PUSH1 0x20 DUP3 ADD SWAP1 POP DUP2 DUP2 SUB PUSH1 0x0 DUP4 ADD MSTORE PUSH3 0x85C DUP2 PUSH3 0x799 JUMP JUMPDEST SWAP1 POP SWAP2 SWAP1 POP JUMP JUMPDEST PUSH1 0x0 PUSH1 0x40 MLOAD SWAP1 POP DUP2 DUP2 ADD DUP2 DUP2 LT PUSH8 0xFFFFFFFFFFFFFFFF DUP3 GT OR ISZERO PUSH3 0x887 JUMPI PUSH1 0x0 DUP1 REVERT JUMPDEST DUP1 PUSH1 0x40 MSTORE POP SWAP2 SWAP1 POP JUMP JUMPDEST PUSH1 0x0 PUSH8 0xFFFFFFFFFFFFFFFF DUP3 GT ISZERO PUSH3 0x8A9 JUMPI PUSH1 0x0 DUP1 REVERT JUMPDEST PUSH1 0x20 DUP3 MUL SWAP1 POP PUSH1 0x20 DUP2 ADD SWAP1 POP SWAP2 SWAP1 POP JUMP JUMPDEST PUSH1 0x0 DUP3 DUP3 MSTORE PUSH1 0x20 DUP3 ADD SWAP1 POP SWAP3 SWAP2 POP POP JUMP JUMPDEST PUSH1 0x0 PUSH3 0x8D8 DUP3 PUSH3 0x8DF JUMP JUMPDEST SWAP1 POP SWAP2 SWAP1 POP JUMP JUMPDEST PUSH1 0x0 PUSH20 0xFFFFFFFFFFFFFFFFFFFFFFFFFFFFFFFFFFFFFFFF DUP3 AND SWAP1 POP SWAP2 SWAP1 POP JUMP JUMPDEST PUSH1 0x0 DUP2 SWAP1 POP SWAP2 SWAP1 POP JUMP JUMPDEST PUSH1 0x0 PUSH1 0xFF DUP3 AND SWAP1 POP SWAP2 SWAP1 POP JUMP JUMPDEST PUSH3 0x921 DUP2 PUSH3 0x8CB JUMP JUMPDEST DUP2 EQ PUSH3 0x92D JUMPI PUSH1 0x0 DUP1 REVERT JUMPDEST POP JUMP JUMPDEST PUSH3 0x93B DUP2 PUSH3 0x8FF JUMP JUMPDEST DUP2 EQ PUSH3 0x947 JUMPI PUSH1 0x0 DUP1 REVERT JUMPDEST POP JUMP JUMPDEST PUSH3 0x955 DUP2 PUSH3 0x909 JUMP JUMPDEST DUP2 EQ PUSH3 0x961 JUMPI PUSH1 0x0 DUP1 REVERT JUMPDEST POP JUMP JUMPDEST PUSH2 0x474D DUP1 PUSH3 0x974 PUSH1 0x0 CODECOPY PUSH1 0x0 RETURN INVALID PUSH1 0x80 PUSH1 0x40 MSTORE PUSH1 0x4 CALLDATASIZE LT PUSH2 0x225 JUMPI PUSH1 0x0 CALLDATALOAD PUSH1 0xE0 SHR DUP1 PUSH4 0x84DB809F GT PUSH2 0x123 JUMPI DUP1 PUSH4 0xA9CF69FA GT PUSH2 0xAB JUMPI DUP1 PUSH4 0xCB10F215 GT PUSH2 0x6F JUMPI DUP1 PUSH4 0xCB10F215 EQ PUSH2 0x82C JUMPI DUP1 PUSH4 0xCDB0F73A EQ PUSH2 0x855 JUMPI DUP1 PUSH4 0xD547741F EQ PUSH2 0x87E JUMPI DUP1 PUSH4 0xD7A9CD79 EQ PUSH2 0x8A7 JUMPI DUP1 PUSH4 0xFFAAC0EB EQ PUSH2 0x8D2 JUMPI PUSH2 0x225 JUMP JUMPDEST DUP1 PUSH4 0xA9CF69FA EQ PUSH2 0x731 JUMPI DUP1 PUSH4 0xBEAB7131 EQ PUSH2 0x76E JUMPI DUP1 PUSH4 0xC5B37C22 EQ PUSH2 0x799 JUMPI DUP1 PUSH4 0xC5EC8970 EQ PUSH2 0x7C4 JUMPI DUP1 PUSH4 0xCA15C873 EQ PUSH2 0x7EF JUMPI PUSH2 0x225 JUMP JUMPDEST DUP1 PUSH4 0x91D14854 GT PUSH2 0xF2 JUMPI DUP1 PUSH4 0x91D14854 EQ PUSH2 0x64A JUMPI DUP1 PUSH4 0x926D7D7F EQ PUSH2 0x687 JUMPI DUP1 PUSH4 0x9D82DD63 EQ PUSH2 0x6B2 JUMPI DUP1 PUSH4 0x9DEBB3BD EQ PUSH2 0x6DB JUMPI DUP1 PUSH4 0xA217FDDF EQ PUSH2 0x706 JUMPI PUSH2 0x225 JUMP JUMPDEST DUP1 PUSH4 0x84DB809F EQ PUSH2 0x57E JUMPI DUP1 PUSH4 0x8C0C2631 EQ PUSH2 0x5BB JUMPI DUP1 PUSH4 0x9010D07C EQ PUSH2 0x5E4 JUMPI DUP1 PUSH4 0x91C404AC EQ PUSH2 0x621 JUMPI PUSH2 0x225 JUMP JUMPDEST DUP1 PUSH4 0x4E056005 GT PUSH2 0x1B1 JUMPI DUP1 PUSH4 0x5E1FAB0F GT PUSH2 0x175 JUMPI DUP1 PUSH4 0x5E1FAB0F EQ PUSH2 0x4AD JUMPI DUP1 PUSH4 0x780CF004 EQ PUSH2 0x4D6 JUMPI DUP1 PUSH4 0x7FEBE63F EQ PUSH2 0x4FF JUMPI DUP1 PUSH4 0x802AABE8 EQ PUSH2 0x53C JUMPI DUP1 PUSH4 0x80AE1C28 EQ PUSH2 0x567 JUMPI PUSH2 0x225 JUMP JUMPDEST DUP1 PUSH4 0x4E056005 EQ PUSH2 0x3B6 JUMPI DUP1 PUSH4 0x4E0DF3F6 EQ PUSH2 0x3DF JUMPI DUP1 PUSH4 0x541D5548 EQ PUSH2 0x41C JUMPI DUP1 PUSH4 0x5A1AD87C EQ PUSH2 0x459 JUMPI DUP1 PUSH4 0x5C975ABB EQ PUSH2 0x482 JUMPI PUSH2 0x225 JUMP JUMPDEST DUP1 PUSH4 0x2F2FF15D GT PUSH2 0x1F8 JUMPI DUP1 PUSH4 0x2F2FF15D EQ PUSH2 0x2D5 JUMPI DUP1 PUSH4 0x36568ABE EQ PUSH2 0x2FE JUMPI DUP1 PUSH4 0x4454B20D EQ PUSH2 0x327 JUMPI DUP1 PUSH4 0x4603AE38 EQ PUSH2 0x350 JUMPI DUP1 PUSH4 0x4B0B919D EQ PUSH2 0x379 JUMPI PUSH2 0x225 JUMP JUMPDEST DUP1 PUSH4 0x5E2CA17 EQ PUSH2 0x22A JUMPI DUP1 PUSH4 0x17F03CE5 EQ PUSH2 0x246 JUMPI DUP1 PUSH4 0x1FF013F1 EQ PUSH2 0x26F JUMPI DUP1 PUSH4 0x248A9CA3 EQ PUSH2 0x298 JUMPI JUMPDEST PUSH1 0x0 DUP1 REVERT JUMPDEST PUSH2 0x244 PUSH1 0x4 DUP1 CALLDATASIZE SUB DUP2 ADD SWAP1 PUSH2 0x23F SWAP2 SWAP1 PUSH2 0x3318 JUMP JUMPDEST PUSH2 0x8E9 JUMP JUMPDEST STOP JUMPDEST CALLVALUE DUP1 ISZERO PUSH2 0x252 JUMPI PUSH1 0x0 DUP1 REVERT JUMPDEST POP PUSH2 0x26D PUSH1 0x4 DUP1 CALLDATASIZE SUB DUP2 ADD SWAP1 PUSH2 0x268 SWAP2 SWAP1 PUSH2 0x3384 JUMP JUMPDEST PUSH2 0xB23 JUMP JUMPDEST STOP JUMPDEST CALLVALUE DUP1 ISZERO PUSH2 0x27B JUMPI PUSH1 0x0 DUP1 REVERT JUMPDEST POP PUSH2 0x296 PUSH1 0x4 DUP1 CALLDATASIZE SUB DUP2 ADD SWAP1 PUSH2 0x291 SWAP2 SWAP1 PUSH2 0x33D3 JUMP JUMPDEST PUSH2 0xEDA JUMP JUMPDEST STOP JUMPDEST CALLVALUE DUP1 ISZERO PUSH2 0x2A4 JUMPI PUSH1 0x0 DUP1 REVERT JUMPDEST POP PUSH2 0x2BF PUSH1 0x4 DUP1 CALLDATASIZE SUB DUP2 ADD SWAP1 PUSH2 0x2BA SWAP2 SWAP1 PUSH2 0x31D6 JUMP JUMPDEST PUSH2 0x1548 JUMP JUMPDEST PUSH1 0x40 MLOAD PUSH2 0x2CC SWAP2 SWAP1 PUSH2 0x3E7E JUMP JUMPDEST PUSH1 0x40 MLOAD DUP1 SWAP2 SUB SWAP1 RETURN JUMPDEST CALLVALUE DUP1 ISZERO PUSH2 0x2E1 JUMPI PUSH1 0x0 DUP1 REVERT JUMPDEST POP PUSH2 0x2FC PUSH1 0x4 DUP1 CALLDATASIZE SUB DUP2 ADD SWAP1 PUSH2 0x2F7 SWAP2 SWAP1 PUSH2 0x31FF JUMP JUMPDEST PUSH2 0x1568 JUMP JUMPDEST STOP JUMPDEST CALLVALUE DUP1 ISZERO PUSH2 0x30A JUMPI PUSH1 0x0 DUP1 REVERT JUMPDEST POP PUSH2 0x325 PUSH1 0x4 DUP1 CALLDATASIZE SUB DUP2 ADD SWAP1 PUSH2 0x320 SWAP2 SWAP1 PUSH2 0x31FF JUMP JUMPDEST PUSH2 0x15DC JUMP JUMPDEST STOP JUMPDEST CALLVALUE DUP1 ISZERO PUSH2 0x333 JUMPI PUSH1 0x0 DUP1 REVERT JUMPDEST POP PUSH2 0x34E PUSH1 0x4 DUP1 CALLDATASIZE SUB DUP2 ADD SWAP1 PUSH2 0x349 SWAP2 SWAP1 PUSH2 0x3436 JUMP JUMPDEST PUSH2 0x165F JUMP JUMPDEST STOP JUMPDEST CALLVALUE DUP1 ISZERO PUSH2 0x35C JUMPI PUSH1 0x0 DUP1 REVERT JUMPDEST POP PUSH2 0x377 PUSH1 0x4 DUP1 CALLDATASIZE SUB DUP2 ADD SWAP1 PUSH2 0x372 SWAP2 SWAP1 PUSH2 0x3161 JUMP JUMPDEST PUSH2 0x1885 JUMP JUMPDEST STOP JUMPDEST CALLVALUE DUP1 ISZERO PUSH2 0x385 JUMPI PUSH1 0x0 DUP1 REVERT JUMPDEST POP PUSH2 0x3A0 PUSH1 0x4 DUP1 CALLDATASIZE SUB DUP2 ADD SWAP1 PUSH2 0x39B SWAP2 SWAP1 PUSH2 0x32EF JUMP JUMPDEST PUSH2 0x1928 JUMP JUMPDEST PUSH1 0x40 MLOAD PUSH2 0x3AD SWAP2 SWAP1 PUSH2 0x4371 JUMP JUMPDEST PUSH1 0x40 MLOAD DUP1 SWAP2 SUB SWAP1 RETURN JUMPDEST CALLVALUE DUP1 ISZERO PUSH2 0x3C2 JUMPI PUSH1 0x0 DUP1 REVERT JUMPDEST POP PUSH2 0x3DD PUSH1 0x4 DUP1 CALLDATASIZE SUB DUP2 ADD SWAP1 PUSH2 0x3D8 SWAP2 SWAP1 PUSH2 0x3277 JUMP JUMPDEST PUSH2 0x194F JUMP JUMPDEST STOP JUMPDEST CALLVALUE DUP1 ISZERO PUSH2 0x3EB JUMPI PUSH1 0x0 DUP1 REVERT JUMPDEST POP PUSH2 0x406 PUSH1 0x4 DUP1 CALLDATASIZE SUB DUP2 ADD SWAP1 PUSH2 0x401 SWAP2 SWAP1 PUSH2 0x31FF JUMP JUMPDEST PUSH2 0x19B4 JUMP JUMPDEST PUSH1 0x40 MLOAD PUSH2 0x413 SWAP2 SWAP1 PUSH2 0x433B JUMP JUMPDEST PUSH1 0x40 MLOAD DUP1 SWAP2 SUB SWAP1 RETURN JUMPDEST CALLVALUE DUP1 ISZERO PUSH2 0x428 JUMPI PUSH1 0x0 DUP1 REVERT JUMPDEST POP PUSH2 0x443 PUSH1 0x4 DUP1 CALLDATASIZE SUB DUP2 ADD SWAP1 PUSH2 0x43E SWAP2 SWAP1 PUSH2 0x2F98 JUMP JUMPDEST PUSH2 0x1A05 JUMP JUMPDEST PUSH1 0x40 MLOAD PUSH2 0x450 SWAP2 SWAP1 PUSH2 0x3E63 JUMP JUMPDEST PUSH1 0x40 MLOAD DUP1 SWAP2 SUB SWAP1 RETURN JUMPDEST CALLVALUE DUP1 ISZERO PUSH2 0x465 JUMPI PUSH1 0x0 DUP1 REVERT JUMPDEST POP PUSH2 0x480 PUSH1 0x4 DUP1 CALLDATASIZE SUB DUP2 ADD SWAP1 PUSH2 0x47B SWAP2 SWAP1 PUSH2 0x30D8 JUMP JUMPDEST PUSH2 0x1A38 JUMP JUMPDEST STOP JUMPDEST CALLVALUE DUP1 ISZERO PUSH2 0x48E JUMPI PUSH1 0x0 DUP1 REVERT JUMPDEST POP PUSH2 0x497 PUSH2 0x1B13 JUMP JUMPDEST PUSH1 0x40 MLOAD PUSH2 0x4A4 SWAP2 SWAP1 PUSH2 0x3E63 JUMP JUMPDEST PUSH1 0x40 MLOAD DUP1 SWAP2 SUB SWAP1 RETURN JUMPDEST CALLVALUE DUP1 ISZERO PUSH2 0x4B9 JUMPI PUSH1 0x0 DUP1 REVERT JUMPDEST POP PUSH2 0x4D4 PUSH1 0x4 DUP1 CALLDATASIZE SUB DUP2 ADD SWAP1 PUSH2 0x4CF SWAP2 SWAP1 PUSH2 0x2F98 JUMP JUMPDEST PUSH2 0x1B29 JUMP JUMPDEST STOP JUMPDEST CALLVALUE DUP1 ISZERO PUSH2 0x4E2 JUMPI PUSH1 0x0 DUP1 REVERT JUMPDEST POP PUSH2 0x4FD PUSH1 0x4 DUP1 CALLDATASIZE SUB DUP2 ADD SWAP1 PUSH2 0x4F8 SWAP2 SWAP1 PUSH2 0x3026 JUMP JUMPDEST PUSH2 0x1BBD JUMP JUMPDEST STOP JUMPDEST CALLVALUE DUP1 ISZERO PUSH2 0x50B JUMPI PUSH1 0x0 DUP1 REVERT JUMPDEST POP PUSH2 0x526 PUSH1 0x4 DUP1 CALLDATASIZE SUB DUP2 ADD SWAP1 PUSH2 0x521 SWAP2 SWAP1 PUSH2 0x32A0 JUMP JUMPDEST PUSH2 0x1C40 JUMP JUMPDEST PUSH1 0x40 MLOAD PUSH2 0x533 SWAP2 SWAP1 PUSH2 0x3E63 JUMP JUMPDEST PUSH1 0x40 MLOAD DUP1 SWAP2 SUB SWAP1 RETURN JUMPDEST CALLVALUE DUP1 ISZERO PUSH2 0x548 JUMPI PUSH1 0x0 DUP1 REVERT JUMPDEST POP PUSH2 0x551 PUSH2 0x1D71 JUMP JUMPDEST PUSH1 0x40 MLOAD PUSH2 0x55E SWAP2 SWAP1 PUSH2 0x433B JUMP JUMPDEST PUSH1 0x40 MLOAD DUP1 SWAP2 SUB SWAP1 RETURN JUMPDEST CALLVALUE DUP1 ISZERO PUSH2 0x573 JUMPI PUSH1 0x0 DUP1 REVERT JUMPDEST POP PUSH2 0x57C PUSH2 0x1DA1 JUMP JUMPDEST STOP JUMPDEST CALLVALUE DUP1 ISZERO PUSH2 0x58A JUMPI PUSH1 0x0 DUP1 REVERT JUMPDEST POP PUSH2 0x5A5 PUSH1 0x4 DUP1 CALLDATASIZE SUB DUP2 ADD SWAP1 PUSH2 0x5A0 SWAP2 SWAP1 PUSH2 0x31D6 JUMP JUMPDEST PUSH2 0x1DB3 JUMP JUMPDEST PUSH1 0x40 MLOAD PUSH2 0x5B2 SWAP2 SWAP1 PUSH2 0x3DF6 JUMP JUMPDEST PUSH1 0x40 MLOAD DUP1 SWAP2 SUB SWAP1 RETURN JUMPDEST CALLVALUE DUP1 ISZERO PUSH2 0x5C7 JUMPI PUSH1 0x0 DUP1 REVERT JUMPDEST POP PUSH2 0x5E2 PUSH1 0x4 DUP1 CALLDATASIZE SUB DUP2 ADD SWAP1 PUSH2 0x5DD SWAP2 SWAP1 PUSH2 0x2FEA JUMP JUMPDEST PUSH2 0x1DE6 JUMP JUMPDEST STOP JUMPDEST CALLVALUE DUP1 ISZERO PUSH2 0x5F0 JUMPI PUSH1 0x0 DUP1 REVERT JUMPDEST POP PUSH2 0x60B PUSH1 0x4 DUP1 CALLDATASIZE SUB DUP2 ADD SWAP1 PUSH2 0x606 SWAP2 SWAP1 PUSH2 0x323B JUMP JUMPDEST PUSH2 0x1E63 JUMP JUMPDEST PUSH1 0x40 MLOAD PUSH2 0x618 SWAP2 SWAP1 PUSH2 0x3DF6 JUMP JUMPDEST PUSH1 0x40 MLOAD DUP1 SWAP2 SUB SWAP1 RETURN JUMPDEST CALLVALUE DUP1 ISZERO PUSH2 0x62D JUMPI PUSH1 0x0 DUP1 REVERT JUMPDEST POP PUSH2 0x648 PUSH1 0x4 DUP1 CALLDATASIZE SUB DUP2 ADD SWAP1 PUSH2 0x643 SWAP2 SWAP1 PUSH2 0x3277 JUMP JUMPDEST PUSH2 0x1E95 JUMP JUMPDEST STOP JUMPDEST CALLVALUE DUP1 ISZERO PUSH2 0x656 JUMPI PUSH1 0x0 DUP1 REVERT JUMPDEST POP PUSH2 0x671 PUSH1 0x4 DUP1 CALLDATASIZE SUB DUP2 ADD SWAP1 PUSH2 0x66C SWAP2 SWAP1 PUSH2 0x31FF JUMP JUMPDEST PUSH2 0x1F51 JUMP JUMPDEST PUSH1 0x40 MLOAD PUSH2 0x67E SWAP2 SWAP1 PUSH2 0x3E63 JUMP JUMPDEST PUSH1 0x40 MLOAD DUP1 SWAP2 SUB SWAP1 RETURN JUMPDEST CALLVALUE DUP1 ISZERO PUSH2 0x693 JUMPI PUSH1 0x0 DUP1 REVERT JUMPDEST POP PUSH2 0x69C PUSH2 0x1F83 JUMP JUMPDEST PUSH1 0x40 MLOAD PUSH2 0x6A9 SWAP2 SWAP1 PUSH2 0x3E7E JUMP JUMPDEST PUSH1 0x40 MLOAD DUP1 SWAP2 SUB SWAP1 RETURN JUMPDEST CALLVALUE DUP1 ISZERO PUSH2 0x6BE JUMPI PUSH1 0x0 DUP1 REVERT JUMPDEST POP PUSH2 0x6D9 PUSH1 0x4 DUP1 CALLDATASIZE SUB DUP2 ADD SWAP1 PUSH2 0x6D4 SWAP2 SWAP1 PUSH2 0x2F98 JUMP JUMPDEST PUSH2 0x1FA7 JUMP JUMPDEST STOP JUMPDEST CALLVALUE DUP1 ISZERO PUSH2 0x6E7 JUMPI PUSH1 0x0 DUP1 REVERT JUMPDEST POP PUSH2 0x6F0 PUSH2 0x2074 JUMP JUMPDEST PUSH1 0x40 MLOAD PUSH2 0x6FD SWAP2 SWAP1 PUSH2 0x433B JUMP JUMPDEST PUSH1 0x40 MLOAD DUP1 SWAP2 SUB SWAP1 RETURN JUMPDEST CALLVALUE DUP1 ISZERO PUSH2 0x712 JUMPI PUSH1 0x0 DUP1 REVERT JUMPDEST POP PUSH2 0x71B PUSH2 0x2079 JUMP JUMPDEST PUSH1 0x40 MLOAD PUSH2 0x728 SWAP2 SWAP1 PUSH2 0x3E7E JUMP JUMPDEST PUSH1 0x40 MLOAD DUP1 SWAP2 SUB SWAP1 RETURN JUMPDEST CALLVALUE DUP1 ISZERO PUSH2 0x73D JUMPI PUSH1 0x0 DUP1 REVERT JUMPDEST POP PUSH2 0x758 PUSH1 0x4 DUP1 CALLDATASIZE SUB DUP2 ADD SWAP1 PUSH2 0x753 SWAP2 SWAP1 PUSH2 0x3384 JUMP JUMPDEST PUSH2 0x2080 JUMP JUMPDEST PUSH1 0x40 MLOAD PUSH2 0x765 SWAP2 SWAP1 PUSH2 0x4305 JUMP JUMPDEST PUSH1 0x40 MLOAD DUP1 SWAP2 SUB SWAP1 RETURN JUMPDEST CALLVALUE DUP1 ISZERO PUSH2 0x77A JUMPI PUSH1 0x0 DUP1 REVERT JUMPDEST POP PUSH2 0x783 PUSH2 0x21D2 JUMP JUMPDEST PUSH1 0x40 MLOAD PUSH2 0x790 SWAP2 SWAP1 PUSH2 0x438C JUMP JUMPDEST PUSH1 0x40 MLOAD DUP1 SWAP2 SUB SWAP1 RETURN JUMPDEST CALLVALUE DUP1 ISZERO PUSH2 0x7A5 JUMPI PUSH1 0x0 DUP1 REVERT JUMPDEST POP PUSH2 0x7AE PUSH2 0x21E5 JUMP JUMPDEST PUSH1 0x40 MLOAD PUSH2 0x7BB SWAP2 SWAP1 PUSH2 0x4320 JUMP JUMPDEST PUSH1 0x40 MLOAD DUP1 SWAP2 SUB SWAP1 RETURN JUMPDEST CALLVALUE DUP1 ISZERO PUSH2 0x7D0 JUMPI PUSH1 0x0 DUP1 REVERT JUMPDEST POP PUSH2 0x7D9 PUSH2 0x2205 JUMP JUMPDEST PUSH1 0x40 MLOAD PUSH2 0x7E6 SWAP2 SWAP1 PUSH2 0x4356 JUMP JUMPDEST PUSH1 0x40 MLOAD DUP1 SWAP2 SUB SWAP1 RETURN JUMPDEST CALLVALUE DUP1 ISZERO PUSH2 0x7FB JUMPI PUSH1 0x0 DUP1 REVERT JUMPDEST POP PUSH2 0x816 PUSH1 0x4 DUP1 CALLDATASIZE SUB DUP2 ADD SWAP1 PUSH2 0x811 SWAP2 SWAP1 PUSH2 0x31D6 JUMP JUMPDEST PUSH2 0x221C JUMP JUMPDEST PUSH1 0x40 MLOAD PUSH2 0x823 SWAP2 SWAP1 PUSH2 0x433B JUMP JUMPDEST PUSH1 0x40 MLOAD DUP1 SWAP2 SUB SWAP1 RETURN JUMPDEST CALLVALUE DUP1 ISZERO PUSH2 0x838 JUMPI PUSH1 0x0 DUP1 REVERT JUMPDEST POP PUSH2 0x853 PUSH1 0x4 DUP1 CALLDATASIZE SUB DUP2 ADD SWAP1 PUSH2 0x84E SWAP2 SWAP1 PUSH2 0x3089 JUMP JUMPDEST PUSH2 0x2243 JUMP JUMPDEST STOP JUMPDEST CALLVALUE DUP1 ISZERO PUSH2 0x861 JUMPI PUSH1 0x0 DUP1 REVERT JUMPDEST POP PUSH2 0x87C PUSH1 0x4 DUP1 CALLDATASIZE SUB DUP2 ADD SWAP1 PUSH2 0x877 SWAP2 SWAP1 PUSH2 0x2F98 JUMP JUMPDEST PUSH2 0x2315 JUMP JUMPDEST STOP JUMPDEST CALLVALUE DUP1 ISZERO PUSH2 0x88A JUMPI PUSH1 0x0 DUP1 REVERT JUMPDEST POP PUSH2 0x8A5 PUSH1 0x4 DUP1 CALLDATASIZE SUB DUP2 ADD SWAP1 PUSH2 0x8A0 SWAP2 SWAP1 PUSH2 0x31FF JUMP JUMPDEST PUSH2 0x242D JUMP JUMPDEST STOP JUMPDEST CALLVALUE DUP1 ISZERO PUSH2 0x8B3 JUMPI PUSH1 0x0 DUP1 REVERT JUMPDEST POP PUSH2 0x8BC PUSH2 0x24A1 JUMP JUMPDEST PUSH1 0x40 MLOAD PUSH2 0x8C9 SWAP2 SWAP1 PUSH2 0x438C JUMP JUMPDEST PUSH1 0x40 MLOAD DUP1 SWAP2 SUB SWAP1 RETURN JUMPDEST CALLVALUE DUP1 ISZERO PUSH2 0x8DE JUMPI PUSH1 0x0 DUP1 REVERT JUMPDEST POP PUSH2 0x8E7 PUSH2 0x24B4 JUMP JUMPDEST STOP JUMPDEST PUSH2 0x8F1 PUSH2 0x2623 JUMP JUMPDEST PUSH1 0x2 DUP1 SLOAD SWAP1 PUSH2 0x100 EXP SWAP1 DIV PUSH16 0xFFFFFFFFFFFFFFFFFFFFFFFFFFFFFFFF AND PUSH16 0xFFFFFFFFFFFFFFFFFFFFFFFFFFFFFFFF AND CALLVALUE EQ PUSH2 0x961 JUMPI PUSH1 0x40 MLOAD PUSH32 0x8C379A000000000000000000000000000000000000000000000000000000000 DUP2 MSTORE PUSH1 0x4 ADD PUSH2 0x958 SWAP1 PUSH2 0x40E5 JUMP JUMPDEST PUSH1 0x40 MLOAD DUP1 SWAP2 SUB SWAP1 REVERT JUMPDEST PUSH1 0x0 PUSH1 0x4 PUSH1 0x0 DUP6 DUP2 MSTORE PUSH1 0x20 ADD SWAP1 DUP2 MSTORE PUSH1 0x20 ADD PUSH1 0x0 KECCAK256 PUSH1 0x0 SWAP1 SLOAD SWAP1 PUSH2 0x100 EXP SWAP1 DIV PUSH20 0xFFFFFFFFFFFFFFFFFFFFFFFFFFFFFFFFFFFFFFFF AND SWAP1 POP PUSH1 0x0 PUSH20 0xFFFFFFFFFFFFFFFFFFFFFFFFFFFFFFFFFFFFFFFF AND DUP2 PUSH20 0xFFFFFFFFFFFFFFFFFFFFFFFFFFFFFFFFFFFFFFFF AND EQ ISZERO PUSH2 0xA09 JUMPI PUSH1 0x40 MLOAD PUSH32 0x8C379A000000000000000000000000000000000000000000000000000000000 DUP2 MSTORE PUSH1 0x4 ADD PUSH2 0xA00 SWAP1 PUSH2 0x4145 JUMP JUMPDEST PUSH1 0x40 MLOAD DUP1 SWAP2 SUB SWAP1 REVERT JUMPDEST PUSH1 0x0 PUSH1 0x3 PUSH1 0x0 DUP8 PUSH1 0xFF AND PUSH1 0xFF AND DUP2 MSTORE PUSH1 0x20 ADD SWAP1 DUP2 MSTORE PUSH1 0x20 ADD PUSH1 0x0 KECCAK256 PUSH1 0x0 DUP2 DUP2 SWAP1 SLOAD SWAP1 PUSH2 0x100 EXP SWAP1 DIV PUSH8 0xFFFFFFFFFFFFFFFF AND PUSH1 0x1 ADD SWAP2 SWAP1 PUSH2 0x100 EXP DUP2 SLOAD DUP2 PUSH8 0xFFFFFFFFFFFFFFFF MUL NOT AND SWAP1 DUP4 PUSH8 0xFFFFFFFFFFFFFFFF AND MUL OR SWAP1 SSTORE SWAP1 POP PUSH1 0x0 DUP3 SWAP1 POP DUP1 PUSH20 0xFFFFFFFFFFFFFFFFFFFFFFFFFFFFFFFFFFFFFFFF AND PUSH4 0x38995DA9 DUP8 DUP10 DUP6 CALLER DUP11 DUP11 PUSH1 0x40 MLOAD DUP8 PUSH4 0xFFFFFFFF AND PUSH1 0xE0 SHL DUP2 MSTORE PUSH1 0x4 ADD PUSH2 0xAAD SWAP7 SWAP6 SWAP5 SWAP4 SWAP3 SWAP2 SWAP1 PUSH2 0x3F47 JUMP JUMPDEST PUSH1 0x0 PUSH1 0x40 MLOAD DUP1 DUP4 SUB DUP2 PUSH1 0x0 DUP8 DUP1 EXTCODESIZE ISZERO DUP1 ISZERO PUSH2 0xAC7 JUMPI PUSH1 0x0 DUP1 REVERT JUMPDEST POP GAS CALL ISZERO DUP1 ISZERO PUSH2 0xADB JUMPI RETURNDATASIZE PUSH1 0x0 DUP1 RETURNDATACOPY RETURNDATASIZE PUSH1 0x0 REVERT JUMPDEST POP POP POP POP PUSH32 0xDBB69440DF8433824A026EF190652F29929EB64B4D1D5D2A69BE8AFE3E6EAED8 DUP8 DUP8 DUP5 PUSH1 0x40 MLOAD PUSH2 0xB12 SWAP4 SWAP3 SWAP2 SWAP1 PUSH2 0x43A7 JUMP JUMPDEST PUSH1 0x40 MLOAD DUP1 SWAP2 SUB SWAP1 LOG1 POP POP POP POP POP POP POP JUMP JUMPDEST PUSH2 0xB2B PUSH2 0x2673 JUMP JUMPDEST PUSH1 0x0 DUP4 PUSH1 0xFF AND PUSH1 0x8 DUP5 PUSH8 0xFFFFFFFFFFFFFFFF AND PUSH9 0xFFFFFFFFFFFFFFFFFF AND SWAP1 SHL OR SWAP1 POP PUSH2 0xB56 PUSH2 0x2DBA JUMP JUMPDEST PUSH1 0x5 PUSH1 0x0 DUP4 PUSH9 0xFFFFFFFFFFFFFFFFFF AND PUSH9 0xFFFFFFFFFFFFFFFFFF AND DUP2 MSTORE PUSH1 0x20 ADD SWAP1 DUP2 MSTORE PUSH1 0x20 ADD PUSH1 0x0 KECCAK256 PUSH1 0x0 DUP5 DUP2 MSTORE PUSH1 0x20 ADD SWAP1 DUP2 MSTORE PUSH1 0x20 ADD PUSH1 0x0 KECCAK256 PUSH1 0x40 MLOAD DUP1 PUSH1 0x80 ADD PUSH1 0x40 MSTORE SWAP1 DUP2 PUSH1 0x0 DUP3 ADD PUSH1 0x0 SWAP1 SLOAD SWAP1 PUSH2 0x100 EXP SWAP1 DIV PUSH1 0xFF AND PUSH1 0x4 DUP2 GT ISZERO PUSH2 0xBB9 JUMPI INVALID JUMPDEST PUSH1 0x4 DUP2 GT ISZERO PUSH2 0xBC4 JUMPI INVALID JUMPDEST DUP2 MSTORE PUSH1 0x20 ADD PUSH1 0x0 DUP3 ADD PUSH1 0x1 SWAP1 SLOAD SWAP1 PUSH2 0x100 EXP SWAP1 DIV PUSH25 0xFFFFFFFFFFFFFFFFFFFFFFFFFFFFFFFFFFFFFFFFFFFFFFFFFF AND PUSH25 0xFFFFFFFFFFFFFFFFFFFFFFFFFFFFFFFFFFFFFFFFFFFFFFFFFF AND PUSH25 0xFFFFFFFFFFFFFFFFFFFFFFFFFFFFFFFFFFFFFFFFFFFFFFFFFF AND DUP2 MSTORE PUSH1 0x20 ADD PUSH1 0x0 DUP3 ADD PUSH1 0x1A SWAP1 SLOAD SWAP1 PUSH2 0x100 EXP SWAP1 DIV PUSH1 0xFF AND PUSH1 0xFF AND PUSH1 0xFF AND DUP2 MSTORE PUSH1 0x20 ADD PUSH1 0x0 DUP3 ADD PUSH1 0x1B SWAP1 SLOAD SWAP1 PUSH2 0x100 EXP SWAP1 DIV PUSH5 0xFFFFFFFFFF AND PUSH5 0xFFFFFFFFFF AND PUSH5 0xFFFFFFFFFF AND DUP2 MSTORE POP POP SWAP1 POP PUSH1 0x0 DUP2 PUSH1 0x0 ADD MLOAD SWAP1 POP PUSH1 0x1 PUSH1 0x4 DUP2 GT ISZERO PUSH2 0xC8B JUMPI INVALID JUMPDEST DUP2 PUSH1 0x4 DUP2 GT ISZERO PUSH2 0xC97 JUMPI INVALID JUMPDEST EQ DUP1 PUSH2 0xCB9 JUMPI POP PUSH1 0x2 PUSH1 0x4 DUP2 GT ISZERO PUSH2 0xCAB JUMPI INVALID JUMPDEST DUP2 PUSH1 0x4 DUP2 GT ISZERO PUSH2 0xCB7 JUMPI INVALID JUMPDEST EQ JUMPDEST PUSH2 0xCF8 JUMPI PUSH1 0x40 MLOAD PUSH32 0x8C379A000000000000000000000000000000000000000000000000000000000 DUP2 MSTORE PUSH1 0x4 ADD PUSH2 0xCEF SWAP1 PUSH2 0x4105 JUMP JUMPDEST PUSH1 0x40 MLOAD DUP1 SWAP2 SUB SWAP1 REVERT JUMPDEST PUSH1 0x2 PUSH1 0x12 SWAP1 SLOAD SWAP1 PUSH2 0x100 EXP SWAP1 DIV PUSH5 0xFFFFFFFFFF AND PUSH5 0xFFFFFFFFFF AND PUSH2 0xD28 NUMBER DUP5 PUSH1 0x60 ADD MLOAD PUSH5 0xFFFFFFFFFF AND PUSH2 0x26F2 JUMP JUMPDEST PUSH5 0xFFFFFFFFFF AND GT PUSH2 0xD6F JUMPI PUSH1 0x40 MLOAD PUSH32 0x8C379A000000000000000000000000000000000000000000000000000000000 DUP2 MSTORE PUSH1 0x4 ADD PUSH2 0xD66 SWAP1 PUSH2 0x41C5 JUMP JUMPDEST PUSH1 0x40 MLOAD DUP1 SWAP2 SUB SWAP1 REVERT JUMPDEST PUSH1 0x4 DUP3 PUSH1 0x0 ADD SWAP1 PUSH1 0x4 DUP2 GT ISZERO PUSH2 0xD81 JUMPI INVALID JUMPDEST SWAP1 DUP2 PUSH1 0x4 DUP2 GT ISZERO PUSH2 0xD8E JUMPI INVALID JUMPDEST DUP2 MSTORE POP POP DUP2 PUSH1 0x5 PUSH1 0x0 DUP6 PUSH9 0xFFFFFFFFFFFFFFFFFF AND PUSH9 0xFFFFFFFFFFFFFFFFFF AND DUP2 MSTORE PUSH1 0x20 ADD SWAP1 DUP2 MSTORE PUSH1 0x20 ADD PUSH1 0x0 KECCAK256 PUSH1 0x0 DUP7 DUP2 MSTORE PUSH1 0x20 ADD SWAP1 DUP2 MSTORE PUSH1 0x20 ADD PUSH1 0x0 KECCAK256 PUSH1 0x0 DUP3 ADD MLOAD DUP2 PUSH1 0x0 ADD PUSH1 0x0 PUSH2 0x100 EXP DUP2 SLOAD DUP2 PUSH1 0xFF MUL NOT AND SWAP1 DUP4 PUSH1 0x4 DUP2 GT ISZERO PUSH2 0xDF1 JUMPI INVALID JUMPDEST MUL OR SWAP1 SSTORE POP PUSH1 0x20 DUP3 ADD MLOAD DUP2 PUSH1 0x0 ADD PUSH1 0x1 PUSH2 0x100 EXP DUP2 SLOAD DUP2 PUSH25 0xFFFFFFFFFFFFFFFFFFFFFFFFFFFFFFFFFFFFFFFFFFFFFFFFFF MUL NOT AND SWAP1 DUP4 PUSH25 0xFFFFFFFFFFFFFFFFFFFFFFFFFFFFFFFFFFFFFFFFFFFFFFFFFF AND MUL OR SWAP1 SSTORE POP PUSH1 0x40 DUP3 ADD MLOAD DUP2 PUSH1 0x0 ADD PUSH1 0x1A PUSH2 0x100 EXP DUP2 SLOAD DUP2 PUSH1 0xFF MUL NOT AND SWAP1 DUP4 PUSH1 0xFF AND MUL OR SWAP1 SSTORE POP PUSH1 0x60 DUP3 ADD MLOAD DUP2 PUSH1 0x0 ADD PUSH1 0x1B PUSH2 0x100 EXP DUP2 SLOAD DUP2 PUSH5 0xFFFFFFFFFF MUL NOT AND SWAP1 DUP4 PUSH5 0xFFFFFFFFFF AND MUL OR SWAP1 SSTORE POP SWAP1 POP POP PUSH32 0x968626A768E76BA1363EFE44E322A6C4900C5F084E0B45F35E294DFDDAA9E0D5 DUP7 DUP7 PUSH1 0x4 DUP8 PUSH1 0x40 MLOAD PUSH2 0xECA SWAP5 SWAP4 SWAP3 SWAP2 SWAP1 PUSH2 0x43DE JUMP JUMPDEST PUSH1 0x40 MLOAD DUP1 SWAP2 SUB SWAP1 LOG1 POP POP POP POP POP POP JUMP JUMPDEST PUSH2 0xEE2 PUSH2 0x273C JUMP JUMPDEST PUSH2 0xEEA PUSH2 0x2623 JUMP JUMPDEST PUSH1 0x0 DUP5 PUSH1 0xFF AND PUSH1 0x8 DUP6 PUSH8 0xFFFFFFFFFFFFFFFF AND PUSH9 0xFFFFFFFFFFFFFFFFFF AND SWAP1 SHL OR SWAP1 POP PUSH2 0xF15 PUSH2 0x2DBA JUMP JUMPDEST PUSH1 0x5 PUSH1 0x0 DUP4 PUSH9 0xFFFFFFFFFFFFFFFFFF AND PUSH9 0xFFFFFFFFFFFFFFFFFF AND DUP2 MSTORE PUSH1 0x20 ADD SWAP1 DUP2 MSTORE PUSH1 0x20 ADD PUSH1 0x0 KECCAK256 PUSH1 0x0 DUP5 DUP2 MSTORE PUSH1 0x20 ADD SWAP1 DUP2 MSTORE PUSH1 0x20 ADD PUSH1 0x0 KECCAK256 PUSH1 0x40 MLOAD DUP1 PUSH1 0x80 ADD PUSH1 0x40 MSTORE SWAP1 DUP2 PUSH1 0x0 DUP3 ADD PUSH1 0x0 SWAP1 SLOAD SWAP1 PUSH2 0x100 EXP SWAP1 DIV PUSH1 0xFF AND PUSH1 0x4 DUP2 GT ISZERO PUSH2 0xF78 JUMPI INVALID JUMPDEST PUSH1 0x4 DUP2 GT ISZERO PUSH2 0xF83 JUMPI INVALID JUMPDEST DUP2 MSTORE PUSH1 0x20 ADD PUSH1 0x0 DUP3 ADD PUSH1 0x1 SWAP1 SLOAD SWAP1 PUSH2 0x100 EXP SWAP1 DIV PUSH25 0xFFFFFFFFFFFFFFFFFFFFFFFFFFFFFFFFFFFFFFFFFFFFFFFFFF AND PUSH25 0xFFFFFFFFFFFFFFFFFFFFFFFFFFFFFFFFFFFFFFFFFFFFFFFFFF AND PUSH25 0xFFFFFFFFFFFFFFFFFFFFFFFFFFFFFFFFFFFFFFFFFFFFFFFFFF AND DUP2 MSTORE PUSH1 0x20 ADD PUSH1 0x0 DUP3 ADD PUSH1 0x1A SWAP1 SLOAD SWAP1 PUSH2 0x100 EXP SWAP1 DIV PUSH1 0xFF AND PUSH1 0xFF AND PUSH1 0xFF AND DUP2 MSTORE PUSH1 0x20 ADD PUSH1 0x0 DUP3 ADD PUSH1 0x1B SWAP1 SLOAD SWAP1 PUSH2 0x100 EXP SWAP1 DIV PUSH5 0xFFFFFFFFFF AND PUSH5 0xFFFFFFFFFF AND PUSH5 0xFFFFFFFFFF AND DUP2 MSTORE POP POP SWAP1 POP PUSH1 0x0 PUSH20 0xFFFFFFFFFFFFFFFFFFFFFFFFFFFFFFFFFFFFFFFF AND PUSH1 0x4 PUSH1 0x0 DUP7 DUP2 MSTORE PUSH1 0x20 ADD SWAP1 DUP2 MSTORE PUSH1 0x20 ADD PUSH1 0x0 KECCAK256 PUSH1 0x0 SWAP1 SLOAD SWAP1 PUSH2 0x100 EXP SWAP1 DIV PUSH20 0xFFFFFFFFFFFFFFFFFFFFFFFFFFFFFFFFFFFFFFFF AND PUSH20 0xFFFFFFFFFFFFFFFFFFFFFFFFFFFFFFFFFFFFFFFF AND EQ ISZERO PUSH2 0x10D7 JUMPI PUSH1 0x40 MLOAD PUSH32 0x8C379A000000000000000000000000000000000000000000000000000000000 DUP2 MSTORE PUSH1 0x4 ADD PUSH2 0x10CE SWAP1 PUSH2 0x42C5 JUMP JUMPDEST PUSH1 0x40 MLOAD DUP1 SWAP2 SUB SWAP1 REVERT JUMPDEST PUSH1 0x1 DUP2 PUSH1 0x0 ADD MLOAD PUSH1 0x4 DUP2 GT ISZERO PUSH2 0x10E9 JUMPI INVALID JUMPDEST GT ISZERO PUSH2 0x112A JUMPI PUSH1 0x40 MLOAD PUSH32 0x8C379A000000000000000000000000000000000000000000000000000000000 DUP2 MSTORE PUSH1 0x4 ADD PUSH2 0x1121 SWAP1 PUSH2 0x4245 JUMP JUMPDEST PUSH1 0x40 MLOAD DUP1 SWAP2 SUB SWAP1 REVERT JUMPDEST PUSH2 0x1134 DUP2 CALLER PUSH2 0x27A7 JUMP JUMPDEST ISZERO PUSH2 0x1174 JUMPI PUSH1 0x40 MLOAD PUSH32 0x8C379A000000000000000000000000000000000000000000000000000000000 DUP2 MSTORE PUSH1 0x4 ADD PUSH2 0x116B SWAP1 PUSH2 0x4025 JUMP JUMPDEST PUSH1 0x40 MLOAD DUP1 SWAP2 SUB SWAP1 REVERT JUMPDEST PUSH1 0x0 PUSH1 0x4 DUP2 GT ISZERO PUSH2 0x1181 JUMPI INVALID JUMPDEST DUP2 PUSH1 0x0 ADD MLOAD PUSH1 0x4 DUP2 GT ISZERO PUSH2 0x1191 JUMPI INVALID JUMPDEST EQ ISZERO PUSH2 0x1230 JUMPI PUSH1 0x40 MLOAD DUP1 PUSH1 0x80 ADD PUSH1 0x40 MSTORE DUP1 PUSH1 0x1 PUSH1 0x4 DUP2 GT ISZERO PUSH2 0x11AF JUMPI INVALID JUMPDEST DUP2 MSTORE PUSH1 0x20 ADD PUSH1 0x0 PUSH25 0xFFFFFFFFFFFFFFFFFFFFFFFFFFFFFFFFFFFFFFFFFFFFFFFFFF AND DUP2 MSTORE PUSH1 0x20 ADD PUSH1 0x0 PUSH1 0xFF AND DUP2 MSTORE PUSH1 0x20 ADD NUMBER PUSH5 0xFFFFFFFFFF AND DUP2 MSTORE POP SWAP1 POP PUSH32 0x968626A768E76BA1363EFE44E322A6C4900C5F084E0B45F35E294DFDDAA9E0D5 DUP7 DUP7 PUSH1 0x1 DUP7 PUSH1 0x40 MLOAD PUSH2 0x1223 SWAP5 SWAP4 SWAP3 SWAP2 SWAP1 PUSH2 0x43DE JUMP JUMPDEST PUSH1 0x40 MLOAD DUP1 SWAP2 SUB SWAP1 LOG1 PUSH2 0x12D0 JUMP JUMPDEST PUSH1 0x2 PUSH1 0x12 SWAP1 SLOAD SWAP1 PUSH2 0x100 EXP SWAP1 DIV PUSH5 0xFFFFFFFFFF AND PUSH5 0xFFFFFFFFFF AND PUSH2 0x1260 NUMBER DUP4 PUSH1 0x60 ADD MLOAD PUSH5 0xFFFFFFFFFF AND PUSH2 0x26F2 JUMP JUMPDEST PUSH5 0xFFFFFFFFFF AND GT ISZERO PUSH2 0x12CF JUMPI PUSH1 0x4 DUP2 PUSH1 0x0 ADD SWAP1 PUSH1 0x4 DUP2 GT ISZERO PUSH2 0x127F JUMPI INVALID JUMPDEST SWAP1 DUP2 PUSH1 0x4 DUP2 GT ISZERO PUSH2 0x128C JUMPI INVALID JUMPDEST DUP2 MSTORE POP POP PUSH32 0x968626A768E76BA1363EFE44E322A6C4900C5F084E0B45F35E294DFDDAA9E0D5 DUP7 DUP7 PUSH1 0x4 DUP7 PUSH1 0x40 MLOAD PUSH2 0x12C6 SWAP5 SWAP4 SWAP3 SWAP2 SWAP1 PUSH2 0x43DE JUMP JUMPDEST PUSH1 0x40 MLOAD DUP1 SWAP2 SUB SWAP1 LOG1 JUMPDEST JUMPDEST PUSH1 0x4 DUP1 DUP2 GT ISZERO PUSH2 0x12DC JUMPI INVALID JUMPDEST DUP2 PUSH1 0x0 ADD MLOAD PUSH1 0x4 DUP2 GT ISZERO PUSH2 0x12EC JUMPI INVALID JUMPDEST EQ PUSH2 0x143E JUMPI PUSH2 0x1323 PUSH2 0x12FD CALLER PUSH2 0x27DD JUMP JUMPDEST DUP3 PUSH1 0x20 ADD MLOAD PUSH25 0xFFFFFFFFFFFFFFFFFFFFFFFFFFFFFFFFFFFFFFFFFFFFFFFFFF AND OR PUSH2 0x281E JUMP JUMPDEST DUP2 PUSH1 0x20 ADD SWAP1 PUSH25 0xFFFFFFFFFFFFFFFFFFFFFFFFFFFFFFFFFFFFFFFFFFFFFFFFFF AND SWAP1 DUP2 PUSH25 0xFFFFFFFFFFFFFFFFFFFFFFFFFFFFFFFFFFFFFFFFFFFFFFFFFF AND DUP2 MSTORE POP POP DUP1 PUSH1 0x40 ADD DUP1 MLOAD DUP1 SWAP2 SWAP1 PUSH1 0x1 ADD PUSH1 0xFF AND PUSH1 0xFF AND DUP2 MSTORE POP POP PUSH32 0x25F8DAAA4635A7729927BA3F5B3D59CC3320ACA7C32C9DB4E7CA7B9574343640 DUP7 DUP7 DUP4 PUSH1 0x0 ADD MLOAD DUP7 PUSH1 0x40 MLOAD PUSH2 0x13B3 SWAP5 SWAP4 SWAP3 SWAP2 SWAP1 PUSH2 0x43DE JUMP JUMPDEST PUSH1 0x40 MLOAD DUP1 SWAP2 SUB SWAP1 LOG1 PUSH1 0x2 PUSH1 0x1 SWAP1 SLOAD SWAP1 PUSH2 0x100 EXP SWAP1 DIV PUSH1 0xFF AND PUSH1 0xFF AND DUP2 PUSH1 0x40 ADD MLOAD PUSH1 0xFF AND LT PUSH2 0x143D JUMPI PUSH1 0x2 DUP2 PUSH1 0x0 ADD SWAP1 PUSH1 0x4 DUP2 GT ISZERO PUSH2 0x13ED JUMPI INVALID JUMPDEST SWAP1 DUP2 PUSH1 0x4 DUP2 GT ISZERO PUSH2 0x13FA JUMPI INVALID JUMPDEST DUP2 MSTORE POP POP PUSH32 0x968626A768E76BA1363EFE44E322A6C4900C5F084E0B45F35E294DFDDAA9E0D5 DUP7 DUP7 PUSH1 0x2 DUP7 PUSH1 0x40 MLOAD PUSH2 0x1434 SWAP5 SWAP4 SWAP3 SWAP2 SWAP1 PUSH2 0x43DE JUMP JUMPDEST PUSH1 0x40 MLOAD DUP1 SWAP2 SUB SWAP1 LOG1 JUMPDEST JUMPDEST DUP1 PUSH1 0x5 PUSH1 0x0 DUP5 PUSH9 0xFFFFFFFFFFFFFFFFFF AND PUSH9 0xFFFFFFFFFFFFFFFFFF AND DUP2 MSTORE PUSH1 0x20 ADD SWAP1 DUP2 MSTORE PUSH1 0x20 ADD PUSH1 0x0 KECCAK256 PUSH1 0x0 DUP6 DUP2 MSTORE PUSH1 0x20 ADD SWAP1 DUP2 MSTORE PUSH1 0x20 ADD PUSH1 0x0 KECCAK256 PUSH1 0x0 DUP3 ADD MLOAD DUP2 PUSH1 0x0 ADD PUSH1 0x0 PUSH2 0x100 EXP DUP2 SLOAD DUP2 PUSH1 0xFF MUL NOT AND SWAP1 DUP4 PUSH1 0x4 DUP2 GT ISZERO PUSH2 0x149D JUMPI INVALID JUMPDEST MUL OR SWAP1 SSTORE POP PUSH1 0x20 DUP3 ADD MLOAD DUP2 PUSH1 0x0 ADD PUSH1 0x1 PUSH2 0x100 EXP DUP2 SLOAD DUP2 PUSH25 0xFFFFFFFFFFFFFFFFFFFFFFFFFFFFFFFFFFFFFFFFFFFFFFFFFF MUL NOT AND SWAP1 DUP4 PUSH25 0xFFFFFFFFFFFFFFFFFFFFFFFFFFFFFFFFFFFFFFFFFFFFFFFFFF AND MUL OR SWAP1 SSTORE POP PUSH1 0x40 DUP3 ADD MLOAD DUP2 PUSH1 0x0 ADD PUSH1 0x1A PUSH2 0x100 EXP DUP2 SLOAD DUP2 PUSH1 0xFF MUL NOT AND SWAP1 DUP4 PUSH1 0xFF AND MUL OR SWAP1 SSTORE POP PUSH1 0x60 DUP3 ADD MLOAD DUP2 PUSH1 0x0 ADD PUSH1 0x1B PUSH2 0x100 EXP DUP2 SLOAD DUP2 PUSH5 0xFFFFFFFFFF MUL NOT AND SWAP1 DUP4 PUSH5 0xFFFFFFFFFF AND MUL OR SWAP1 SSTORE POP SWAP1 POP POP POP POP POP POP POP POP JUMP JUMPDEST PUSH1 0x0 PUSH1 0x1 PUSH1 0x0 DUP4 DUP2 MSTORE PUSH1 0x20 ADD SWAP1 DUP2 MSTORE PUSH1 0x20 ADD PUSH1 0x0 KECCAK256 PUSH1 0x2 ADD SLOAD SWAP1 POP SWAP2 SWAP1 POP JUMP JUMPDEST PUSH2 0x158F PUSH1 0x1 PUSH1 0x0 DUP5 DUP2 MSTORE PUSH1 0x20 ADD SWAP1 DUP2 MSTORE PUSH1 0x20 ADD PUSH1 0x0 KECCAK256 PUSH1 0x2 ADD SLOAD PUSH2 0x158A PUSH2 0x2884 JUMP JUMPDEST PUSH2 0x1F51 JUMP JUMPDEST PUSH2 0x15CE JUMPI PUSH1 0x40 MLOAD PUSH32 0x8C379A000000000000000000000000000000000000000000000000000000000 DUP2 MSTORE PUSH1 0x4 ADD PUSH2 0x15C5 SWAP1 PUSH2 0x4005 JUMP JUMPDEST PUSH1 0x40 MLOAD DUP1 SWAP2 SUB SWAP1 REVERT JUMPDEST PUSH2 0x15D8 DUP3 DUP3 PUSH2 0x288C JUMP JUMPDEST POP POP JUMP JUMPDEST PUSH2 0x15E4 PUSH2 0x2884 JUMP JUMPDEST PUSH20 0xFFFFFFFFFFFFFFFFFFFFFFFFFFFFFFFFFFFFFFFF AND DUP2 PUSH20 0xFFFFFFFFFFFFFFFFFFFFFFFFFFFFFFFFFFFFFFFF AND EQ PUSH2 0x1651 JUMPI PUSH1 0x40 MLOAD PUSH32 0x8C379A000000000000000000000000000000000000000000000000000000000 DUP2 MSTORE PUSH1 0x4 ADD PUSH2 0x1648 SWAP1 PUSH2 0x42E5 JUMP JUMPDEST PUSH1 0x40 MLOAD DUP1 SWAP2 SUB SWAP1 REVERT JUMPDEST PUSH2 0x165B DUP3 DUP3 PUSH2 0x2920 JUMP JUMPDEST POP POP JUMP JUMPDEST PUSH2 0x1667 PUSH2 0x273C JUMP JUMPDEST PUSH2 0x166F PUSH2 0x2623 JUMP JUMPDEST PUSH1 0x0 PUSH1 0x4 PUSH1 0x0 DUP4 DUP2 MSTORE PUSH1 0x20 ADD SWAP1 DUP2 MSTORE PUSH1 0x20 ADD PUSH1 0x0 KECCAK256 PUSH1 0x0 SWAP1 SLOAD SWAP1 PUSH2 0x100 EXP SWAP1 DIV PUSH20 0xFFFFFFFFFFFFFFFFFFFFFFFFFFFFFFFFFFFFFFFF AND SWAP1 POP PUSH1 0x0 DUP7 PUSH1 0xFF AND PUSH1 0x8 DUP8 PUSH8 0xFFFFFFFFFFFFFFFF AND PUSH9 0xFFFFFFFFFFFFFFFFFF AND SWAP1 SHL OR SWAP1 POP PUSH1 0x0 DUP3 DUP7 DUP7 PUSH1 0x40 MLOAD PUSH1 0x20 ADD PUSH2 0x16E1 SWAP4 SWAP3 SWAP2 SWAP1 PUSH2 0x3DCC JUMP JUMPDEST PUSH1 0x40 MLOAD PUSH1 0x20 DUP2 DUP4 SUB SUB DUP2 MSTORE SWAP1 PUSH1 0x40 MSTORE DUP1 MLOAD SWAP1 PUSH1 0x20 ADD KECCAK256 SWAP1 POP PUSH1 0x0 PUSH1 0x5 PUSH1 0x0 DUP5 PUSH9 0xFFFFFFFFFFFFFFFFFF AND PUSH9 0xFFFFFFFFFFFFFFFFFF AND DUP2 MSTORE PUSH1 0x20 ADD SWAP1 DUP2 MSTORE PUSH1 0x20 ADD PUSH1 0x0 KECCAK256 PUSH1 0x0 DUP4 DUP2 MSTORE PUSH1 0x20 ADD SWAP1 DUP2 MSTORE PUSH1 0x20 ADD PUSH1 0x0 KECCAK256 SWAP1 POP PUSH1 0x2 PUSH1 0x4 DUP2 GT ISZERO PUSH2 0x1744 JUMPI INVALID JUMPDEST DUP2 PUSH1 0x0 ADD PUSH1 0x0 SWAP1 SLOAD SWAP1 PUSH2 0x100 EXP SWAP1 DIV PUSH1 0xFF AND PUSH1 0x4 DUP2 GT ISZERO PUSH2 0x1761 JUMPI INVALID JUMPDEST EQ PUSH2 0x17A1 JUMPI PUSH1 0x40 MLOAD PUSH32 0x8C379A000000000000000000000000000000000000000000000000000000000 DUP2 MSTORE PUSH1 0x4 ADD PUSH2 0x1798 SWAP1 PUSH2 0x41A5 JUMP JUMPDEST PUSH1 0x40 MLOAD DUP1 SWAP2 SUB SWAP1 REVERT JUMPDEST PUSH1 0x3 DUP2 PUSH1 0x0 ADD PUSH1 0x0 PUSH2 0x100 EXP DUP2 SLOAD DUP2 PUSH1 0xFF MUL NOT AND SWAP1 DUP4 PUSH1 0x4 DUP2 GT ISZERO PUSH2 0x17C2 JUMPI INVALID JUMPDEST MUL OR SWAP1 SSTORE POP PUSH1 0x0 DUP5 SWAP1 POP DUP1 PUSH20 0xFFFFFFFFFFFFFFFFFFFFFFFFFFFFFFFFFFFFFFFF AND PUSH4 0xE248CFF2 DUP8 DUP11 DUP11 PUSH1 0x40 MLOAD DUP5 PUSH4 0xFFFFFFFF AND PUSH1 0xE0 SHL DUP2 MSTORE PUSH1 0x4 ADD PUSH2 0x1809 SWAP4 SWAP3 SWAP2 SWAP1 PUSH2 0x3F15 JUMP JUMPDEST PUSH1 0x0 PUSH1 0x40 MLOAD DUP1 DUP4 SUB DUP2 PUSH1 0x0 DUP8 DUP1 EXTCODESIZE ISZERO DUP1 ISZERO PUSH2 0x1823 JUMPI PUSH1 0x0 DUP1 REVERT JUMPDEST POP GAS CALL ISZERO DUP1 ISZERO PUSH2 0x1837 JUMPI RETURNDATASIZE PUSH1 0x0 DUP1 RETURNDATACOPY RETURNDATASIZE PUSH1 0x0 REVERT JUMPDEST POP POP POP POP PUSH32 0x968626A768E76BA1363EFE44E322A6C4900C5F084E0B45F35E294DFDDAA9E0D5 DUP11 DUP11 PUSH1 0x3 DUP7 PUSH1 0x40 MLOAD PUSH2 0x1871 SWAP5 SWAP4 SWAP3 SWAP2 SWAP1 PUSH2 0x43DE JUMP JUMPDEST PUSH1 0x40 MLOAD DUP1 SWAP2 SUB SWAP1 LOG1 POP POP POP POP POP POP POP POP POP POP JUMP JUMPDEST PUSH2 0x188D PUSH2 0x29B4 JUMP JUMPDEST PUSH1 0x0 JUMPDEST DUP5 DUP5 SWAP1 POP DUP2 LT ISZERO PUSH2 0x1921 JUMPI DUP5 DUP5 DUP3 DUP2 DUP2 LT PUSH2 0x18A7 JUMPI INVALID JUMPDEST SWAP1 POP PUSH1 0x20 MUL ADD PUSH1 0x20 DUP2 ADD SWAP1 PUSH2 0x18BC SWAP2 SWAP1 PUSH2 0x2FC1 JUMP JUMPDEST PUSH20 0xFFFFFFFFFFFFFFFFFFFFFFFFFFFFFFFFFFFFFFFF AND PUSH2 0x8FC DUP5 DUP5 DUP5 DUP2 DUP2 LT PUSH2 0x18E1 JUMPI INVALID JUMPDEST SWAP1 POP PUSH1 0x20 MUL ADD CALLDATALOAD SWAP1 DUP2 ISZERO MUL SWAP1 PUSH1 0x40 MLOAD PUSH1 0x0 PUSH1 0x40 MLOAD DUP1 DUP4 SUB DUP2 DUP6 DUP9 DUP9 CALL SWAP4 POP POP POP POP ISZERO DUP1 ISZERO PUSH2 0x1913 JUMPI RETURNDATASIZE PUSH1 0x0 DUP1 RETURNDATACOPY RETURNDATASIZE PUSH1 0x0 REVERT JUMPDEST POP DUP1 DUP1 PUSH1 0x1 ADD SWAP2 POP POP PUSH2 0x1890 JUMP JUMPDEST POP POP POP POP POP JUMP JUMPDEST PUSH1 0x3 PUSH1 0x20 MSTORE DUP1 PUSH1 0x0 MSTORE PUSH1 0x40 PUSH1 0x0 KECCAK256 PUSH1 0x0 SWAP2 POP SLOAD SWAP1 PUSH2 0x100 EXP SWAP1 DIV PUSH8 0xFFFFFFFFFFFFFFFF AND DUP2 JUMP JUMPDEST PUSH2 0x1957 PUSH2 0x29B4 JUMP JUMPDEST PUSH2 0x1960 DUP2 PUSH2 0x24C6 JUMP JUMPDEST PUSH1 0x2 PUSH1 0x1 PUSH2 0x100 EXP DUP2 SLOAD DUP2 PUSH1 0xFF MUL NOT AND SWAP1 DUP4 PUSH1 0xFF AND MUL OR SWAP1 SSTORE POP PUSH32 0xA20D6B84CD798A24038BE305EFF8A45CA82EF54A2AA2082005D8E14C0A4746C8 DUP2 PUSH1 0x40 MLOAD PUSH2 0x19A9 SWAP2 SWAP1 PUSH2 0x433B JUMP JUMPDEST PUSH1 0x40 MLOAD DUP1 SWAP2 SUB SWAP1 LOG1 POP JUMP JUMPDEST PUSH1 0x0 PUSH1 0x1 PUSH1 0x0 DUP5 DUP2 MSTORE PUSH1 0x20 ADD SWAP1 DUP2 MSTORE PUSH1 0x20 ADD PUSH1 0x0 KECCAK256 PUSH1 0x0 ADD PUSH1 0x0 ADD PUSH1 0x1 ADD PUSH1 0x0 DUP4 PUSH20 0xFFFFFFFFFFFFFFFFFFFFFFFFFFFFFFFFFFFFFFFF AND PUSH1 0x0 SHL DUP2 MSTORE PUSH1 0x20 ADD SWAP1 DUP2 MSTORE PUSH1 0x20 ADD PUSH1 0x0 KECCAK256 SLOAD SWAP1 POP SWAP3 SWAP2 POP POP JUMP JUMPDEST PUSH1 0x0 PUSH2 0x1A31 PUSH32 0xE2B7FB3B832174769106DAEBCFD6D1970523240DDA11281102DB9363B83B0DC4 DUP4 PUSH2 0x1F51 JUMP JUMPDEST SWAP1 POP SWAP2 SWAP1 POP JUMP JUMPDEST PUSH2 0x1A40 PUSH2 0x29B4 JUMP JUMPDEST DUP6 PUSH1 0x4 PUSH1 0x0 DUP8 DUP2 MSTORE PUSH1 0x20 ADD SWAP1 DUP2 MSTORE PUSH1 0x20 ADD PUSH1 0x0 KECCAK256 PUSH1 0x0 PUSH2 0x100 EXP DUP2 SLOAD DUP2 PUSH20 0xFFFFFFFFFFFFFFFFFFFFFFFFFFFFFFFFFFFFFFFF MUL NOT AND SWAP1 DUP4 PUSH20 0xFFFFFFFFFFFFFFFFFFFFFFFFFFFFFFFFFFFFFFFF AND MUL OR SWAP1 SSTORE POP PUSH1 0x0 DUP7 SWAP1 POP DUP1 PUSH20 0xFFFFFFFFFFFFFFFFFFFFFFFFFFFFFFFFFFFFFFFF AND PUSH4 0xDE319D99 DUP8 DUP8 DUP8 DUP8 DUP8 PUSH1 0x40 MLOAD DUP7 PUSH4 0xFFFFFFFF AND PUSH1 0xE0 SHL DUP2 MSTORE PUSH1 0x4 ADD PUSH2 0x1AD8 SWAP6 SWAP5 SWAP4 SWAP3 SWAP2 SWAP1 PUSH2 0x3EC2 JUMP JUMPDEST PUSH1 0x0 PUSH1 0x40 MLOAD DUP1 DUP4 SUB DUP2 PUSH1 0x0 DUP8 DUP1 EXTCODESIZE ISZERO DUP1 ISZERO PUSH2 0x1AF2 JUMPI PUSH1 0x0 DUP1 REVERT JUMPDEST POP GAS CALL ISZERO DUP1 ISZERO PUSH2 0x1B06 JUMPI RETURNDATASIZE PUSH1 0x0 DUP1 RETURNDATACOPY RETURNDATASIZE PUSH1 0x0 REVERT JUMPDEST POP POP POP POP POP POP POP POP POP POP POP JUMP JUMPDEST PUSH1 0x0 DUP1 PUSH1 0x0 SWAP1 SLOAD SWAP1 PUSH2 0x100 EXP SWAP1 DIV PUSH1 0xFF AND SWAP1 POP SWAP1 JUMP JUMPDEST PUSH2 0x1B31 PUSH2 0x29B4 JUMP JUMPDEST DUP1 PUSH20 0xFFFFFFFFFFFFFFFFFFFFFFFFFFFFFFFFFFFFFFFF AND CALLER PUSH20 0xFFFFFFFFFFFFFFFFFFFFFFFFFFFFFFFFFFFFFFFF AND EQ ISZERO PUSH2 0x1BA0 JUMPI PUSH1 0x40 MLOAD PUSH32 0x8C379A000000000000000000000000000000000000000000000000000000000 DUP2 MSTORE PUSH1 0x4 ADD PUSH2 0x1B97 SWAP1 PUSH2 0x4225 JUMP JUMPDEST PUSH1 0x40 MLOAD DUP1 SWAP2 SUB SWAP1 REVERT JUMPDEST PUSH2 0x1BAD PUSH1 0x0 DUP1 SHL DUP3 PUSH2 0x1568 JUMP JUMPDEST PUSH2 0x1BBA PUSH1 0x0 DUP1 SHL CALLER PUSH2 0x15DC JUMP JUMPDEST POP JUMP JUMPDEST PUSH2 0x1BC5 PUSH2 0x29B4 JUMP JUMPDEST PUSH1 0x0 DUP5 SWAP1 POP DUP1 PUSH20 0xFFFFFFFFFFFFFFFFFFFFFFFFFFFFFFFFFFFFFFFF AND PUSH4 0xD9CAED12 DUP6 DUP6 DUP6 PUSH1 0x40 MLOAD DUP5 PUSH4 0xFFFFFFFF AND PUSH1 0xE0 SHL DUP2 MSTORE PUSH1 0x4 ADD PUSH2 0x1C07 SWAP4 SWAP3 SWAP2 SWAP1 PUSH2 0x3E2C JUMP JUMPDEST PUSH1 0x0 PUSH1 0x40 MLOAD DUP1 DUP4 SUB DUP2 PUSH1 0x0 DUP8 DUP1 EXTCODESIZE ISZERO DUP1 ISZERO PUSH2 0x1C21 JUMPI PUSH1 0x0 DUP1 REVERT JUMPDEST POP GAS CALL ISZERO DUP1 ISZERO PUSH2 0x1C35 JUMPI RETURNDATASIZE PUSH1 0x0 DUP1 RETURNDATACOPY RETURNDATASIZE PUSH1 0x0 REVERT JUMPDEST POP POP POP POP POP POP POP POP POP JUMP JUMPDEST PUSH1 0x0 PUSH2 0x1D68 PUSH1 0x5 PUSH1 0x0 DUP7 PUSH9 0xFFFFFFFFFFFFFFFFFF AND PUSH9 0xFFFFFFFFFFFFFFFFFF AND DUP2 MSTORE PUSH1 0x20 ADD SWAP1 DUP2 MSTORE PUSH1 0x20 ADD PUSH1 0x0 KECCAK256 PUSH1 0x0 DUP6 DUP2 MSTORE PUSH1 0x20 ADD SWAP1 DUP2 MSTORE PUSH1 0x20 ADD PUSH1 0x0 KECCAK256 PUSH1 0x40 MLOAD DUP1 PUSH1 0x80 ADD PUSH1 0x40 MSTORE SWAP1 DUP2 PUSH1 0x0 DUP3 ADD PUSH1 0x0 SWAP1 SLOAD SWAP1 PUSH2 0x100 EXP SWAP1 DIV PUSH1 0xFF AND PUSH1 0x4 DUP2 GT ISZERO PUSH2 0x1CA8 JUMPI INVALID JUMPDEST PUSH1 0x4 DUP2 GT ISZERO PUSH2 0x1CB3 JUMPI INVALID JUMPDEST DUP2 MSTORE PUSH1 0x20 ADD PUSH1 0x0 DUP3 ADD PUSH1 0x1 SWAP1 SLOAD SWAP1 PUSH2 0x100 EXP SWAP1 DIV PUSH25 0xFFFFFFFFFFFFFFFFFFFFFFFFFFFFFFFFFFFFFFFFFFFFFFFFFF AND PUSH25 0xFFFFFFFFFFFFFFFFFFFFFFFFFFFFFFFFFFFFFFFFFFFFFFFFFF AND PUSH25 0xFFFFFFFFFFFFFFFFFFFFFFFFFFFFFFFFFFFFFFFFFFFFFFFFFF AND DUP2 MSTORE PUSH1 0x20 ADD PUSH1 0x0 DUP3 ADD PUSH1 0x1A SWAP1 SLOAD SWAP1 PUSH2 0x100 EXP SWAP1 DIV PUSH1 0xFF AND PUSH1 0xFF AND PUSH1 0xFF AND DUP2 MSTORE PUSH1 0x20 ADD PUSH1 0x0 DUP3 ADD PUSH1 0x1B SWAP1 SLOAD SWAP1 PUSH2 0x100 EXP SWAP1 DIV PUSH5 0xFFFFFFFFFF AND PUSH5 0xFFFFFFFFFF AND PUSH5 0xFFFFFFFFFF AND DUP2 MSTORE POP POP DUP4 PUSH2 0x27A7 JUMP JUMPDEST SWAP1 POP SWAP4 SWAP3 POP POP POP JUMP JUMPDEST PUSH1 0x0 PUSH2 0x1D9C PUSH32 0xE2B7FB3B832174769106DAEBCFD6D1970523240DDA11281102DB9363B83B0DC4 PUSH2 0x221C JUMP JUMPDEST SWAP1 POP SWAP1 JUMP JUMPDEST PUSH2 0x1DA9 PUSH2 0x29B4 JUMP JUMPDEST PUSH2 0x1DB1 PUSH2 0x2A02 JUMP JUMPDEST JUMP JUMPDEST PUSH1 0x4 PUSH1 0x20 MSTORE DUP1 PUSH1 0x0 MSTORE PUSH1 0x40 PUSH1 0x0 KECCAK256 PUSH1 0x0 SWAP2 POP SLOAD SWAP1 PUSH2 0x100 EXP SWAP1 DIV PUSH20 0xFFFFFFFFFFFFFFFFFFFFFFFFFFFFFFFFFFFFFFFF AND DUP2 JUMP JUMPDEST PUSH2 0x1DEE PUSH2 0x29B4 JUMP JUMPDEST PUSH1 0x0 DUP3 SWAP1 POP DUP1 PUSH20 0xFFFFFFFFFFFFFFFFFFFFFFFFFFFFFFFFFFFFFFFF AND PUSH4 0x7B7ED99 DUP4 PUSH1 0x40 MLOAD DUP3 PUSH4 0xFFFFFFFF AND PUSH1 0xE0 SHL DUP2 MSTORE PUSH1 0x4 ADD PUSH2 0x1E2C SWAP2 SWAP1 PUSH2 0x3DF6 JUMP JUMPDEST PUSH1 0x0 PUSH1 0x40 MLOAD DUP1 DUP4 SUB DUP2 PUSH1 0x0 DUP8 DUP1 EXTCODESIZE ISZERO DUP1 ISZERO PUSH2 0x1E46 JUMPI PUSH1 0x0 DUP1 REVERT JUMPDEST POP GAS CALL ISZERO DUP1 ISZERO PUSH2 0x1E5A JUMPI RETURNDATASIZE PUSH1 0x0 DUP1 RETURNDATACOPY RETURNDATASIZE PUSH1 0x0 REVERT JUMPDEST POP POP POP POP POP POP POP JUMP JUMPDEST PUSH1 0x0 PUSH2 0x1E8D DUP3 PUSH1 0x1 PUSH1 0x0 DUP7 DUP2 MSTORE PUSH1 0x20 ADD SWAP1 DUP2 MSTORE PUSH1 0x20 ADD PUSH1 0x0 KECCAK256 PUSH1 0x0 ADD PUSH2 0x2A5D SWAP1 SWAP2 SWAP1 PUSH4 0xFFFFFFFF AND JUMP JUMPDEST SWAP1 POP SWAP3 SWAP2 POP POP JUMP JUMPDEST PUSH2 0x1E9D PUSH2 0x29B4 JUMP JUMPDEST DUP1 PUSH1 0x2 DUP1 SLOAD SWAP1 PUSH2 0x100 EXP SWAP1 DIV PUSH16 0xFFFFFFFFFFFFFFFFFFFFFFFFFFFFFFFF AND PUSH16 0xFFFFFFFFFFFFFFFFFFFFFFFFFFFFFFFF AND EQ ISZERO PUSH2 0x1F0E JUMPI PUSH1 0x40 MLOAD PUSH32 0x8C379A000000000000000000000000000000000000000000000000000000000 DUP2 MSTORE PUSH1 0x4 ADD PUSH2 0x1F05 SWAP1 PUSH2 0x42A5 JUMP JUMPDEST PUSH1 0x40 MLOAD DUP1 SWAP2 SUB SWAP1 REVERT JUMPDEST PUSH2 0x1F17 DUP2 PUSH2 0x2514 JUMP JUMPDEST PUSH1 0x2 DUP1 PUSH2 0x100 EXP DUP2 SLOAD DUP2 PUSH16 0xFFFFFFFFFFFFFFFFFFFFFFFFFFFFFFFF MUL NOT AND SWAP1 DUP4 PUSH16 0xFFFFFFFFFFFFFFFFFFFFFFFFFFFFFFFF AND MUL OR SWAP1 SSTORE POP POP JUMP JUMPDEST PUSH1 0x0 PUSH2 0x1F7B DUP3 PUSH1 0x1 PUSH1 0x0 DUP7 DUP2 MSTORE PUSH1 0x20 ADD SWAP1 DUP2 MSTORE PUSH1 0x20 ADD PUSH1 0x0 KECCAK256 PUSH1 0x0 ADD PUSH2 0x25F3 SWAP1 SWAP2 SWAP1 PUSH4 0xFFFFFFFF AND JUMP JUMPDEST SWAP1 POP SWAP3 SWAP2 POP POP JUMP JUMPDEST PUSH32 0xE2B7FB3B832174769106DAEBCFD6D1970523240DDA11281102DB9363B83B0DC4 DUP2 JUMP JUMPDEST PUSH2 0x1FD1 PUSH32 0xE2B7FB3B832174769106DAEBCFD6D1970523240DDA11281102DB9363B83B0DC4 DUP3 PUSH2 0x1F51 JUMP JUMPDEST PUSH2 0x2010 JUMPI PUSH1 0x40 MLOAD PUSH32 0x8C379A000000000000000000000000000000000000000000000000000000000 DUP2 MSTORE PUSH1 0x4 ADD PUSH2 0x2007 SWAP1 PUSH2 0x4065 JUMP JUMPDEST PUSH1 0x40 MLOAD DUP1 SWAP2 SUB SWAP1 REVERT JUMPDEST PUSH2 0x203A PUSH32 0xE2B7FB3B832174769106DAEBCFD6D1970523240DDA11281102DB9363B83B0DC4 DUP3 PUSH2 0x242D JUMP JUMPDEST PUSH32 0x10E1F7CE9FD7D1B90A66D13A2AB3CB8DD7F29F3F8D520B143B063CCFBAB6906B DUP2 PUSH1 0x40 MLOAD PUSH2 0x2069 SWAP2 SWAP1 PUSH2 0x3DF6 JUMP JUMPDEST PUSH1 0x40 MLOAD DUP1 SWAP2 SUB SWAP1 LOG1 POP JUMP JUMPDEST PUSH1 0xC8 DUP2 JUMP JUMPDEST PUSH1 0x0 DUP1 SHL DUP2 JUMP JUMPDEST PUSH2 0x2088 PUSH2 0x2DBA JUMP JUMPDEST PUSH1 0x0 DUP5 PUSH1 0xFF AND PUSH1 0x8 DUP6 PUSH8 0xFFFFFFFFFFFFFFFF AND PUSH9 0xFFFFFFFFFFFFFFFFFF AND SWAP1 SHL OR SWAP1 POP PUSH1 0x5 PUSH1 0x0 DUP3 PUSH9 0xFFFFFFFFFFFFFFFFFF AND PUSH9 0xFFFFFFFFFFFFFFFFFF AND DUP2 MSTORE PUSH1 0x20 ADD SWAP1 DUP2 MSTORE PUSH1 0x20 ADD PUSH1 0x0 KECCAK256 PUSH1 0x0 DUP5 DUP2 MSTORE PUSH1 0x20 ADD SWAP1 DUP2 MSTORE PUSH1 0x20 ADD PUSH1 0x0 KECCAK256 PUSH1 0x40 MLOAD DUP1 PUSH1 0x80 ADD PUSH1 0x40 MSTORE SWAP1 DUP2 PUSH1 0x0 DUP3 ADD PUSH1 0x0 SWAP1 SLOAD SWAP1 PUSH2 0x100 EXP SWAP1 DIV PUSH1 0xFF AND PUSH1 0x4 DUP2 GT ISZERO PUSH2 0x210E JUMPI INVALID JUMPDEST PUSH1 0x4 DUP2 GT ISZERO PUSH2 0x2119 JUMPI INVALID JUMPDEST DUP2 MSTORE PUSH1 0x20 ADD PUSH1 0x0 DUP3 ADD PUSH1 0x1 SWAP1 SLOAD SWAP1 PUSH2 0x100 EXP SWAP1 DIV PUSH25 0xFFFFFFFFFFFFFFFFFFFFFFFFFFFFFFFFFFFFFFFFFFFFFFFFFF AND PUSH25 0xFFFFFFFFFFFFFFFFFFFFFFFFFFFFFFFFFFFFFFFFFFFFFFFFFF AND PUSH25 0xFFFFFFFFFFFFFFFFFFFFFFFFFFFFFFFFFFFFFFFFFFFFFFFFFF AND DUP2 MSTORE PUSH1 0x20 ADD PUSH1 0x0 DUP3 ADD PUSH1 0x1A SWAP1 SLOAD SWAP1 PUSH2 0x100 EXP SWAP1 DIV PUSH1 0xFF AND PUSH1 0xFF AND PUSH1 0xFF AND DUP2 MSTORE PUSH1 0x20 ADD PUSH1 0x0 DUP3 ADD PUSH1 0x1B SWAP1 SLOAD SWAP1 PUSH2 0x100 EXP SWAP1 DIV PUSH5 0xFFFFFFFFFF AND PUSH5 0xFFFFFFFFFF AND PUSH5 0xFFFFFFFFFF AND DUP2 MSTORE POP POP SWAP2 POP POP SWAP4 SWAP3 POP POP POP JUMP JUMPDEST PUSH1 0x2 PUSH1 0x0 SWAP1 SLOAD SWAP1 PUSH2 0x100 EXP SWAP1 DIV PUSH1 0xFF AND DUP2 JUMP JUMPDEST PUSH1 0x2 DUP1 SLOAD SWAP1 PUSH2 0x100 EXP SWAP1 DIV PUSH16 0xFFFFFFFFFFFFFFFFFFFFFFFFFFFFFFFF AND DUP2 JUMP JUMPDEST PUSH1 0x2 PUSH1 0x12 SWAP1 SLOAD SWAP1 PUSH2 0x100 EXP SWAP1 DIV PUSH5 0xFFFFFFFFFF AND DUP2 JUMP JUMPDEST PUSH1 0x0 PUSH2 0x223C PUSH1 0x1 PUSH1 0x0 DUP5 DUP2 MSTORE PUSH1 0x20 ADD SWAP1 DUP2 MSTORE PUSH1 0x20 ADD PUSH1 0x0 KECCAK256 PUSH1 0x0 ADD PUSH2 0x2A77 JUMP JUMPDEST SWAP1 POP SWAP2 SWAP1 POP JUMP JUMPDEST PUSH2 0x224B PUSH2 0x29B4 JUMP JUMPDEST DUP3 PUSH1 0x4 PUSH1 0x0 DUP5 DUP2 MSTORE PUSH1 0x20 ADD SWAP1 DUP2 MSTORE PUSH1 0x20 ADD PUSH1 0x0 KECCAK256 PUSH1 0x0 PUSH2 0x100 EXP DUP2 SLOAD DUP2 PUSH20 0xFFFFFFFFFFFFFFFFFFFFFFFFFFFFFFFFFFFFFFFF MUL NOT AND SWAP1 DUP4 PUSH20 0xFFFFFFFFFFFFFFFFFFFFFFFFFFFFFFFFFFFFFFFF AND MUL OR SWAP1 SSTORE POP PUSH1 0x0 DUP4 SWAP1 POP DUP1 PUSH20 0xFFFFFFFFFFFFFFFFFFFFFFFFFFFFFFFFFFFFFFFF AND PUSH4 0xB8FA3736 DUP5 DUP5 PUSH1 0x40 MLOAD DUP4 PUSH4 0xFFFFFFFF AND PUSH1 0xE0 SHL DUP2 MSTORE PUSH1 0x4 ADD PUSH2 0x22DD SWAP3 SWAP2 SWAP1 PUSH2 0x3E99 JUMP JUMPDEST PUSH1 0x0 PUSH1 0x40 MLOAD DUP1 DUP4 SUB DUP2 PUSH1 0x0 DUP8 DUP1 EXTCODESIZE ISZERO DUP1 ISZERO PUSH2 0x22F7 JUMPI PUSH1 0x0 DUP1 REVERT JUMPDEST POP GAS CALL ISZERO DUP1 ISZERO PUSH2 0x230B JUMPI RETURNDATASIZE PUSH1 0x0 DUP1 RETURNDATACOPY RETURNDATASIZE PUSH1 0x0 REVERT JUMPDEST POP POP POP POP POP POP POP POP JUMP JUMPDEST PUSH2 0x233F PUSH32 0xE2B7FB3B832174769106DAEBCFD6D1970523240DDA11281102DB9363B83B0DC4 DUP3 PUSH2 0x1F51 JUMP JUMPDEST ISZERO PUSH2 0x237F JUMPI PUSH1 0x40 MLOAD PUSH32 0x8C379A000000000000000000000000000000000000000000000000000000000 DUP2 MSTORE PUSH1 0x4 ADD PUSH2 0x2376 SWAP1 PUSH2 0x4205 JUMP JUMPDEST PUSH1 0x40 MLOAD DUP1 SWAP2 SUB SWAP1 REVERT JUMPDEST PUSH1 0xC8 PUSH2 0x2389 PUSH2 0x1D71 JUMP JUMPDEST LT PUSH2 0x23C9 JUMPI PUSH1 0x40 MLOAD PUSH32 0x8C379A000000000000000000000000000000000000000000000000000000000 DUP2 MSTORE PUSH1 0x4 ADD PUSH2 0x23C0 SWAP1 PUSH2 0x40C5 JUMP JUMPDEST PUSH1 0x40 MLOAD DUP1 SWAP2 SUB SWAP1 REVERT JUMPDEST PUSH2 0x23F3 PUSH32 0xE2B7FB3B832174769106DAEBCFD6D1970523240DDA11281102DB9363B83B0DC4 DUP3 PUSH2 0x1568 JUMP JUMPDEST PUSH32 0x3580EE9F53A62B7CB409A2CB56F9BE87747DD15017AFC5CEF6EEF321E4FB2C5 DUP2 PUSH1 0x40 MLOAD PUSH2 0x2422 SWAP2 SWAP1 PUSH2 0x3DF6 JUMP JUMPDEST PUSH1 0x40 MLOAD DUP1 SWAP2 SUB SWAP1 LOG1 POP JUMP JUMPDEST PUSH2 0x2454 PUSH1 0x1 PUSH1 0x0 DUP5 DUP2 MSTORE PUSH1 0x20 ADD SWAP1 DUP2 MSTORE PUSH1 0x20 ADD PUSH1 0x0 KECCAK256 PUSH1 0x2 ADD SLOAD PUSH2 0x244F PUSH2 0x2884 JUMP JUMPDEST PUSH2 0x1F51 JUMP JUMPDEST PUSH2 0x2493 JUMPI PUSH1 0x40 MLOAD PUSH32 0x8C379A000000000000000000000000000000000000000000000000000000000 DUP2 MSTORE PUSH1 0x4 ADD PUSH2 0x248A SWAP1 PUSH2 0x4185 JUMP JUMPDEST PUSH1 0x40 MLOAD DUP1 SWAP2 SUB SWAP1 REVERT JUMPDEST PUSH2 0x249D DUP3 DUP3 PUSH2 0x2920 JUMP JUMPDEST POP POP JUMP JUMPDEST PUSH1 0x2 PUSH1 0x1 SWAP1 SLOAD SWAP1 PUSH2 0x100 EXP SWAP1 DIV PUSH1 0xFF AND DUP2 JUMP JUMPDEST PUSH2 0x24BC PUSH2 0x29B4 JUMP JUMPDEST PUSH2 0x24C4 PUSH2 0x2A8C JUMP JUMPDEST JUMP JUMPDEST PUSH1 0x0 PUSH2 0x100 DUP3 LT PUSH2 0x250C JUMPI PUSH1 0x40 MLOAD PUSH32 0x8C379A000000000000000000000000000000000000000000000000000000000 DUP2 MSTORE PUSH1 0x4 ADD PUSH2 0x2503 SWAP1 PUSH2 0x4125 JUMP JUMPDEST PUSH1 0x40 MLOAD DUP1 SWAP2 SUB SWAP1 REVERT JUMPDEST DUP2 SWAP1 POP SWAP2 SWAP1 POP JUMP JUMPDEST PUSH1 0x0 PUSH17 0x100000000000000000000000000000000 DUP3 LT PUSH2 0x2569 JUMPI PUSH1 0x40 MLOAD PUSH32 0x8C379A000000000000000000000000000000000000000000000000000000000 DUP2 MSTORE PUSH1 0x4 ADD PUSH2 0x2560 SWAP1 PUSH2 0x4085 JUMP JUMPDEST PUSH1 0x40 MLOAD DUP1 SWAP2 SUB SWAP1 REVERT JUMPDEST DUP2 SWAP1 POP SWAP2 SWAP1 POP JUMP JUMPDEST PUSH1 0x0 PUSH6 0x10000000000 DUP3 LT PUSH2 0x25BB JUMPI PUSH1 0x40 MLOAD PUSH32 0x8C379A000000000000000000000000000000000000000000000000000000000 DUP2 MSTORE PUSH1 0x4 ADD PUSH2 0x25B2 SWAP1 PUSH2 0x40A5 JUMP JUMPDEST PUSH1 0x40 MLOAD DUP1 SWAP2 SUB SWAP1 REVERT JUMPDEST DUP2 SWAP1 POP SWAP2 SWAP1 POP JUMP JUMPDEST PUSH1 0x0 PUSH2 0x25EB DUP4 PUSH1 0x0 ADD DUP4 PUSH20 0xFFFFFFFFFFFFFFFFFFFFFFFFFFFFFFFFFFFFFFFF AND PUSH1 0x0 SHL PUSH2 0x2AE7 JUMP JUMPDEST SWAP1 POP SWAP3 SWAP2 POP POP JUMP JUMPDEST PUSH1 0x0 PUSH2 0x261B DUP4 PUSH1 0x0 ADD DUP4 PUSH20 0xFFFFFFFFFFFFFFFFFFFFFFFFFFFFFFFFFFFFFFFF AND PUSH1 0x0 SHL PUSH2 0x2B57 JUMP JUMPDEST SWAP1 POP SWAP3 SWAP2 POP POP JUMP JUMPDEST PUSH1 0x0 DUP1 SLOAD SWAP1 PUSH2 0x100 EXP SWAP1 DIV PUSH1 0xFF AND ISZERO PUSH2 0x2671 JUMPI PUSH1 0x40 MLOAD PUSH32 0x8C379A000000000000000000000000000000000000000000000000000000000 DUP2 MSTORE PUSH1 0x4 ADD PUSH2 0x2668 SWAP1 PUSH2 0x41E5 JUMP JUMPDEST PUSH1 0x40 MLOAD DUP1 SWAP2 SUB SWAP1 REVERT JUMPDEST JUMP JUMPDEST PUSH2 0x2680 PUSH1 0x0 DUP1 SHL CALLER PUSH2 0x1F51 JUMP JUMPDEST DUP1 PUSH2 0x26B1 JUMPI POP PUSH2 0x26B0 PUSH32 0xE2B7FB3B832174769106DAEBCFD6D1970523240DDA11281102DB9363B83B0DC4 CALLER PUSH2 0x1F51 JUMP JUMPDEST JUMPDEST PUSH2 0x26F0 JUMPI PUSH1 0x40 MLOAD PUSH32 0x8C379A000000000000000000000000000000000000000000000000000000000 DUP2 MSTORE PUSH1 0x4 ADD PUSH2 0x26E7 SWAP1 PUSH2 0x3FE5 JUMP JUMPDEST PUSH1 0x40 MLOAD DUP1 SWAP2 SUB SWAP1 REVERT JUMPDEST JUMP JUMPDEST PUSH1 0x0 PUSH2 0x2734 DUP4 DUP4 PUSH1 0x40 MLOAD DUP1 PUSH1 0x40 ADD PUSH1 0x40 MSTORE DUP1 PUSH1 0x1E DUP2 MSTORE PUSH1 0x20 ADD PUSH32 0x536166654D6174683A207375627472616374696F6E206F766572666C6F770000 DUP2 MSTORE POP PUSH2 0x2B7A JUMP JUMPDEST SWAP1 POP SWAP3 SWAP2 POP POP JUMP JUMPDEST PUSH2 0x2766 PUSH32 0xE2B7FB3B832174769106DAEBCFD6D1970523240DDA11281102DB9363B83B0DC4 CALLER PUSH2 0x1F51 JUMP JUMPDEST PUSH2 0x27A5 JUMPI PUSH1 0x40 MLOAD PUSH32 0x8C379A000000000000000000000000000000000000000000000000000000000 DUP2 MSTORE PUSH1 0x4 ADD PUSH2 0x279C SWAP1 PUSH2 0x4265 JUMP JUMPDEST PUSH1 0x40 MLOAD DUP1 SWAP2 SUB SWAP1 REVERT JUMPDEST JUMP JUMPDEST PUSH1 0x0 DUP1 DUP4 PUSH1 0x20 ADD MLOAD PUSH25 0xFFFFFFFFFFFFFFFFFFFFFFFFFFFFFFFFFFFFFFFFFFFFFFFFFF AND PUSH2 0x27D3 DUP5 PUSH2 0x27DD JUMP JUMPDEST AND GT SWAP1 POP SWAP3 SWAP2 POP POP JUMP JUMPDEST PUSH1 0x0 PUSH2 0x2813 PUSH2 0x280C PUSH32 0xE2B7FB3B832174769106DAEBCFD6D1970523240DDA11281102DB9363B83B0DC4 DUP5 PUSH2 0x19B4 JUMP JUMPDEST PUSH1 0x1 PUSH2 0x26F2 JUMP JUMPDEST PUSH1 0x1 SWAP1 SHL SWAP1 POP SWAP2 SWAP1 POP JUMP JUMPDEST PUSH1 0x0 PUSH26 0x100000000000000000000000000000000000000000000000000 DUP3 LT PUSH2 0x287C JUMPI PUSH1 0x40 MLOAD PUSH32 0x8C379A000000000000000000000000000000000000000000000000000000000 DUP2 MSTORE PUSH1 0x4 ADD PUSH2 0x2873 SWAP1 PUSH2 0x4165 JUMP JUMPDEST PUSH1 0x40 MLOAD DUP1 SWAP2 SUB SWAP1 REVERT JUMPDEST DUP2 SWAP1 POP SWAP2 SWAP1 POP JUMP JUMPDEST PUSH1 0x0 CALLER SWAP1 POP SWAP1 JUMP JUMPDEST PUSH2 0x28B4 DUP2 PUSH1 0x1 PUSH1 0x0 DUP6 DUP2 MSTORE PUSH1 0x20 ADD SWAP1 DUP2 MSTORE PUSH1 0x20 ADD PUSH1 0x0 KECCAK256 PUSH1 0x0 ADD PUSH2 0x25C3 SWAP1 SWAP2 SWAP1 PUSH4 0xFFFFFFFF AND JUMP JUMPDEST ISZERO PUSH2 0x291C JUMPI PUSH2 0x28C1 PUSH2 0x2884 JUMP JUMPDEST PUSH20 0xFFFFFFFFFFFFFFFFFFFFFFFFFFFFFFFFFFFFFFFF AND DUP2 PUSH20 0xFFFFFFFFFFFFFFFFFFFFFFFFFFFFFFFFFFFFFFFF AND DUP4 PUSH32 0x2F8788117E7EFF1D82E926EC794901D17C78024A50270940304540A733656F0D PUSH1 0x40 MLOAD PUSH1 0x40 MLOAD DUP1 SWAP2 SUB SWAP1 LOG4 JUMPDEST POP POP JUMP JUMPDEST PUSH2 0x2948 DUP2 PUSH1 0x1 PUSH1 0x0 DUP6 DUP2 MSTORE PUSH1 0x20 ADD SWAP1 DUP2 MSTORE PUSH1 0x20 ADD PUSH1 0x0 KECCAK256 PUSH1 0x0 ADD PUSH2 0x2BD5 SWAP1 SWAP2 SWAP1 PUSH4 0xFFFFFFFF AND JUMP JUMPDEST ISZERO PUSH2 0x29B0 JUMPI PUSH2 0x2955 PUSH2 0x2884 JUMP JUMPDEST PUSH20 0xFFFFFFFFFFFFFFFFFFFFFFFFFFFFFFFFFFFFFFFF AND DUP2 PUSH20 0xFFFFFFFFFFFFFFFFFFFFFFFFFFFFFFFFFFFFFFFF AND DUP4 PUSH32 0xF6391F5C32D9C69D2A47EA670B442974B53935D1EDC7FD64EB21E047A839171B PUSH1 0x40 MLOAD PUSH1 0x40 MLOAD DUP1 SWAP2 SUB SWAP1 LOG4 JUMPDEST POP POP JUMP JUMPDEST PUSH2 0x29C1 PUSH1 0x0 DUP1 SHL CALLER PUSH2 0x1F51 JUMP JUMPDEST PUSH2 0x2A00 JUMPI PUSH1 0x40 MLOAD PUSH32 0x8C379A000000000000000000000000000000000000000000000000000000000 DUP2 MSTORE PUSH1 0x4 ADD PUSH2 0x29F7 SWAP1 PUSH2 0x4285 JUMP JUMPDEST PUSH1 0x40 MLOAD DUP1 SWAP2 SUB SWAP1 REVERT JUMPDEST JUMP JUMPDEST PUSH2 0x2A0A PUSH2 0x2623 JUMP JUMPDEST PUSH1 0x1 PUSH1 0x0 DUP1 PUSH2 0x100 EXP DUP2 SLOAD DUP2 PUSH1 0xFF MUL NOT AND SWAP1 DUP4 ISZERO ISZERO MUL OR SWAP1 SSTORE POP PUSH32 0x62E78CEA01BEE320CD4E420270B5EA74000D11B0C9F74754EBDBFC544B05A258 CALLER PUSH1 0x40 MLOAD PUSH2 0x2A53 SWAP2 SWAP1 PUSH2 0x3E11 JUMP JUMPDEST PUSH1 0x40 MLOAD DUP1 SWAP2 SUB SWAP1 LOG1 JUMP JUMPDEST PUSH1 0x0 PUSH2 0x2A6C DUP4 PUSH1 0x0 ADD DUP4 PUSH2 0x2C05 JUMP JUMPDEST PUSH1 0x0 SHR SWAP1 POP SWAP3 SWAP2 POP POP JUMP JUMPDEST PUSH1 0x0 PUSH2 0x2A85 DUP3 PUSH1 0x0 ADD PUSH2 0x2C72 JUMP JUMPDEST SWAP1 POP SWAP2 SWAP1 POP JUMP JUMPDEST PUSH2 0x2A94 PUSH2 0x2C83 JUMP JUMPDEST PUSH1 0x0 DUP1 PUSH1 0x0 PUSH2 0x100 EXP DUP2 SLOAD DUP2 PUSH1 0xFF MUL NOT AND SWAP1 DUP4 ISZERO ISZERO MUL OR SWAP1 SSTORE POP PUSH32 0x5DB9EE0A495BF2E6FF9C91A7834C1BA4FDD244A5E8AA4E537BD38AEAE4B073AA CALLER PUSH1 0x40 MLOAD PUSH2 0x2ADD SWAP2 SWAP1 PUSH2 0x3E11 JUMP JUMPDEST PUSH1 0x40 MLOAD DUP1 SWAP2 SUB SWAP1 LOG1 JUMP JUMPDEST PUSH1 0x0 PUSH2 0x2AF3 DUP4 DUP4 PUSH2 0x2B57 JUMP JUMPDEST PUSH2 0x2B4C JUMPI DUP3 PUSH1 0x0 ADD DUP3 SWAP1 DUP1 PUSH1 0x1 DUP2 SLOAD ADD DUP1 DUP3 SSTORE DUP1 SWAP2 POP POP PUSH1 0x1 SWAP1 SUB SWAP1 PUSH1 0x0 MSTORE PUSH1 0x20 PUSH1 0x0 KECCAK256 ADD PUSH1 0x0 SWAP1 SWAP2 SWAP1 SWAP2 SWAP1 SWAP2 POP SSTORE DUP3 PUSH1 0x0 ADD DUP1 SLOAD SWAP1 POP DUP4 PUSH1 0x1 ADD PUSH1 0x0 DUP5 DUP2 MSTORE PUSH1 0x20 ADD SWAP1 DUP2 MSTORE PUSH1 0x20 ADD PUSH1 0x0 KECCAK256 DUP2 SWAP1 SSTORE POP PUSH1 0x1 SWAP1 POP PUSH2 0x2B51 JUMP JUMPDEST PUSH1 0x0 SWAP1 POP JUMPDEST SWAP3 SWAP2 POP POP JUMP JUMPDEST PUSH1 0x0 DUP1 DUP4 PUSH1 0x1 ADD PUSH1 0x0 DUP5 DUP2 MSTORE PUSH1 0x20 ADD SWAP1 DUP2 MSTORE PUSH1 0x20 ADD PUSH1 0x0 KECCAK256 SLOAD EQ ISZERO SWAP1 POP SWAP3 SWAP2 POP POP JUMP JUMPDEST PUSH1 0x0 DUP4 DUP4 GT ISZERO DUP3 SWAP1 PUSH2 0x2BC2 JUMPI PUSH1 0x40 MLOAD PUSH32 0x8C379A000000000000000000000000000000000000000000000000000000000 DUP2 MSTORE PUSH1 0x4 ADD PUSH2 0x2BB9 SWAP2 SWAP1 PUSH2 0x3FA3 JUMP JUMPDEST PUSH1 0x40 MLOAD DUP1 SWAP2 SUB SWAP1 REVERT JUMPDEST POP PUSH1 0x0 DUP4 DUP6 SUB SWAP1 POP DUP1 SWAP2 POP POP SWAP4 SWAP3 POP POP POP JUMP JUMPDEST PUSH1 0x0 PUSH2 0x2BFD DUP4 PUSH1 0x0 ADD DUP4 PUSH20 0xFFFFFFFFFFFFFFFFFFFFFFFFFFFFFFFFFFFFFFFF AND PUSH1 0x0 SHL PUSH2 0x2CD2 JUMP JUMPDEST SWAP1 POP SWAP3 SWAP2 POP POP JUMP JUMPDEST PUSH1 0x0 DUP2 DUP4 PUSH1 0x0 ADD DUP1 SLOAD SWAP1 POP GT PUSH2 0x2C50 JUMPI PUSH1 0x40 MLOAD PUSH32 0x8C379A000000000000000000000000000000000000000000000000000000000 DUP2 MSTORE PUSH1 0x4 ADD PUSH2 0x2C47 SWAP1 PUSH2 0x3FC5 JUMP JUMPDEST PUSH1 0x40 MLOAD DUP1 SWAP2 SUB SWAP1 REVERT JUMPDEST DUP3 PUSH1 0x0 ADD DUP3 DUP2 SLOAD DUP2 LT PUSH2 0x2C5F JUMPI INVALID JUMPDEST SWAP1 PUSH1 0x0 MSTORE PUSH1 0x20 PUSH1 0x0 KECCAK256 ADD SLOAD SWAP1 POP SWAP3 SWAP2 POP POP JUMP JUMPDEST PUSH1 0x0 DUP2 PUSH1 0x0 ADD DUP1 SLOAD SWAP1 POP SWAP1 POP SWAP2 SWAP1 POP JUMP JUMPDEST PUSH1 0x0 DUP1 SLOAD SWAP1 PUSH2 0x100 EXP SWAP1 DIV PUSH1 0xFF AND PUSH2 0x2CD0 JUMPI PUSH1 0x40 MLOAD PUSH32 0x8C379A000000000000000000000000000000000000000000000000000000000 DUP2 MSTORE PUSH1 0x4 ADD PUSH2 0x2CC7 SWAP1 PUSH2 0x4045 JUMP JUMPDEST PUSH1 0x40 MLOAD DUP1 SWAP2 SUB SWAP1 REVERT JUMPDEST JUMP JUMPDEST PUSH1 0x0 DUP1 DUP4 PUSH1 0x1 ADD PUSH1 0x0 DUP5 DUP2 MSTORE PUSH1 0x20 ADD SWAP1 DUP2 MSTORE PUSH1 0x20 ADD PUSH1 0x0 KECCAK256 SLOAD SWAP1 POP PUSH1 0x0 DUP2 EQ PUSH2 0x2DAE JUMPI PUSH1 0x0 PUSH1 0x1 DUP3 SUB SWAP1 POP PUSH1 0x0 PUSH1 0x1 DUP7 PUSH1 0x0 ADD DUP1 SLOAD SWAP1 POP SUB SWAP1 POP PUSH1 0x0 DUP7 PUSH1 0x0 ADD DUP3 DUP2 SLOAD DUP2 LT PUSH2 0x2D1D JUMPI INVALID JUMPDEST SWAP1 PUSH1 0x0 MSTORE PUSH1 0x20 PUSH1 0x0 KECCAK256 ADD SLOAD SWAP1 POP DUP1 DUP8 PUSH1 0x0 ADD DUP5 DUP2 SLOAD DUP2 LT PUSH2 0x2D3A JUMPI INVALID JUMPDEST SWAP1 PUSH1 0x0 MSTORE PUSH1 0x20 PUSH1 0x0 KECCAK256 ADD DUP2 SWAP1 SSTORE POP PUSH1 0x1 DUP4 ADD DUP8 PUSH1 0x1 ADD PUSH1 0x0 DUP4 DUP2 MSTORE PUSH1 0x20 ADD SWAP1 DUP2 MSTORE PUSH1 0x20 ADD PUSH1 0x0 KECCAK256 DUP2 SWAP1 SSTORE POP DUP7 PUSH1 0x0 ADD DUP1 SLOAD DUP1 PUSH2 0x2D72 JUMPI INVALID JUMPDEST PUSH1 0x1 SWAP1 SUB DUP2 DUP2 SWAP1 PUSH1 0x0 MSTORE PUSH1 0x20 PUSH1 0x0 KECCAK256 ADD PUSH1 0x0 SWAP1 SSTORE SWAP1 SSTORE DUP7 PUSH1 0x1 ADD PUSH1 0x0 DUP8 DUP2 MSTORE PUSH1 0x20 ADD SWAP1 DUP2 MSTORE PUSH1 0x20 ADD PUSH1 0x0 KECCAK256 PUSH1 0x0 SWAP1 SSTORE PUSH1 0x1 SWAP5 POP POP POP POP POP PUSH2 0x2DB4 JUMP JUMPDEST PUSH1 0x0 SWAP2 POP POP JUMPDEST SWAP3 SWAP2 POP POP JUMP JUMPDEST PUSH1 0x40 MLOAD DUP1 PUSH1 0x80 ADD PUSH1 0x40 MSTORE DUP1 PUSH1 0x0 PUSH1 0x4 DUP2 GT ISZERO PUSH2 0x2DD2 JUMPI INVALID JUMPDEST DUP2 MSTORE PUSH1 0x20 ADD PUSH1 0x0 PUSH25 0xFFFFFFFFFFFFFFFFFFFFFFFFFFFFFFFFFFFFFFFFFFFFFFFFFF AND DUP2 MSTORE PUSH1 0x20 ADD PUSH1 0x0 PUSH1 0xFF AND DUP2 MSTORE PUSH1 0x20 ADD PUSH1 0x0 PUSH5 0xFFFFFFFFFF AND DUP2 MSTORE POP SWAP1 JUMP JUMPDEST PUSH1 0x0 DUP2 CALLDATALOAD SWAP1 POP PUSH2 0x2E21 DUP2 PUSH2 0x465F JUMP JUMPDEST SWAP3 SWAP2 POP POP JUMP JUMPDEST PUSH1 0x0 DUP2 CALLDATALOAD SWAP1 POP PUSH2 0x2E36 DUP2 PUSH2 0x4676 JUMP JUMPDEST SWAP3 SWAP2 POP POP JUMP JUMPDEST PUSH1 0x0 DUP1 DUP4 PUSH1 0x1F DUP5 ADD SLT PUSH2 0x2E4E JUMPI PUSH1 0x0 DUP1 REVERT JUMPDEST DUP3 CALLDATALOAD SWAP1 POP PUSH8 0xFFFFFFFFFFFFFFFF DUP2 GT ISZERO PUSH2 0x2E67 JUMPI PUSH1 0x0 DUP1 REVERT JUMPDEST PUSH1 0x20 DUP4 ADD SWAP2 POP DUP4 PUSH1 0x20 DUP3 MUL DUP4 ADD GT ISZERO PUSH2 0x2E7F JUMPI PUSH1 0x0 DUP1 REVERT JUMPDEST SWAP3 POP SWAP3 SWAP1 POP JUMP JUMPDEST PUSH1 0x0 DUP1 DUP4 PUSH1 0x1F DUP5 ADD SLT PUSH2 0x2E98 JUMPI PUSH1 0x0 DUP1 REVERT JUMPDEST DUP3 CALLDATALOAD SWAP1 POP PUSH8 0xFFFFFFFFFFFFFFFF DUP2 GT ISZERO PUSH2 0x2EB1 JUMPI PUSH1 0x0 DUP1 REVERT JUMPDEST PUSH1 0x20 DUP4 ADD SWAP2 POP DUP4 PUSH1 0x20 DUP3 MUL DUP4 ADD GT ISZERO PUSH2 0x2EC9 JUMPI PUSH1 0x0 DUP1 REVERT JUMPDEST SWAP3 POP SWAP3 SWAP1 POP JUMP JUMPDEST PUSH1 0x0 DUP2 CALLDATALOAD SWAP1 POP PUSH2 0x2EDF DUP2 PUSH2 0x468D JUMP JUMPDEST SWAP3 SWAP2 POP POP JUMP JUMPDEST PUSH1 0x0 DUP2 CALLDATALOAD SWAP1 POP PUSH2 0x2EF4 DUP2 PUSH2 0x46A4 JUMP JUMPDEST SWAP3 SWAP2 POP POP JUMP JUMPDEST PUSH1 0x0 DUP1 DUP4 PUSH1 0x1F DUP5 ADD SLT PUSH2 0x2F0C JUMPI PUSH1 0x0 DUP1 REVERT JUMPDEST DUP3 CALLDATALOAD SWAP1 POP PUSH8 0xFFFFFFFFFFFFFFFF DUP2 GT ISZERO PUSH2 0x2F25 JUMPI PUSH1 0x0 DUP1 REVERT JUMPDEST PUSH1 0x20 DUP4 ADD SWAP2 POP DUP4 PUSH1 0x1 DUP3 MUL DUP4 ADD GT ISZERO PUSH2 0x2F3D JUMPI PUSH1 0x0 DUP1 REVERT JUMPDEST SWAP3 POP SWAP3 SWAP1 POP JUMP JUMPDEST PUSH1 0x0 DUP2 CALLDATALOAD SWAP1 POP PUSH2 0x2F53 DUP2 PUSH2 0x46BB JUMP JUMPDEST SWAP3 SWAP2 POP POP JUMP JUMPDEST PUSH1 0x0 DUP2 CALLDATALOAD SWAP1 POP PUSH2 0x2F68 DUP2 PUSH2 0x46D2 JUMP JUMPDEST SWAP3 SWAP2 POP POP JUMP JUMPDEST PUSH1 0x0 DUP2 CALLDATALOAD SWAP1 POP PUSH2 0x2F7D DUP2 PUSH2 0x46E9 JUMP JUMPDEST SWAP3 SWAP2 POP POP JUMP JUMPDEST PUSH1 0x0 DUP2 CALLDATALOAD SWAP1 POP PUSH2 0x2F92 DUP2 PUSH2 0x4700 JUMP JUMPDEST SWAP3 SWAP2 POP POP JUMP JUMPDEST PUSH1 0x0 PUSH1 0x20 DUP3 DUP5 SUB SLT ISZERO PUSH2 0x2FAA JUMPI PUSH1 0x0 DUP1 REVERT JUMPDEST PUSH1 0x0 PUSH2 0x2FB8 DUP5 DUP3 DUP6 ADD PUSH2 0x2E12 JUMP JUMPDEST SWAP2 POP POP SWAP3 SWAP2 POP POP JUMP JUMPDEST PUSH1 0x0 PUSH1 0x20 DUP3 DUP5 SUB SLT ISZERO PUSH2 0x2FD3 JUMPI PUSH1 0x0 DUP1 REVERT JUMPDEST PUSH1 0x0 PUSH2 0x2FE1 DUP5 DUP3 DUP6 ADD PUSH2 0x2E27 JUMP JUMPDEST SWAP2 POP POP SWAP3 SWAP2 POP POP JUMP JUMPDEST PUSH1 0x0 DUP1 PUSH1 0x40 DUP4 DUP6 SUB SLT ISZERO PUSH2 0x2FFD JUMPI PUSH1 0x0 DUP1 REVERT JUMPDEST PUSH1 0x0 PUSH2 0x300B DUP6 DUP3 DUP7 ADD PUSH2 0x2E12 JUMP JUMPDEST SWAP3 POP POP PUSH1 0x20 PUSH2 0x301C DUP6 DUP3 DUP7 ADD PUSH2 0x2E12 JUMP JUMPDEST SWAP2 POP POP SWAP3 POP SWAP3 SWAP1 POP JUMP JUMPDEST PUSH1 0x0 DUP1 PUSH1 0x0 DUP1 PUSH1 0x80 DUP6 DUP8 SUB SLT ISZERO PUSH2 0x303C JUMPI PUSH1 0x0 DUP1 REVERT JUMPDEST PUSH1 0x0 PUSH2 0x304A DUP8 DUP3 DUP9 ADD PUSH2 0x2E12 JUMP JUMPDEST SWAP5 POP POP PUSH1 0x20 PUSH2 0x305B DUP8 DUP3 DUP9 ADD PUSH2 0x2E12 JUMP JUMPDEST SWAP4 POP POP PUSH1 0x40 PUSH2 0x306C DUP8 DUP3 DUP9 ADD PUSH2 0x2E12 JUMP JUMPDEST SWAP3 POP POP PUSH1 0x60 PUSH2 0x307D DUP8 DUP3 DUP9 ADD PUSH2 0x2F44 JUMP JUMPDEST SWAP2 POP POP SWAP3 SWAP6 SWAP2 SWAP5 POP SWAP3 POP JUMP JUMPDEST PUSH1 0x0 DUP1 PUSH1 0x0 PUSH1 0x60 DUP5 DUP7 SUB SLT ISZERO PUSH2 0x309E JUMPI PUSH1 0x0 DUP1 REVERT JUMPDEST PUSH1 0x0 PUSH2 0x30AC DUP7 DUP3 DUP8 ADD PUSH2 0x2E12 JUMP JUMPDEST SWAP4 POP POP PUSH1 0x20 PUSH2 0x30BD DUP7 DUP3 DUP8 ADD PUSH2 0x2ED0 JUMP JUMPDEST SWAP3 POP POP PUSH1 0x40 PUSH2 0x30CE DUP7 DUP3 DUP8 ADD PUSH2 0x2E12 JUMP JUMPDEST SWAP2 POP POP SWAP3 POP SWAP3 POP SWAP3 JUMP JUMPDEST PUSH1 0x0 DUP1 PUSH1 0x0 DUP1 PUSH1 0x0 DUP1 PUSH1 0xC0 DUP8 DUP10 SUB SLT ISZERO PUSH2 0x30F1 JUMPI PUSH1 0x0 DUP1 REVERT JUMPDEST PUSH1 0x0 PUSH2 0x30FF DUP10 DUP3 DUP11 ADD PUSH2 0x2E12 JUMP JUMPDEST SWAP7 POP POP PUSH1 0x20 PUSH2 0x3110 DUP10 DUP3 DUP11 ADD PUSH2 0x2ED0 JUMP JUMPDEST SWAP6 POP POP PUSH1 0x40 PUSH2 0x3121 DUP10 DUP3 DUP11 ADD PUSH2 0x2E12 JUMP JUMPDEST SWAP5 POP POP PUSH1 0x60 PUSH2 0x3132 DUP10 DUP3 DUP11 ADD PUSH2 0x2EE5 JUMP JUMPDEST SWAP4 POP POP PUSH1 0x80 PUSH2 0x3143 DUP10 DUP3 DUP11 ADD PUSH2 0x2F44 JUMP JUMPDEST SWAP3 POP POP PUSH1 0xA0 PUSH2 0x3154 DUP10 DUP3 DUP11 ADD PUSH2 0x2EE5 JUMP JUMPDEST SWAP2 POP POP SWAP3 SWAP6 POP SWAP3 SWAP6 POP SWAP3 SWAP6 JUMP JUMPDEST PUSH1 0x0 DUP1 PUSH1 0x0 DUP1 PUSH1 0x40 DUP6 DUP8 SUB SLT ISZERO PUSH2 0x3177 JUMPI PUSH1 0x0 DUP1 REVERT JUMPDEST PUSH1 0x0 DUP6 ADD CALLDATALOAD PUSH8 0xFFFFFFFFFFFFFFFF DUP2 GT ISZERO PUSH2 0x3191 JUMPI PUSH1 0x0 DUP1 REVERT JUMPDEST PUSH2 0x319D DUP8 DUP3 DUP9 ADD PUSH2 0x2E3C JUMP JUMPDEST SWAP5 POP SWAP5 POP POP PUSH1 0x20 DUP6 ADD CALLDATALOAD PUSH8 0xFFFFFFFFFFFFFFFF DUP2 GT ISZERO PUSH2 0x31BC JUMPI PUSH1 0x0 DUP1 REVERT JUMPDEST PUSH2 0x31C8 DUP8 DUP3 DUP9 ADD PUSH2 0x2E86 JUMP JUMPDEST SWAP3 POP SWAP3 POP POP SWAP3 SWAP6 SWAP2 SWAP5 POP SWAP3 POP JUMP JUMPDEST PUSH1 0x0 PUSH1 0x20 DUP3 DUP5 SUB SLT ISZERO PUSH2 0x31E8 JUMPI PUSH1 0x0 DUP1 REVERT JUMPDEST PUSH1 0x0 PUSH2 0x31F6 DUP5 DUP3 DUP6 ADD PUSH2 0x2ED0 JUMP JUMPDEST SWAP2 POP POP SWAP3 SWAP2 POP POP JUMP JUMPDEST PUSH1 0x0 DUP1 PUSH1 0x40 DUP4 DUP6 SUB SLT ISZERO PUSH2 0x3212 JUMPI PUSH1 0x0 DUP1 REVERT JUMPDEST PUSH1 0x0 PUSH2 0x3220 DUP6 DUP3 DUP7 ADD PUSH2 0x2ED0 JUMP JUMPDEST SWAP3 POP POP PUSH1 0x20 PUSH2 0x3231 DUP6 DUP3 DUP7 ADD PUSH2 0x2E12 JUMP JUMPDEST SWAP2 POP POP SWAP3 POP SWAP3 SWAP1 POP JUMP JUMPDEST PUSH1 0x0 DUP1 PUSH1 0x40 DUP4 DUP6 SUB SLT ISZERO PUSH2 0x324E JUMPI PUSH1 0x0 DUP1 REVERT JUMPDEST PUSH1 0x0 PUSH2 0x325C DUP6 DUP3 DUP7 ADD PUSH2 0x2ED0 JUMP JUMPDEST SWAP3 POP POP PUSH1 0x20 PUSH2 0x326D DUP6 DUP3 DUP7 ADD PUSH2 0x2F44 JUMP JUMPDEST SWAP2 POP POP SWAP3 POP SWAP3 SWAP1 POP JUMP JUMPDEST PUSH1 0x0 PUSH1 0x20 DUP3 DUP5 SUB SLT ISZERO PUSH2 0x3289 JUMPI PUSH1 0x0 DUP1 REVERT JUMPDEST PUSH1 0x0 PUSH2 0x3297 DUP5 DUP3 DUP6 ADD PUSH2 0x2F44 JUMP JUMPDEST SWAP2 POP POP SWAP3 SWAP2 POP POP JUMP JUMPDEST PUSH1 0x0 DUP1 PUSH1 0x0 PUSH1 0x60 DUP5 DUP7 SUB SLT ISZERO PUSH2 0x32B5 JUMPI PUSH1 0x0 DUP1 REVERT JUMPDEST PUSH1 0x0 PUSH2 0x32C3 DUP7 DUP3 DUP8 ADD PUSH2 0x2F6E JUMP JUMPDEST SWAP4 POP POP PUSH1 0x20 PUSH2 0x32D4 DUP7 DUP3 DUP8 ADD PUSH2 0x2ED0 JUMP JUMPDEST SWAP3 POP POP PUSH1 0x40 PUSH2 0x32E5 DUP7 DUP3 DUP8 ADD PUSH2 0x2E12 JUMP JUMPDEST SWAP2 POP POP SWAP3 POP SWAP3 POP SWAP3 JUMP JUMPDEST PUSH1 0x0 PUSH1 0x20 DUP3 DUP5 SUB SLT ISZERO PUSH2 0x3301 JUMPI PUSH1 0x0 DUP1 REVERT JUMPDEST PUSH1 0x0 PUSH2 0x330F DUP5 DUP3 DUP6 ADD PUSH2 0x2F83 JUMP JUMPDEST SWAP2 POP POP SWAP3 SWAP2 POP POP JUMP JUMPDEST PUSH1 0x0 DUP1 PUSH1 0x0 DUP1 PUSH1 0x60 DUP6 DUP8 SUB SLT ISZERO PUSH2 0x332E JUMPI PUSH1 0x0 DUP1 REVERT JUMPDEST PUSH1 0x0 PUSH2 0x333C DUP8 DUP3 DUP9 ADD PUSH2 0x2F83 JUMP JUMPDEST SWAP5 POP POP PUSH1 0x20 PUSH2 0x334D DUP8 DUP3 DUP9 ADD PUSH2 0x2ED0 JUMP JUMPDEST SWAP4 POP POP PUSH1 0x40 DUP6 ADD CALLDATALOAD PUSH8 0xFFFFFFFFFFFFFFFF DUP2 GT ISZERO PUSH2 0x336A JUMPI PUSH1 0x0 DUP1 REVERT JUMPDEST PUSH2 0x3376 DUP8 DUP3 DUP9 ADD PUSH2 0x2EFA JUMP JUMPDEST SWAP3 POP SWAP3 POP POP SWAP3 SWAP6 SWAP2 SWAP5 POP SWAP3 POP JUMP JUMPDEST PUSH1 0x0 DUP1 PUSH1 0x0 PUSH1 0x60 DUP5 DUP7 SUB SLT ISZERO PUSH2 0x3399 JUMPI PUSH1 0x0 DUP1 REVERT JUMPDEST PUSH1 0x0 PUSH2 0x33A7 DUP7 DUP3 DUP8 ADD PUSH2 0x2F83 JUMP JUMPDEST SWAP4 POP POP PUSH1 0x20 PUSH2 0x33B8 DUP7 DUP3 DUP8 ADD PUSH2 0x2F59 JUMP JUMPDEST SWAP3 POP POP PUSH1 0x40 PUSH2 0x33C9 DUP7 DUP3 DUP8 ADD PUSH2 0x2ED0 JUMP JUMPDEST SWAP2 POP POP SWAP3 POP SWAP3 POP SWAP3 JUMP JUMPDEST PUSH1 0x0 DUP1 PUSH1 0x0 DUP1 PUSH1 0x80 DUP6 DUP8 SUB SLT ISZERO PUSH2 0x33E9 JUMPI PUSH1 0x0 DUP1 REVERT JUMPDEST PUSH1 0x0 PUSH2 0x33F7 DUP8 DUP3 DUP9 ADD PUSH2 0x2F83 JUMP JUMPDEST SWAP5 POP POP PUSH1 0x20 PUSH2 0x3408 DUP8 DUP3 DUP9 ADD PUSH2 0x2F59 JUMP JUMPDEST SWAP4 POP POP PUSH1 0x40 PUSH2 0x3419 DUP8 DUP3 DUP9 ADD PUSH2 0x2ED0 JUMP JUMPDEST SWAP3 POP POP PUSH1 0x60 PUSH2 0x342A DUP8 DUP3 DUP9 ADD PUSH2 0x2ED0 JUMP JUMPDEST SWAP2 POP POP SWAP3 SWAP6 SWAP2 SWAP5 POP SWAP3 POP JUMP JUMPDEST PUSH1 0x0 DUP1 PUSH1 0x0 DUP1 PUSH1 0x0 PUSH1 0x80 DUP7 DUP9 SUB SLT ISZERO PUSH2 0x344E JUMPI PUSH1 0x0 DUP1 REVERT JUMPDEST PUSH1 0x0 PUSH2 0x345C DUP9 DUP3 DUP10 ADD PUSH2 0x2F83 JUMP JUMPDEST SWAP6 POP POP PUSH1 0x20 PUSH2 0x346D DUP9 DUP3 DUP10 ADD PUSH2 0x2F59 JUMP JUMPDEST SWAP5 POP POP PUSH1 0x40 DUP7 ADD CALLDATALOAD PUSH8 0xFFFFFFFFFFFFFFFF DUP2 GT ISZERO PUSH2 0x348A JUMPI PUSH1 0x0 DUP1 REVERT JUMPDEST PUSH2 0x3496 DUP9 DUP3 DUP10 ADD PUSH2 0x2EFA JUMP JUMPDEST SWAP4 POP SWAP4 POP POP PUSH1 0x60 PUSH2 0x34A9 DUP9 DUP3 DUP10 ADD PUSH2 0x2ED0 JUMP JUMPDEST SWAP2 POP POP SWAP3 SWAP6 POP SWAP3 SWAP6 SWAP1 SWAP4 POP JUMP JUMPDEST PUSH2 0x34BF DUP2 PUSH2 0x4586 JUMP JUMPDEST DUP3 MSTORE POP POP JUMP JUMPDEST PUSH2 0x34CE DUP2 PUSH2 0x445B JUMP JUMPDEST DUP3 MSTORE POP POP JUMP JUMPDEST PUSH2 0x34E5 PUSH2 0x34E0 DUP3 PUSH2 0x445B JUMP JUMPDEST PUSH2 0x4610 JUMP JUMPDEST DUP3 MSTORE POP POP JUMP JUMPDEST PUSH2 0x34F4 DUP2 PUSH2 0x447F JUMP JUMPDEST DUP3 MSTORE POP POP JUMP JUMPDEST PUSH2 0x3503 DUP2 PUSH2 0x448B JUMP JUMPDEST DUP3 MSTORE POP POP JUMP JUMPDEST PUSH2 0x3512 DUP2 PUSH2 0x4495 JUMP JUMPDEST DUP3 MSTORE POP POP JUMP JUMPDEST PUSH1 0x0 PUSH2 0x3524 DUP4 DUP6 PUSH2 0x442E JUMP JUMPDEST SWAP4 POP PUSH2 0x3531 DUP4 DUP6 DUP5 PUSH2 0x45CE JUMP JUMPDEST PUSH2 0x353A DUP4 PUSH2 0x4634 JUMP JUMPDEST DUP5 ADD SWAP1 POP SWAP4 SWAP3 POP POP POP JUMP JUMPDEST PUSH1 0x0 PUSH2 0x3551 DUP4 DUP6 PUSH2 0x443F JUMP JUMPDEST SWAP4 POP PUSH2 0x355E DUP4 DUP6 DUP5 PUSH2 0x45CE JUMP JUMPDEST DUP3 DUP5 ADD SWAP1 POP SWAP4 SWAP3 POP POP POP JUMP JUMPDEST PUSH2 0x3573 DUP2 PUSH2 0x4598 JUMP JUMPDEST DUP3 MSTORE POP POP JUMP JUMPDEST PUSH2 0x3582 DUP2 PUSH2 0x4598 JUMP JUMPDEST DUP3 MSTORE POP POP JUMP JUMPDEST PUSH1 0x0 PUSH2 0x3593 DUP3 PUSH2 0x4423 JUMP JUMPDEST PUSH2 0x359D DUP2 DUP6 PUSH2 0x444A JUMP JUMPDEST SWAP4 POP PUSH2 0x35AD DUP2 DUP6 PUSH1 0x20 DUP7 ADD PUSH2 0x45DD JUMP JUMPDEST PUSH2 0x35B6 DUP2 PUSH2 0x4634 JUMP JUMPDEST DUP5 ADD SWAP2 POP POP SWAP3 SWAP2 POP POP JUMP JUMPDEST PUSH1 0x0 PUSH2 0x35CE PUSH1 0x22 DUP4 PUSH2 0x444A JUMP JUMPDEST SWAP2 POP PUSH32 0x456E756D657261626C655365743A20696E646578206F7574206F6620626F756E PUSH1 0x0 DUP4 ADD MSTORE PUSH32 0x6473000000000000000000000000000000000000000000000000000000000000 PUSH1 0x20 DUP4 ADD MSTORE PUSH1 0x40 DUP3 ADD SWAP1 POP SWAP2 SWAP1 POP JUMP JUMPDEST PUSH1 0x0 PUSH2 0x3634 PUSH1 0x1E DUP4 PUSH2 0x444A JUMP JUMPDEST SWAP2 POP PUSH32 0x73656E646572206973206E6F742072656C61796572206F722061646D696E0000 PUSH1 0x0 DUP4 ADD MSTORE PUSH1 0x20 DUP3 ADD SWAP1 POP SWAP2 SWAP1 POP JUMP JUMPDEST PUSH1 0x0 PUSH2 0x3674 PUSH1 0x2F DUP4 PUSH2 0x444A JUMP JUMPDEST SWAP2 POP PUSH32 0x416363657373436F6E74726F6C3A2073656E646572206D75737420626520616E PUSH1 0x0 DUP4 ADD MSTORE PUSH32 0x2061646D696E20746F206772616E740000000000000000000000000000000000 PUSH1 0x20 DUP4 ADD MSTORE PUSH1 0x40 DUP3 ADD SWAP1 POP SWAP2 SWAP1 POP JUMP JUMPDEST PUSH1 0x0 PUSH2 0x36DA PUSH1 0x15 DUP4 PUSH2 0x444A JUMP JUMPDEST SWAP2 POP PUSH32 0x72656C6179657220616C726561647920766F7465640000000000000000000000 PUSH1 0x0 DUP4 ADD MSTORE PUSH1 0x20 DUP3 ADD SWAP1 POP SWAP2 SWAP1 POP JUMP JUMPDEST PUSH1 0x0 PUSH2 0x371A PUSH1 0x14 DUP4 PUSH2 0x444A JUMP JUMPDEST SWAP2 POP PUSH32 0x5061757361626C653A206E6F7420706175736564000000000000000000000000 PUSH1 0x0 DUP4 ADD MSTORE PUSH1 0x20 DUP3 ADD SWAP1 POP SWAP2 SWAP1 POP JUMP JUMPDEST PUSH1 0x0 PUSH2 0x375A PUSH1 0x1F DUP4 PUSH2 0x444A JUMP JUMPDEST SWAP2 POP PUSH32 0x6164647220646F65736E277420686176652072656C6179657220726F6C652100 PUSH1 0x0 DUP4 ADD MSTORE PUSH1 0x20 DUP3 ADD SWAP1 POP SWAP2 SWAP1 POP JUMP JUMPDEST PUSH1 0x0 PUSH2 0x379A PUSH1 0x1E DUP4 PUSH2 0x444A JUMP JUMPDEST SWAP2 POP PUSH32 0x76616C756520646F6573206E6F742066697420696E2031323820626974730000 PUSH1 0x0 DUP4 ADD MSTORE PUSH1 0x20 DUP3 ADD SWAP1 POP SWAP2 SWAP1 POP JUMP JUMPDEST PUSH1 0x0 PUSH2 0x37DA PUSH1 0x1D DUP4 PUSH2 0x444A JUMP JUMPDEST SWAP2 POP PUSH32 0x76616C756520646F6573206E6F742066697420696E2034302062697473000000 PUSH1 0x0 DUP4 ADD MSTORE PUSH1 0x20 DUP3 ADD SWAP1 POP SWAP2 SWAP1 POP JUMP JUMPDEST PUSH1 0x0 PUSH2 0x381A PUSH1 0x16 DUP4 PUSH2 0x444A JUMP JUMPDEST SWAP2 POP PUSH32 0x72656C6179657273206C696D6974207265616368656400000000000000000000 PUSH1 0x0 DUP4 ADD MSTORE PUSH1 0x20 DUP3 ADD SWAP1 POP SWAP2 SWAP1 POP JUMP JUMPDEST PUSH1 0x0 PUSH2 0x385A PUSH1 0x16 DUP4 PUSH2 0x444A JUMP JUMPDEST SWAP2 POP PUSH32 0x496E636F72726563742066656520737570706C69656400000000000000000000 PUSH1 0x0 DUP4 ADD MSTORE PUSH1 0x20 DUP3 ADD SWAP1 POP SWAP2 SWAP1 POP JUMP JUMPDEST PUSH1 0x0 PUSH2 0x389A PUSH1 0x1C DUP4 PUSH2 0x444A JUMP JUMPDEST SWAP2 POP PUSH32 0x50726F706F73616C2063616E6E6F742062652063616E63656C6C656400000000 PUSH1 0x0 DUP4 ADD MSTORE PUSH1 0x20 DUP3 ADD SWAP1 POP SWAP2 SWAP1 POP JUMP JUMPDEST PUSH1 0x0 PUSH2 0x38DA PUSH1 0x1C DUP4 PUSH2 0x444A JUMP JUMPDEST SWAP2 POP PUSH32 0x76616C756520646F6573206E6F742066697420696E2038206269747300000000 PUSH1 0x0 DUP4 ADD MSTORE PUSH1 0x20 DUP3 ADD SWAP1 POP SWAP2 SWAP1 POP JUMP JUMPDEST PUSH1 0x0 PUSH2 0x391A PUSH1 0x20 DUP4 PUSH2 0x444A JUMP JUMPDEST SWAP2 POP PUSH32 0x7265736F757263654944206E6F74206D617070656420746F2068616E646C6572 PUSH1 0x0 DUP4 ADD MSTORE PUSH1 0x20 DUP3 ADD SWAP1 POP SWAP2 SWAP1 POP JUMP JUMPDEST PUSH1 0x0 PUSH2 0x395A PUSH1 0x1E DUP4 PUSH2 0x444A JUMP JUMPDEST SWAP2 POP PUSH32 0x76616C756520646F6573206E6F742066697420696E2032303020626974730000 PUSH1 0x0 DUP4 ADD MSTORE PUSH1 0x20 DUP3 ADD SWAP1 POP SWAP2 SWAP1 POP JUMP JUMPDEST PUSH1 0x0 PUSH2 0x399A PUSH1 0x30 DUP4 PUSH2 0x444A JUMP JUMPDEST SWAP2 POP PUSH32 0x416363657373436F6E74726F6C3A2073656E646572206D75737420626520616E PUSH1 0x0 DUP4 ADD MSTORE PUSH32 0x2061646D696E20746F207265766F6B6500000000000000000000000000000000 PUSH1 0x20 DUP4 ADD MSTORE PUSH1 0x40 DUP3 ADD SWAP1 POP SWAP2 SWAP1 POP JUMP JUMPDEST PUSH1 0x0 PUSH2 0x3A00 PUSH1 0x20 DUP4 PUSH2 0x444A JUMP JUMPDEST SWAP2 POP PUSH32 0x50726F706F73616C206D75737420686176652050617373656420737461747573 PUSH1 0x0 DUP4 ADD MSTORE PUSH1 0x20 DUP3 ADD SWAP1 POP SWAP2 SWAP1 POP JUMP JUMPDEST PUSH1 0x0 PUSH2 0x3A40 PUSH1 0x20 DUP4 PUSH2 0x444A JUMP JUMPDEST SWAP2 POP PUSH32 0x50726F706F73616C206E6F7420617420657870697279207468726573686F6C64 PUSH1 0x0 DUP4 ADD MSTORE PUSH1 0x20 DUP3 ADD SWAP1 POP SWAP2 SWAP1 POP JUMP JUMPDEST PUSH1 0x0 PUSH2 0x3A80 PUSH1 0x10 DUP4 PUSH2 0x444A JUMP JUMPDEST SWAP2 POP PUSH32 0x5061757361626C653A2070617573656400000000000000000000000000000000 PUSH1 0x0 DUP4 ADD MSTORE PUSH1 0x20 DUP3 ADD SWAP1 POP SWAP2 SWAP1 POP JUMP JUMPDEST PUSH1 0x0 PUSH2 0x3AC0 PUSH1 0x1E DUP4 PUSH2 0x444A JUMP JUMPDEST SWAP2 POP PUSH32 0x6164647220616C7265616479206861732072656C6179657220726F6C65210000 PUSH1 0x0 DUP4 ADD MSTORE PUSH1 0x20 DUP3 ADD SWAP1 POP SWAP2 SWAP1 POP JUMP JUMPDEST PUSH1 0x0 PUSH2 0x3B00 PUSH1 0x17 DUP4 PUSH2 0x444A JUMP JUMPDEST SWAP2 POP PUSH32 0x43616E6E6F742072656E6F756E6365206F6E6573656C66000000000000000000 PUSH1 0x0 DUP4 ADD MSTORE PUSH1 0x20 DUP3 ADD SWAP1 POP SWAP2 SWAP1 POP JUMP JUMPDEST PUSH1 0x0 PUSH2 0x3B40 PUSH1 0x2A DUP4 PUSH2 0x444A JUMP JUMPDEST SWAP2 POP PUSH32 0x70726F706F73616C20616C7265616479207061737365642F6578656375746564 PUSH1 0x0 DUP4 ADD MSTORE PUSH32 0x2F63616E63656C6C656400000000000000000000000000000000000000000000 PUSH1 0x20 DUP4 ADD MSTORE PUSH1 0x40 DUP3 ADD SWAP1 POP SWAP2 SWAP1 POP JUMP JUMPDEST PUSH1 0x0 PUSH2 0x3BA6 PUSH1 0x20 DUP4 PUSH2 0x444A JUMP JUMPDEST SWAP2 POP PUSH32 0x73656E64657220646F65736E277420686176652072656C6179657220726F6C65 PUSH1 0x0 DUP4 ADD MSTORE PUSH1 0x20 DUP3 ADD SWAP1 POP SWAP2 SWAP1 POP JUMP JUMPDEST PUSH1 0x0 PUSH2 0x3BE6 PUSH1 0x1E DUP4 PUSH2 0x444A JUMP JUMPDEST SWAP2 POP PUSH32 0x73656E64657220646F65736E277420686176652061646D696E20726F6C650000 PUSH1 0x0 DUP4 ADD MSTORE PUSH1 0x20 DUP3 ADD SWAP1 POP SWAP2 SWAP1 POP JUMP JUMPDEST PUSH1 0x0 PUSH2 0x3C26 PUSH1 0x1F DUP4 PUSH2 0x444A JUMP JUMPDEST SWAP2 POP PUSH32 0x43757272656E742066656520697320657175616C20746F206E65772066656500 PUSH1 0x0 DUP4 ADD MSTORE PUSH1 0x20 DUP3 ADD SWAP1 POP SWAP2 SWAP1 POP JUMP JUMPDEST PUSH1 0x0 PUSH2 0x3C66 PUSH1 0x19 DUP4 PUSH2 0x444A JUMP JUMPDEST SWAP2 POP PUSH32 0x6E6F2068616E646C657220666F72207265736F75726365494400000000000000 PUSH1 0x0 DUP4 ADD MSTORE PUSH1 0x20 DUP3 ADD SWAP1 POP SWAP2 SWAP1 POP JUMP JUMPDEST PUSH1 0x0 PUSH2 0x3CA6 PUSH1 0x2F DUP4 PUSH2 0x444A JUMP JUMPDEST SWAP2 POP PUSH32 0x416363657373436F6E74726F6C3A2063616E206F6E6C792072656E6F756E6365 PUSH1 0x0 DUP4 ADD MSTORE PUSH32 0x20726F6C657320666F722073656C660000000000000000000000000000000000 PUSH1 0x20 DUP4 ADD MSTORE PUSH1 0x40 DUP3 ADD SWAP1 POP SWAP2 SWAP1 POP JUMP JUMPDEST PUSH1 0x80 DUP3 ADD PUSH1 0x0 DUP3 ADD MLOAD PUSH2 0x3D15 PUSH1 0x0 DUP6 ADD DUP3 PUSH2 0x356A JUMP JUMPDEST POP PUSH1 0x20 DUP3 ADD MLOAD PUSH2 0x3D28 PUSH1 0x20 DUP6 ADD DUP3 PUSH2 0x3D63 JUMP JUMPDEST POP PUSH1 0x40 DUP3 ADD MLOAD PUSH2 0x3D3B PUSH1 0x40 DUP6 ADD DUP3 PUSH2 0x3DAE JUMP JUMPDEST POP PUSH1 0x60 DUP3 ADD MLOAD PUSH2 0x3D4E PUSH1 0x60 DUP6 ADD DUP3 PUSH2 0x3D81 JUMP JUMPDEST POP POP POP POP JUMP JUMPDEST PUSH2 0x3D5D DUP2 PUSH2 0x44D4 JUMP JUMPDEST DUP3 MSTORE POP POP JUMP JUMPDEST PUSH2 0x3D6C DUP2 PUSH2 0x4510 JUMP JUMPDEST DUP3 MSTORE POP POP JUMP JUMPDEST PUSH2 0x3D7B DUP2 PUSH2 0x4535 JUMP JUMPDEST DUP3 MSTORE POP POP JUMP JUMPDEST PUSH2 0x3D8A DUP2 PUSH2 0x453F JUMP JUMPDEST DUP3 MSTORE POP POP JUMP JUMPDEST PUSH2 0x3D99 DUP2 PUSH2 0x453F JUMP JUMPDEST DUP3 MSTORE POP POP JUMP JUMPDEST PUSH2 0x3DA8 DUP2 PUSH2 0x4550 JUMP JUMPDEST DUP3 MSTORE POP POP JUMP JUMPDEST PUSH2 0x3DB7 DUP2 PUSH2 0x4579 JUMP JUMPDEST DUP3 MSTORE POP POP JUMP JUMPDEST PUSH2 0x3DC6 DUP2 PUSH2 0x4579 JUMP JUMPDEST DUP3 MSTORE POP POP JUMP JUMPDEST PUSH1 0x0 PUSH2 0x3DD8 DUP3 DUP7 PUSH2 0x34D4 JUMP JUMPDEST PUSH1 0x14 DUP3 ADD SWAP2 POP PUSH2 0x3DE9 DUP3 DUP5 DUP7 PUSH2 0x3545 JUMP JUMPDEST SWAP2 POP DUP2 SWAP1 POP SWAP5 SWAP4 POP POP POP POP JUMP JUMPDEST PUSH1 0x0 PUSH1 0x20 DUP3 ADD SWAP1 POP PUSH2 0x3E0B PUSH1 0x0 DUP4 ADD DUP5 PUSH2 0x34C5 JUMP JUMPDEST SWAP3 SWAP2 POP POP JUMP JUMPDEST PUSH1 0x0 PUSH1 0x20 DUP3 ADD SWAP1 POP PUSH2 0x3E26 PUSH1 0x0 DUP4 ADD DUP5 PUSH2 0x34B6 JUMP JUMPDEST SWAP3 SWAP2 POP POP JUMP JUMPDEST PUSH1 0x0 PUSH1 0x60 DUP3 ADD SWAP1 POP PUSH2 0x3E41 PUSH1 0x0 DUP4 ADD DUP7 PUSH2 0x34C5 JUMP JUMPDEST PUSH2 0x3E4E PUSH1 0x20 DUP4 ADD DUP6 PUSH2 0x34C5 JUMP JUMPDEST PUSH2 0x3E5B PUSH1 0x40 DUP4 ADD DUP5 PUSH2 0x3D72 JUMP JUMPDEST SWAP5 SWAP4 POP POP POP POP JUMP JUMPDEST PUSH1 0x0 PUSH1 0x20 DUP3 ADD SWAP1 POP PUSH2 0x3E78 PUSH1 0x0 DUP4 ADD DUP5 PUSH2 0x34EB JUMP JUMPDEST SWAP3 SWAP2 POP POP JUMP JUMPDEST PUSH1 0x0 PUSH1 0x20 DUP3 ADD SWAP1 POP PUSH2 0x3E93 PUSH1 0x0 DUP4 ADD DUP5 PUSH2 0x34FA JUMP JUMPDEST SWAP3 SWAP2 POP POP JUMP JUMPDEST PUSH1 0x0 PUSH1 0x40 DUP3 ADD SWAP1 POP PUSH2 0x3EAE PUSH1 0x0 DUP4 ADD DUP6 PUSH2 0x34FA JUMP JUMPDEST PUSH2 0x3EBB PUSH1 0x20 DUP4 ADD DUP5 PUSH2 0x34C5 JUMP JUMPDEST SWAP4 SWAP3 POP POP POP JUMP JUMPDEST PUSH1 0x0 PUSH1 0xA0 DUP3 ADD SWAP1 POP PUSH2 0x3ED7 PUSH1 0x0 DUP4 ADD DUP9 PUSH2 0x34FA JUMP JUMPDEST PUSH2 0x3EE4 PUSH1 0x20 DUP4 ADD DUP8 PUSH2 0x34C5 JUMP JUMPDEST PUSH2 0x3EF1 PUSH1 0x40 DUP4 ADD DUP7 PUSH2 0x3509 JUMP JUMPDEST PUSH2 0x3EFE PUSH1 0x60 DUP4 ADD DUP6 PUSH2 0x3D72 JUMP JUMPDEST PUSH2 0x3F0B PUSH1 0x80 DUP4 ADD DUP5 PUSH2 0x3509 JUMP JUMPDEST SWAP7 SWAP6 POP POP POP POP POP POP JUMP JUMPDEST PUSH1 0x0 PUSH1 0x40 DUP3 ADD SWAP1 POP PUSH2 0x3F2A PUSH1 0x0 DUP4 ADD DUP7 PUSH2 0x34FA JUMP JUMPDEST DUP2 DUP2 SUB PUSH1 0x20 DUP4 ADD MSTORE PUSH2 0x3F3D DUP2 DUP5 DUP7 PUSH2 0x3518 JUMP JUMPDEST SWAP1 POP SWAP5 SWAP4 POP POP POP POP JUMP JUMPDEST PUSH1 0x0 PUSH1 0xA0 DUP3 ADD SWAP1 POP PUSH2 0x3F5C PUSH1 0x0 DUP4 ADD DUP10 PUSH2 0x34FA JUMP JUMPDEST PUSH2 0x3F69 PUSH1 0x20 DUP4 ADD DUP9 PUSH2 0x3DBD JUMP JUMPDEST PUSH2 0x3F76 PUSH1 0x40 DUP4 ADD DUP8 PUSH2 0x3D9F JUMP JUMPDEST PUSH2 0x3F83 PUSH1 0x60 DUP4 ADD DUP7 PUSH2 0x34B6 JUMP JUMPDEST DUP2 DUP2 SUB PUSH1 0x80 DUP4 ADD MSTORE PUSH2 0x3F96 DUP2 DUP5 DUP7 PUSH2 0x3518 JUMP JUMPDEST SWAP1 POP SWAP8 SWAP7 POP POP POP POP POP POP POP JUMP JUMPDEST PUSH1 0x0 PUSH1 0x20 DUP3 ADD SWAP1 POP DUP2 DUP2 SUB PUSH1 0x0 DUP4 ADD MSTORE PUSH2 0x3FBD DUP2 DUP5 PUSH2 0x3588 JUMP JUMPDEST SWAP1 POP SWAP3 SWAP2 POP POP JUMP JUMPDEST PUSH1 0x0 PUSH1 0x20 DUP3 ADD SWAP1 POP DUP2 DUP2 SUB PUSH1 0x0 DUP4 ADD MSTORE PUSH2 0x3FDE DUP2 PUSH2 0x35C1 JUMP JUMPDEST SWAP1 POP SWAP2 SWAP1 POP JUMP JUMPDEST PUSH1 0x0 PUSH1 0x20 DUP3 ADD SWAP1 POP DUP2 DUP2 SUB PUSH1 0x0 DUP4 ADD MSTORE PUSH2 0x3FFE DUP2 PUSH2 0x3627 JUMP JUMPDEST SWAP1 POP SWAP2 SWAP1 POP JUMP JUMPDEST PUSH1 0x0 PUSH1 0x20 DUP3 ADD SWAP1 POP DUP2 DUP2 SUB PUSH1 0x0 DUP4 ADD MSTORE PUSH2 0x401E DUP2 PUSH2 0x3667 JUMP JUMPDEST SWAP1 POP SWAP2 SWAP1 POP JUMP JUMPDEST PUSH1 0x0 PUSH1 0x20 DUP3 ADD SWAP1 POP DUP2 DUP2 SUB PUSH1 0x0 DUP4 ADD MSTORE PUSH2 0x403E DUP2 PUSH2 0x36CD JUMP JUMPDEST SWAP1 POP SWAP2 SWAP1 POP JUMP JUMPDEST PUSH1 0x0 PUSH1 0x20 DUP3 ADD SWAP1 POP DUP2 DUP2 SUB PUSH1 0x0 DUP4 ADD MSTORE PUSH2 0x405E DUP2 PUSH2 0x370D JUMP JUMPDEST SWAP1 POP SWAP2 SWAP1 POP JUMP JUMPDEST PUSH1 0x0 PUSH1 0x20 DUP3 ADD SWAP1 POP DUP2 DUP2 SUB PUSH1 0x0 DUP4 ADD MSTORE PUSH2 0x407E DUP2 PUSH2 0x374D JUMP JUMPDEST SWAP1 POP SWAP2 SWAP1 POP JUMP JUMPDEST PUSH1 0x0 PUSH1 0x20 DUP3 ADD SWAP1 POP DUP2 DUP2 SUB PUSH1 0x0 DUP4 ADD MSTORE PUSH2 0x409E DUP2 PUSH2 0x378D JUMP JUMPDEST SWAP1 POP SWAP2 SWAP1 POP JUMP JUMPDEST PUSH1 0x0 PUSH1 0x20 DUP3 ADD SWAP1 POP DUP2 DUP2 SUB PUSH1 0x0 DUP4 ADD MSTORE PUSH2 0x40BE DUP2 PUSH2 0x37CD JUMP JUMPDEST SWAP1 POP SWAP2 SWAP1 POP JUMP JUMPDEST PUSH1 0x0 PUSH1 0x20 DUP3 ADD SWAP1 POP DUP2 DUP2 SUB PUSH1 0x0 DUP4 ADD MSTORE PUSH2 0x40DE DUP2 PUSH2 0x380D JUMP JUMPDEST SWAP1 POP SWAP2 SWAP1 POP JUMP JUMPDEST PUSH1 0x0 PUSH1 0x20 DUP3 ADD SWAP1 POP DUP2 DUP2 SUB PUSH1 0x0 DUP4 ADD MSTORE PUSH2 0x40FE DUP2 PUSH2 0x384D JUMP JUMPDEST SWAP1 POP SWAP2 SWAP1 POP JUMP JUMPDEST PUSH1 0x0 PUSH1 0x20 DUP3 ADD SWAP1 POP DUP2 DUP2 SUB PUSH1 0x0 DUP4 ADD MSTORE PUSH2 0x411E DUP2 PUSH2 0x388D JUMP JUMPDEST SWAP1 POP SWAP2 SWAP1 POP JUMP JUMPDEST PUSH1 0x0 PUSH1 0x20 DUP3 ADD SWAP1 POP DUP2 DUP2 SUB PUSH1 0x0 DUP4 ADD MSTORE PUSH2 0x413E DUP2 PUSH2 0x38CD JUMP JUMPDEST SWAP1 POP SWAP2 SWAP1 POP JUMP JUMPDEST PUSH1 0x0 PUSH1 0x20 DUP3 ADD SWAP1 POP DUP2 DUP2 SUB PUSH1 0x0 DUP4 ADD MSTORE PUSH2 0x415E DUP2 PUSH2 0x390D JUMP JUMPDEST SWAP1 POP SWAP2 SWAP1 POP JUMP JUMPDEST PUSH1 0x0 PUSH1 0x20 DUP3 ADD SWAP1 POP DUP2 DUP2 SUB PUSH1 0x0 DUP4 ADD MSTORE PUSH2 0x417E DUP2 PUSH2 0x394D JUMP JUMPDEST SWAP1 POP SWAP2 SWAP1 POP JUMP JUMPDEST PUSH1 0x0 PUSH1 0x20 DUP3 ADD SWAP1 POP DUP2 DUP2 SUB PUSH1 0x0 DUP4 ADD MSTORE PUSH2 0x419E DUP2 PUSH2 0x398D JUMP JUMPDEST SWAP1 POP SWAP2 SWAP1 POP JUMP JUMPDEST PUSH1 0x0 PUSH1 0x20 DUP3 ADD SWAP1 POP DUP2 DUP2 SUB PUSH1 0x0 DUP4 ADD MSTORE PUSH2 0x41BE DUP2 PUSH2 0x39F3 JUMP JUMPDEST SWAP1 POP SWAP2 SWAP1 POP JUMP JUMPDEST PUSH1 0x0 PUSH1 0x20 DUP3 ADD SWAP1 POP DUP2 DUP2 SUB PUSH1 0x0 DUP4 ADD MSTORE PUSH2 0x41DE DUP2 PUSH2 0x3A33 JUMP JUMPDEST SWAP1 POP SWAP2 SWAP1 POP JUMP JUMPDEST PUSH1 0x0 PUSH1 0x20 DUP3 ADD SWAP1 POP DUP2 DUP2 SUB PUSH1 0x0 DUP4 ADD MSTORE PUSH2 0x41FE DUP2 PUSH2 0x3A73 JUMP JUMPDEST SWAP1 POP SWAP2 SWAP1 POP JUMP JUMPDEST PUSH1 0x0 PUSH1 0x20 DUP3 ADD SWAP1 POP DUP2 DUP2 SUB PUSH1 0x0 DUP4 ADD MSTORE PUSH2 0x421E DUP2 PUSH2 0x3AB3 JUMP JUMPDEST SWAP1 POP SWAP2 SWAP1 POP JUMP JUMPDEST PUSH1 0x0 PUSH1 0x20 DUP3 ADD SWAP1 POP DUP2 DUP2 SUB PUSH1 0x0 DUP4 ADD MSTORE PUSH2 0x423E DUP2 PUSH2 0x3AF3 JUMP JUMPDEST SWAP1 POP SWAP2 SWAP1 POP JUMP JUMPDEST PUSH1 0x0 PUSH1 0x20 DUP3 ADD SWAP1 POP DUP2 DUP2 SUB PUSH1 0x0 DUP4 ADD MSTORE PUSH2 0x425E DUP2 PUSH2 0x3B33 JUMP JUMPDEST SWAP1 POP SWAP2 SWAP1 POP JUMP JUMPDEST PUSH1 0x0 PUSH1 0x20 DUP3 ADD SWAP1 POP DUP2 DUP2 SUB PUSH1 0x0 DUP4 ADD MSTORE PUSH2 0x427E DUP2 PUSH2 0x3B99 JUMP JUMPDEST SWAP1 POP SWAP2 SWAP1 POP JUMP JUMPDEST PUSH1 0x0 PUSH1 0x20 DUP3 ADD SWAP1 POP DUP2 DUP2 SUB PUSH1 0x0 DUP4 ADD MSTORE PUSH2 0x429E DUP2 PUSH2 0x3BD9 JUMP JUMPDEST SWAP1 POP SWAP2 SWAP1 POP JUMP JUMPDEST PUSH1 0x0 PUSH1 0x20 DUP3 ADD SWAP1 POP DUP2 DUP2 SUB PUSH1 0x0 DUP4 ADD MSTORE PUSH2 0x42BE DUP2 PUSH2 0x3C19 JUMP JUMPDEST SWAP1 POP SWAP2 SWAP1 POP JUMP JUMPDEST PUSH1 0x0 PUSH1 0x20 DUP3 ADD SWAP1 POP DUP2 DUP2 SUB PUSH1 0x0 DUP4 ADD MSTORE PUSH2 0x42DE DUP2 PUSH2 0x3C59 JUMP JUMPDEST SWAP1 POP SWAP2 SWAP1 POP JUMP JUMPDEST PUSH1 0x0 PUSH1 0x20 DUP3 ADD SWAP1 POP DUP2 DUP2 SUB PUSH1 0x0 DUP4 ADD MSTORE PUSH2 0x42FE DUP2 PUSH2 0x3C99 JUMP JUMPDEST SWAP1 POP SWAP2 SWAP1 POP JUMP JUMPDEST PUSH1 0x0 PUSH1 0x80 DUP3 ADD SWAP1 POP PUSH2 0x431A PUSH1 0x0 DUP4 ADD DUP5 PUSH2 0x3CFF JUMP JUMPDEST SWAP3 SWAP2 POP POP JUMP JUMPDEST PUSH1 0x0 PUSH1 0x20 DUP3 ADD SWAP1 POP PUSH2 0x4335 PUSH1 0x0 DUP4 ADD DUP5 PUSH2 0x3D54 JUMP JUMPDEST SWAP3 SWAP2 POP POP JUMP JUMPDEST PUSH1 0x0 PUSH1 0x20 DUP3 ADD SWAP1 POP PUSH2 0x4350 PUSH1 0x0 DUP4 ADD DUP5 PUSH2 0x3D72 JUMP JUMPDEST SWAP3 SWAP2 POP POP JUMP JUMPDEST PUSH1 0x0 PUSH1 0x20 DUP3 ADD SWAP1 POP PUSH2 0x436B PUSH1 0x0 DUP4 ADD DUP5 PUSH2 0x3D90 JUMP JUMPDEST SWAP3 SWAP2 POP POP JUMP JUMPDEST PUSH1 0x0 PUSH1 0x20 DUP3 ADD SWAP1 POP PUSH2 0x4386 PUSH1 0x0 DUP4 ADD DUP5 PUSH2 0x3D9F JUMP JUMPDEST SWAP3 SWAP2 POP POP JUMP JUMPDEST PUSH1 0x0 PUSH1 0x20 DUP3 ADD SWAP1 POP PUSH2 0x43A1 PUSH1 0x0 DUP4 ADD DUP5 PUSH2 0x3DBD JUMP JUMPDEST SWAP3 SWAP2 POP POP JUMP JUMPDEST PUSH1 0x0 PUSH1 0x60 DUP3 ADD SWAP1 POP PUSH2 0x43BC PUSH1 0x0 DUP4 ADD DUP7 PUSH2 0x3DBD JUMP JUMPDEST PUSH2 0x43C9 PUSH1 0x20 DUP4 ADD DUP6 PUSH2 0x34FA JUMP JUMPDEST PUSH2 0x43D6 PUSH1 0x40 DUP4 ADD DUP5 PUSH2 0x3D9F JUMP JUMPDEST SWAP5 SWAP4 POP POP POP POP JUMP JUMPDEST PUSH1 0x0 PUSH1 0x80 DUP3 ADD SWAP1 POP PUSH2 0x43F3 PUSH1 0x0 DUP4 ADD DUP8 PUSH2 0x3DBD JUMP JUMPDEST PUSH2 0x4400 PUSH1 0x20 DUP4 ADD DUP7 PUSH2 0x3D9F JUMP JUMPDEST PUSH2 0x440D PUSH1 0x40 DUP4 ADD DUP6 PUSH2 0x3579 JUMP JUMPDEST PUSH2 0x441A PUSH1 0x60 DUP4 ADD DUP5 PUSH2 0x34FA JUMP JUMPDEST SWAP6 SWAP5 POP POP POP POP POP JUMP JUMPDEST PUSH1 0x0 DUP2 MLOAD SWAP1 POP SWAP2 SWAP1 POP JUMP JUMPDEST PUSH1 0x0 DUP3 DUP3 MSTORE PUSH1 0x20 DUP3 ADD SWAP1 POP SWAP3 SWAP2 POP POP JUMP JUMPDEST PUSH1 0x0 DUP2 SWAP1 POP SWAP3 SWAP2 POP POP JUMP JUMPDEST PUSH1 0x0 DUP3 DUP3 MSTORE PUSH1 0x20 DUP3 ADD SWAP1 POP SWAP3 SWAP2 POP POP JUMP JUMPDEST PUSH1 0x0 PUSH2 0x4466 DUP3 PUSH2 0x44F0 JUMP JUMPDEST SWAP1 POP SWAP2 SWAP1 POP JUMP JUMPDEST PUSH1 0x0 PUSH2 0x4478 DUP3 PUSH2 0x44F0 JUMP JUMPDEST SWAP1 POP SWAP2 SWAP1 POP JUMP JUMPDEST PUSH1 0x0 DUP2 ISZERO ISZERO SWAP1 POP SWAP2 SWAP1 POP JUMP JUMPDEST PUSH1 0x0 DUP2 SWAP1 POP SWAP2 SWAP1 POP JUMP JUMPDEST PUSH1 0x0 PUSH32 0xFFFFFFFF00000000000000000000000000000000000000000000000000000000 DUP3 AND SWAP1 POP SWAP2 SWAP1 POP JUMP JUMPDEST PUSH1 0x0 DUP2 SWAP1 POP PUSH2 0x44CF DUP3 PUSH2 0x4652 JUMP JUMPDEST SWAP2 SWAP1 POP JUMP JUMPDEST PUSH1 0x0 PUSH16 0xFFFFFFFFFFFFFFFFFFFFFFFFFFFFFFFF DUP3 AND SWAP1 POP SWAP2 SWAP1 POP JUMP JUMPDEST PUSH1 0x0 PUSH20 0xFFFFFFFFFFFFFFFFFFFFFFFFFFFFFFFFFFFFFFFF DUP3 AND SWAP1 POP SWAP2 SWAP1 POP JUMP JUMPDEST PUSH1 0x0 PUSH25 0xFFFFFFFFFFFFFFFFFFFFFFFFFFFFFFFFFFFFFFFFFFFFFFFFFF DUP3 AND SWAP1 POP SWAP2 SWAP1 POP JUMP JUMPDEST PUSH1 0x0 DUP2 SWAP1 POP SWAP2 SWAP1 POP JUMP JUMPDEST PUSH1 0x0 PUSH5 0xFFFFFFFFFF DUP3 AND SWAP1 POP SWAP2 SWAP1 POP JUMP JUMPDEST PUSH1 0x0 PUSH8 0xFFFFFFFFFFFFFFFF DUP3 AND SWAP1 POP SWAP2 SWAP1 POP JUMP JUMPDEST PUSH1 0x0 PUSH9 0xFFFFFFFFFFFFFFFFFF DUP3 AND SWAP1 POP SWAP2 SWAP1 POP JUMP JUMPDEST PUSH1 0x0 PUSH1 0xFF DUP3 AND SWAP1 POP SWAP2 SWAP1 POP JUMP JUMPDEST PUSH1 0x0 PUSH2 0x4591 DUP3 PUSH2 0x45AA JUMP JUMPDEST SWAP1 POP SWAP2 SWAP1 POP JUMP JUMPDEST PUSH1 0x0 PUSH2 0x45A3 DUP3 PUSH2 0x44C1 JUMP JUMPDEST SWAP1 POP SWAP2 SWAP1 POP JUMP JUMPDEST PUSH1 0x0 PUSH2 0x45B5 DUP3 PUSH2 0x45BC JUMP JUMPDEST SWAP1 POP SWAP2 SWAP1 POP JUMP JUMPDEST PUSH1 0x0 PUSH2 0x45C7 DUP3 PUSH2 0x44F0 JUMP JUMPDEST SWAP1 POP SWAP2 SWAP1 POP JUMP JUMPDEST DUP3 DUP2 DUP4 CALLDATACOPY PUSH1 0x0 DUP4 DUP4 ADD MSTORE POP POP POP JUMP JUMPDEST PUSH1 0x0 JUMPDEST DUP4 DUP2 LT ISZERO PUSH2 0x45FB JUMPI DUP1 DUP3 ADD MLOAD DUP2 DUP5 ADD MSTORE PUSH1 0x20 DUP2 ADD SWAP1 POP PUSH2 0x45E0 JUMP JUMPDEST DUP4 DUP2 GT ISZERO PUSH2 0x460A JUMPI PUSH1 0x0 DUP5 DUP5 ADD MSTORE JUMPDEST POP POP POP POP JUMP JUMPDEST PUSH1 0x0 PUSH2 0x461B DUP3 PUSH2 0x4622 JUMP JUMPDEST SWAP1 POP SWAP2 SWAP1 POP JUMP JUMPDEST PUSH1 0x0 PUSH2 0x462D DUP3 PUSH2 0x4645 JUMP JUMPDEST SWAP1 POP SWAP2 SWAP1 POP JUMP JUMPDEST PUSH1 0x0 PUSH1 0x1F NOT PUSH1 0x1F DUP4 ADD AND SWAP1 POP SWAP2 SWAP1 POP JUMP JUMPDEST PUSH1 0x0 DUP2 PUSH1 0x60 SHL SWAP1 POP SWAP2 SWAP1 POP JUMP JUMPDEST PUSH1 0x5 DUP2 LT PUSH2 0x465C JUMPI INVALID JUMPDEST POP JUMP JUMPDEST PUSH2 0x4668 DUP2 PUSH2 0x445B JUMP JUMPDEST DUP2 EQ PUSH2 0x4673 JUMPI PUSH1 0x0 DUP1 REVERT JUMPDEST POP JUMP JUMPDEST PUSH2 0x467F DUP2 PUSH2 0x446D JUMP JUMPDEST DUP2 EQ PUSH2 0x468A JUMPI PUSH1 0x0 DUP1 REVERT JUMPDEST POP JUMP JUMPDEST PUSH2 0x4696 DUP2 PUSH2 0x448B JUMP JUMPDEST DUP2 EQ PUSH2 0x46A1 JUMPI PUSH1 0x0 DUP1 REVERT JUMPDEST POP JUMP JUMPDEST PUSH2 0x46AD DUP2 PUSH2 0x4495 JUMP JUMPDEST DUP2 EQ PUSH2 0x46B8 JUMPI PUSH1 0x0 DUP1 REVERT JUMPDEST POP JUMP JUMPDEST PUSH2 0x46C4 DUP2 PUSH2 0x4535 JUMP JUMPDEST DUP2 EQ PUSH2 0x46CF JUMPI PUSH1 0x0 DUP1 REVERT JUMPDEST POP JUMP JUMPDEST PUSH2 0x46DB DUP2 PUSH2 0x4550 JUMP JUMPDEST DUP2 EQ PUSH2 0x46E6 JUMPI PUSH1 0x0 DUP1 REVERT JUMPDEST POP JUMP JUMPDEST PUSH2 0x46F2 DUP2 PUSH2 0x4564 JUMP JUMPDEST DUP2 EQ PUSH2 0x46FD JUMPI PUSH1 0x0 DUP1 REVERT JUMPDEST POP JUMP JUMPDEST PUSH2 0x4709 DUP2 PUSH2 0x4579 JUMP JUMPDEST DUP2 EQ PUSH2 0x4714 JUMPI PUSH1 0x0 DUP1 REVERT JUMPDEST POP JUMP INVALID LOG2 PUSH5 0x6970667358 0x22 SLT KECCAK256 DIFFICULTY SWAP12 0xAF 0x22 PUSH27 0xC997E13A5D5A7B99A566C489B3B6C66726EC5C6ED82176B5434851 PUSH5 0x736F6C6343 STOP MOD 0xC STOP CALLER "
		},
		"gasEstimates": {
			"creation": {
				"codeDepositCost": "3650600",
				"executionCost": "infinite",
				"totalCost": "infinite"
			},
			"external": {
				"DEFAULT_ADMIN_ROLE()": "468",
				"MAX_RELAYERS()": "440",
				"RELAYER_ROLE()": "396",
				"_chainID()": "1238",
				"_depositCounts(uint8)": "1636",
				"_expiry()": "1332",
				"_fee()": "1307",
				"_hasVotedOnProposal(uint72,bytes32,address)": "infinite",
				"_relayerThreshold()": "1331",
				"_resourceIDToHandlerAddress(bytes32)": "1585",
				"_totalRelayers()": "1481",
				"adminAddRelayer(address)": "infinite",
				"adminChangeFee(uint256)": "infinite",
				"adminChangeRelayerThreshold(uint256)": "infinite",
				"adminPauseTransfers()": "infinite",
				"adminRemoveRelayer(address)": "infinite",
				"adminSetBurnable(address,address)": "infinite",
				"adminSetGenericResource(address,bytes32,address,bytes4,uint256,bytes4)": "infinite",
				"adminSetResource(address,bytes32,address)": "infinite",
				"adminUnpauseTransfers()": "infinite",
				"adminWithdraw(address,address,address,uint256)": "infinite",
				"cancelProposal(uint8,uint64,bytes32)": "infinite",
				"deposit(uint8,bytes32,bytes)": "infinite",
				"executeProposal(uint8,uint64,bytes,bytes32)": "infinite",
				"getProposal(uint8,uint64,bytes32)": "infinite",
				"getRoleAdmin(bytes32)": "infinite",
				"getRoleMember(bytes32,uint256)": "infinite",
				"getRoleMemberCount(bytes32)": "1725",
				"getRoleMemberIndex(bytes32,address)": "1878",
				"grantRole(bytes32,address)": "infinite",
				"hasRole(bytes32,address)": "infinite",
				"isRelayer(address)": "infinite",
				"paused()": "1313",
				"renounceAdmin(address)": "infinite",
				"renounceRole(bytes32,address)": "infinite",
				"revokeRole(bytes32,address)": "infinite",
				"transferFunds(address[],uint256[])": "infinite",
				"voteProposal(uint8,uint64,bytes32,bytes32)": "infinite"
			},
			"internal": {
				"_hasVoted(struct Bridge.Proposal memory,address)": "infinite",
				"_onlyAdmin()": "infinite",
				"_onlyAdminOrRelayer()": "infinite",
				"_onlyRelayers()": "infinite",
				"_relayerBit(address)": "infinite"
			}
		},
		"methodIdentifiers": {
			"DEFAULT_ADMIN_ROLE()": "a217fddf",
			"MAX_RELAYERS()": "9debb3bd",
			"RELAYER_ROLE()": "926d7d7f",
			"_chainID()": "beab7131",
			"_depositCounts(uint8)": "4b0b919d",
			"_expiry()": "c5ec8970",
			"_fee()": "c5b37c22",
			"_hasVotedOnProposal(uint72,bytes32,address)": "7febe63f",
			"_relayerThreshold()": "d7a9cd79",
			"_resourceIDToHandlerAddress(bytes32)": "84db809f",
			"_totalRelayers()": "802aabe8",
			"adminAddRelayer(address)": "cdb0f73a",
			"adminChangeFee(uint256)": "91c404ac",
			"adminChangeRelayerThreshold(uint256)": "4e056005",
			"adminPauseTransfers()": "80ae1c28",
			"adminRemoveRelayer(address)": "9d82dd63",
			"adminSetBurnable(address,address)": "8c0c2631",
			"adminSetGenericResource(address,bytes32,address,bytes4,uint256,bytes4)": "5a1ad87c",
			"adminSetResource(address,bytes32,address)": "cb10f215",
			"adminUnpauseTransfers()": "ffaac0eb",
			"adminWithdraw(address,address,address,uint256)": "780cf004",
			"cancelProposal(uint8,uint64,bytes32)": "17f03ce5",
			"deposit(uint8,bytes32,bytes)": "05e2ca17",
			"executeProposal(uint8,uint64,bytes,bytes32)": "4454b20d",
			"getProposal(uint8,uint64,bytes32)": "a9cf69fa",
			"getRoleAdmin(bytes32)": "248a9ca3",
			"getRoleMember(bytes32,uint256)": "9010d07c",
			"getRoleMemberCount(bytes32)": "ca15c873",
			"getRoleMemberIndex(bytes32,address)": "4e0df3f6",
			"grantRole(bytes32,address)": "2f2ff15d",
			"hasRole(bytes32,address)": "91d14854",
			"isRelayer(address)": "541d5548",
			"paused()": "5c975abb",
			"renounceAdmin(address)": "5e1fab0f",
			"renounceRole(bytes32,address)": "36568abe",
			"revokeRole(bytes32,address)": "d547741f",
			"transferFunds(address[],uint256[])": "4603ae38",
			"voteProposal(uint8,uint64,bytes32,bytes32)": "1ff013f1"
		}
	},
	"abi": [
		{
			"inputs": [
				{
					"internalType": "uint8",
					"name": "chainID",
					"type": "uint8"
				},
				{
					"internalType": "address[]",
					"name": "initialRelayers",
					"type": "address[]"
				},
				{
					"internalType": "uint256",
					"name": "initialRelayerThreshold",
					"type": "uint256"
				},
				{
					"internalType": "uint256",
					"name": "fee",
					"type": "uint256"
				},
				{
					"internalType": "uint256",
					"name": "expiry",
					"type": "uint256"
				}
			],
			"stateMutability": "nonpayable",
			"type": "constructor"
		},
		{
			"anonymous": false,
			"inputs": [
				{
					"indexed": false,
					"internalType": "uint8",
					"name": "destinationChainID",
					"type": "uint8"
				},
				{
					"indexed": false,
					"internalType": "bytes32",
					"name": "resourceID",
					"type": "bytes32"
				},
				{
					"indexed": false,
					"internalType": "uint64",
					"name": "depositNonce",
					"type": "uint64"
				}
			],
			"name": "Deposit",
			"type": "event"
		},
		{
			"anonymous": false,
			"inputs": [
				{
					"indexed": false,
					"internalType": "address",
					"name": "account",
					"type": "address"
				}
			],
			"name": "Paused",
			"type": "event"
		},
		{
			"anonymous": false,
			"inputs": [
				{
					"indexed": false,
					"internalType": "uint8",
					"name": "originChainID",
					"type": "uint8"
				},
				{
					"indexed": false,
					"internalType": "uint64",
					"name": "depositNonce",
					"type": "uint64"
				},
				{
					"indexed": false,
					"internalType": "enum Bridge.ProposalStatus",
					"name": "status",
					"type": "uint8"
				},
				{
					"indexed": false,
					"internalType": "bytes32",
					"name": "dataHash",
					"type": "bytes32"
				}
			],
			"name": "ProposalEvent",
			"type": "event"
		},
		{
			"anonymous": false,
			"inputs": [
				{
					"indexed": false,
					"internalType": "uint8",
					"name": "originChainID",
					"type": "uint8"
				},
				{
					"indexed": false,
					"internalType": "uint64",
					"name": "depositNonce",
					"type": "uint64"
				},
				{
					"indexed": false,
					"internalType": "enum Bridge.ProposalStatus",
					"name": "status",
					"type": "uint8"
				},
				{
					"indexed": false,
					"internalType": "bytes32",
					"name": "dataHash",
					"type": "bytes32"
				}
			],
			"name": "ProposalVote",
			"type": "event"
		},
		{
			"anonymous": false,
			"inputs": [
				{
					"indexed": false,
					"internalType": "address",
					"name": "relayer",
					"type": "address"
				}
			],
			"name": "RelayerAdded",
			"type": "event"
		},
		{
			"anonymous": false,
			"inputs": [
				{
					"indexed": false,
					"internalType": "address",
					"name": "relayer",
					"type": "address"
				}
			],
			"name": "RelayerRemoved",
			"type": "event"
		},
		{
			"anonymous": false,
			"inputs": [
				{
					"indexed": false,
					"internalType": "uint256",
					"name": "newThreshold",
					"type": "uint256"
				}
			],
			"name": "RelayerThresholdChanged",
			"type": "event"
		},
		{
			"anonymous": false,
			"inputs": [
				{
					"indexed": true,
					"internalType": "bytes32",
					"name": "role",
					"type": "bytes32"
				},
				{
					"indexed": true,
					"internalType": "address",
					"name": "account",
					"type": "address"
				},
				{
					"indexed": true,
					"internalType": "address",
					"name": "sender",
					"type": "address"
				}
			],
			"name": "RoleGranted",
			"type": "event"
		},
		{
			"anonymous": false,
			"inputs": [
				{
					"indexed": true,
					"internalType": "bytes32",
					"name": "role",
					"type": "bytes32"
				},
				{
					"indexed": true,
					"internalType": "address",
					"name": "account",
					"type": "address"
				},
				{
					"indexed": true,
					"internalType": "address",
					"name": "sender",
					"type": "address"
				}
			],
			"name": "RoleRevoked",
			"type": "event"
		},
		{
			"anonymous": false,
			"inputs": [
				{
					"indexed": false,
					"internalType": "address",
					"name": "account",
					"type": "address"
				}
			],
			"name": "Unpaused",
			"type": "event"
		},
		{
			"inputs": [],
			"name": "DEFAULT_ADMIN_ROLE",
			"outputs": [
				{
					"internalType": "bytes32",
					"name": "",
					"type": "bytes32"
				}
			],
			"stateMutability": "view",
			"type": "function"
		},
		{
			"inputs": [],
			"name": "MAX_RELAYERS",
			"outputs": [
				{
					"internalType": "uint256",
					"name": "",
					"type": "uint256"
				}
			],
			"stateMutability": "view",
			"type": "function"
		},
		{
			"inputs": [],
			"name": "RELAYER_ROLE",
			"outputs": [
				{
					"internalType": "bytes32",
					"name": "",
					"type": "bytes32"
				}
			],
			"stateMutability": "view",
			"type": "function"
		},
		{
			"inputs": [],
			"name": "_chainID",
			"outputs": [
				{
					"internalType": "uint8",
					"name": "",
					"type": "uint8"
				}
			],
			"stateMutability": "view",
			"type": "function"
		},
		{
			"inputs": [
				{
					"internalType": "uint8",
					"name": "",
					"type": "uint8"
				}
			],
			"name": "_depositCounts",
			"outputs": [
				{
					"internalType": "uint64",
					"name": "",
					"type": "uint64"
				}
			],
			"stateMutability": "view",
			"type": "function"
		},
		{
			"inputs": [],
			"name": "_expiry",
			"outputs": [
				{
					"internalType": "uint40",
					"name": "",
					"type": "uint40"
				}
			],
			"stateMutability": "view",
			"type": "function"
		},
		{
			"inputs": [],
			"name": "_fee",
			"outputs": [
				{
					"internalType": "uint128",
					"name": "",
					"type": "uint128"
				}
			],
			"stateMutability": "view",
			"type": "function"
		},
		{
			"inputs": [
				{
					"internalType": "uint72",
					"name": "destNonce",
					"type": "uint72"
				},
				{
					"internalType": "bytes32",
					"name": "dataHash",
					"type": "bytes32"
				},
				{
					"internalType": "address",
					"name": "relayer",
					"type": "address"
				}
			],
			"name": "_hasVotedOnProposal",
			"outputs": [
				{
					"internalType": "bool",
					"name": "",
					"type": "bool"
				}
			],
			"stateMutability": "view",
			"type": "function"
		},
		{
			"inputs": [],
			"name": "_relayerThreshold",
			"outputs": [
				{
					"internalType": "uint8",
					"name": "",
					"type": "uint8"
				}
			],
			"stateMutability": "view",
			"type": "function"
		},
		{
			"inputs": [
				{
					"internalType": "bytes32",
					"name": "",
					"type": "bytes32"
				}
			],
			"name": "_resourceIDToHandlerAddress",
			"outputs": [
				{
					"internalType": "address",
					"name": "",
					"type": "address"
				}
			],
			"stateMutability": "view",
			"type": "function"
		},
		{
			"inputs": [],
			"name": "_totalRelayers",
			"outputs": [
				{
					"internalType": "uint256",
					"name": "",
					"type": "uint256"
				}
			],
			"stateMutability": "view",
			"type": "function"
		},
		{
			"inputs": [
				{
					"internalType": "address",
					"name": "relayerAddress",
					"type": "address"
				}
			],
			"name": "adminAddRelayer",
			"outputs": [],
			"stateMutability": "nonpayable",
			"type": "function"
		},
		{
			"inputs": [
				{
					"internalType": "uint256",
					"name": "newFee",
					"type": "uint256"
				}
			],
			"name": "adminChangeFee",
			"outputs": [],
			"stateMutability": "nonpayable",
			"type": "function"
		},
		{
			"inputs": [
				{
					"internalType": "uint256",
					"name": "newThreshold",
					"type": "uint256"
				}
			],
			"name": "adminChangeRelayerThreshold",
			"outputs": [],
			"stateMutability": "nonpayable",
			"type": "function"
		},
		{
			"inputs": [],
			"name": "adminPauseTransfers",
			"outputs": [],
			"stateMutability": "nonpayable",
			"type": "function"
		},
		{
			"inputs": [
				{
					"internalType": "address",
					"name": "relayerAddress",
					"type": "address"
				}
			],
			"name": "adminRemoveRelayer",
			"outputs": [],
			"stateMutability": "nonpayable",
			"type": "function"
		},
		{
			"inputs": [
				{
					"internalType": "address",
					"name": "handlerAddress",
					"type": "address"
				},
				{
					"internalType": "address",
					"name": "tokenAddress",
					"type": "address"
				}
			],
			"name": "adminSetBurnable",
			"outputs": [],
			"stateMutability": "nonpayable",
			"type": "function"
		},
		{
			"inputs": [
				{
					"internalType": "address",
					"name": "handlerAddress",
					"type": "address"
				},
				{
					"internalType": "bytes32",
					"name": "resourceID",
					"type": "bytes32"
				},
				{
					"internalType": "address",
					"name": "contractAddress",
					"type": "address"
				},
				{
					"internalType": "bytes4",
					"name": "depositFunctionSig",
					"type": "bytes4"
				},
				{
					"internalType": "uint256",
					"name": "depositFunctionDepositerOffset",
					"type": "uint256"
				},
				{
					"internalType": "bytes4",
					"name": "executeFunctionSig",
					"type": "bytes4"
				}
			],
			"name": "adminSetGenericResource",
			"outputs": [],
			"stateMutability": "nonpayable",
			"type": "function"
		},
		{
			"inputs": [
				{
					"internalType": "address",
					"name": "handlerAddress",
					"type": "address"
				},
				{
					"internalType": "bytes32",
					"name": "resourceID",
					"type": "bytes32"
				},
				{
					"internalType": "address",
					"name": "tokenAddress",
					"type": "address"
				}
			],
			"name": "adminSetResource",
			"outputs": [],
			"stateMutability": "nonpayable",
			"type": "function"
		},
		{
			"inputs": [],
			"name": "adminUnpauseTransfers",
			"outputs": [],
			"stateMutability": "nonpayable",
			"type": "function"
		},
		{
			"inputs": [
				{
					"internalType": "address",
					"name": "handlerAddress",
					"type": "address"
				},
				{
					"internalType": "address",
					"name": "tokenAddress",
					"type": "address"
				},
				{
					"internalType": "address",
					"name": "recipient",
					"type": "address"
				},
				{
					"internalType": "uint256",
					"name": "amountOrTokenID",
					"type": "uint256"
				}
			],
			"name": "adminWithdraw",
			"outputs": [],
			"stateMutability": "nonpayable",
			"type": "function"
		},
		{
			"inputs": [
				{
					"internalType": "uint8",
					"name": "chainID",
					"type": "uint8"
				},
				{
					"internalType": "uint64",
					"name": "depositNonce",
					"type": "uint64"
				},
				{
					"internalType": "bytes32",
					"name": "dataHash",
					"type": "bytes32"
				}
			],
			"name": "cancelProposal",
			"outputs": [],
			"stateMutability": "nonpayable",
			"type": "function"
		},
		{
			"inputs": [
				{
					"internalType": "uint8",
					"name": "destinationChainID",
					"type": "uint8"
				},
				{
					"internalType": "bytes32",
					"name": "resourceID",
					"type": "bytes32"
				},
				{
					"internalType": "bytes",
					"name": "data",
					"type": "bytes"
				}
			],
			"name": "deposit",
			"outputs": [],
			"stateMutability": "payable",
			"type": "function"
		},
		{
			"inputs": [
				{
					"internalType": "uint8",
					"name": "chainID",
					"type": "uint8"
				},
				{
					"internalType": "uint64",
					"name": "depositNonce",
					"type": "uint64"
				},
				{
					"internalType": "bytes",
					"name": "data",
					"type": "bytes"
				},
				{
					"internalType": "bytes32",
					"name": "resourceID",
					"type": "bytes32"
				}
			],
			"name": "executeProposal",
			"outputs": [],
			"stateMutability": "nonpayable",
			"type": "function"
		},
		{
			"inputs": [
				{
					"internalType": "uint8",
					"name": "originChainID",
					"type": "uint8"
				},
				{
					"internalType": "uint64",
					"name": "depositNonce",
					"type": "uint64"
				},
				{
					"internalType": "bytes32",
					"name": "dataHash",
					"type": "bytes32"
				}
			],
			"name": "getProposal",
			"outputs": [
				{
					"components": [
						{
							"internalType": "enum Bridge.ProposalStatus",
							"name": "_status",
							"type": "uint8"
						},
						{
							"internalType": "uint200",
							"name": "_yesVotes",
							"type": "uint200"
						},
						{
							"internalType": "uint8",
							"name": "_yesVotesTotal",
							"type": "uint8"
						},
						{
							"internalType": "uint40",
							"name": "_proposedBlock",
							"type": "uint40"
						}
					],
					"internalType": "struct Bridge.Proposal",
					"name": "",
					"type": "tuple"
				}
			],
			"stateMutability": "view",
			"type": "function"
		},
		{
			"inputs": [
				{
					"internalType": "bytes32",
					"name": "role",
					"type": "bytes32"
				}
			],
			"name": "getRoleAdmin",
			"outputs": [
				{
					"internalType": "bytes32",
					"name": "",
					"type": "bytes32"
				}
			],
			"stateMutability": "view",
			"type": "function"
		},
		{
			"inputs": [
				{
					"internalType": "bytes32",
					"name": "role",
					"type": "bytes32"
				},
				{
					"internalType": "uint256",
					"name": "index",
					"type": "uint256"
				}
			],
			"name": "getRoleMember",
			"outputs": [
				{
					"internalType": "address",
					"name": "",
					"type": "address"
				}
			],
			"stateMutability": "view",
			"type": "function"
		},
		{
			"inputs": [
				{
					"internalType": "bytes32",
					"name": "role",
					"type": "bytes32"
				}
			],
			"name": "getRoleMemberCount",
			"outputs": [
				{
					"internalType": "uint256",
					"name": "",
					"type": "uint256"
				}
			],
			"stateMutability": "view",
			"type": "function"
		},
		{
			"inputs": [
				{
					"internalType": "bytes32",
					"name": "role",
					"type": "bytes32"
				},
				{
					"internalType": "address",
					"name": "account",
					"type": "address"
				}
			],
			"name": "getRoleMemberIndex",
			"outputs": [
				{
					"internalType": "uint256",
					"name": "",
					"type": "uint256"
				}
			],
			"stateMutability": "view",
			"type": "function"
		},
		{
			"inputs": [
				{
					"internalType": "bytes32",
					"name": "role",
					"type": "bytes32"
				},
				{
					"internalType": "address",
					"name": "account",
					"type": "address"
				}
			],
			"name": "grantRole",
			"outputs": [],
			"stateMutability": "nonpayable",
			"type": "function"
		},
		{
			"inputs": [
				{
					"internalType": "bytes32",
					"name": "role",
					"type": "bytes32"
				},
				{
					"internalType": "address",
					"name": "account",
					"type": "address"
				}
			],
			"name": "hasRole",
			"outputs": [
				{
					"internalType": "bool",
					"name": "",
					"type": "bool"
				}
			],
			"stateMutability": "view",
			"type": "function"
		},
		{
			"inputs": [
				{
					"internalType": "address",
					"name": "relayer",
					"type": "address"
				}
			],
			"name": "isRelayer",
			"outputs": [
				{
					"internalType": "bool",
					"name": "",
					"type": "bool"
				}
			],
			"stateMutability": "view",
			"type": "function"
		},
		{
			"inputs": [],
			"name": "paused",
			"outputs": [
				{
					"internalType": "bool",
					"name": "",
					"type": "bool"
				}
			],
			"stateMutability": "view",
			"type": "function"
		},
		{
			"inputs": [
				{
					"internalType": "address",
					"name": "newAdmin",
					"type": "address"
				}
			],
			"name": "renounceAdmin",
			"outputs": [],
			"stateMutability": "nonpayable",
			"type": "function"
		},
		{
			"inputs": [
				{
					"internalType": "bytes32",
					"name": "role",
					"type": "bytes32"
				},
				{
					"internalType": "address",
					"name": "account",
					"type": "address"
				}
			],
			"name": "renounceRole",
			"outputs": [],
			"stateMutability": "nonpayable",
			"type": "function"
		},
		{
			"inputs": [
				{
					"internalType": "bytes32",
					"name": "role",
					"type": "bytes32"
				},
				{
					"internalType": "address",
					"name": "account",
					"type": "address"
				}
			],
			"name": "revokeRole",
			"outputs": [],
			"stateMutability": "nonpayable",
			"type": "function"
		},
		{
			"inputs": [
				{
					"internalType": "address payable[]",
					"name": "addrs",
					"type": "address[]"
				},
				{
					"internalType": "uint256[]",
					"name": "amounts",
					"type": "uint256[]"
				}
			],
			"name": "transferFunds",
			"outputs": [],
			"stateMutability": "nonpayable",
			"type": "function"
		},
		{
			"inputs": [
				{
					"internalType": "uint8",
					"name": "chainID",
					"type": "uint8"
				},
				{
					"internalType": "uint64",
					"name": "depositNonce",
					"type": "uint64"
				},
				{
					"internalType": "bytes32",
					"name": "resourceID",
					"type": "bytes32"
				},
				{
					"internalType": "bytes32",
					"name": "dataHash",
					"type": "bytes32"
				}
			],
			"name": "voteProposal",
			"outputs": [],
			"stateMutability": "nonpayable",
			"type": "function"
		}
	]
}